:100000000C9471010C9499010C9499010C94990130
:100010000C9499010C9499010C9499010C949901F8
:100020000C9499010C9499010C9499010C949901E8
:100030000C9499010C9499010C9499010C949901D8
:100040000C94BC0B0C9499010C948A0B0C94640BCB
:100050000C9499010C9499010C9499010C949901B8
:100060000C9499010C9499013E0041766572616788
:10007000652077696E6420646972656374696F6E68
:100080002E2E2E203C003E0041637475616C20775B
:10009000696E6420646972656374696F6E2E2E2EBA
:1000A0002E203C00206D2F730041766572616765DC
:1000B0002077696E642073706565642E2E200020A1
:1000C0006D2F730041637475616C2077696E6420D5
:1000D00073706565642E2E2E20002025004162730A
:1000E0006F6C75746548756D69646974792E2E2E10
:1000F000200020C2B0430048656174496E64657891
:100100002E2E2E2E2E2E2E2E2E2E200020C2B0432E
:1001100000446577506F696E742E2E2E2E2E2E2E73
:100120002E2E2E2E200020C2B0430057657420745E
:10013000656D70657261747572652E2E2E2E2000AD
:1001400020250048756D69646974792E2E2E2E2E37
:100150002E2E2E2E2E2E200020685061005072650B
:1001600073737572652E2E2E2E2E2E2E2E2E2E2E63
:10017000200020C2B043004472792074656D706520
:100180007261747572652E2E2E2E2000207C2052F6
:100190006573756C7420697320007365632E207C11
:1001A0002052657175657374206D61646520736C90
:1001B000617665204964206E722E004D696C6C6911
:1001C000732074696D653A2000000000002300264A
:1001D000002900206D6D2F68003E2000206D6D2FDE
:1001E00073003E20005261696E206761756765206B
:1001F0007261696E20726174653A005261696E20A5
:100200006761756765206275636B657473206F76CF
:1002100065727475726E696E673A20007365632E3D
:1002200000206174206D696C6C69732074696D6560
:100230003A20005374617274696E67207461736B45
:1002400020540000000000240027002A00000000C5
:1002500000250028002B0004040404040404040204
:100260000202020202030303030303010204081053
:100270002040800102040810200102040810200020
:100280000000080002010000030407000000000055
:10029000000000536F667477617265207665727333
:1002A000696F6E3A20004D41494E205745415445F3
:1002B000522053544154494F4E20424F4152440022
:1002C000206269742F73005374617274206D6F64BF
:1002D0006275732F73657269616C20617420000010
:1002E000060C11241FBECFEFD8E0DEBFCDBF12E059
:1002F000A0E0B1E0ECE1F3E202C005900D92A4327F
:10030000B107D9F724E0A4E2B2E001C01D92A636FD
:10031000B207E1F711E0C1E7D1E004C02197FE0187
:100320000E946110C037D107C9F70E94630C0C947A
:100330008C110C940000AF92BF92CF92DF92EF929B
:10034000FF920F931F93CF93DF936C017B018B017F
:10035000040F151FEB015E01AE18BF08C017D107CF
:1003600059F06991D601ED91FC910190F081E02D59
:10037000C6010995892B79F7C501DF91CF911F91AE
:100380000F91FF90EF90DF90CF90BF90AF900895C6
:10039000FC01538D448D252F30E0842F90E0821B8B
:1003A000930B541710F0CF96089501970895FC0110
:1003B000918D828D981761F0A28DAE0FBF2FB11D68
:1003C0005D968C91928D9F5F9F73928F90E00895C0
:1003D0008FEF9FEF0895FC01918D828D981731F07A
:1003E000828DE80FF11D858D90E008958FEF9FEFCE
:1003F0000895FC01918D228D892F90E0805C9F4FA4
:10040000821B91098F739927089582E892E00E94D8
:10041000F90121E0892B09F420E0822F089580E082
:1004200090E0892B29F00E94050281110C940000B4
:100430000895FC01A48DA80FB92FB11DA35ABF4F79
:100440002C91848D90E001968F739927848FA689D3
:10045000B7892C93A089B1898C91837080648C9327
:10046000938D848D981306C00288F389E02D8081D6
:100470008F7D80830895EF92FF920F931F93CF9308
:10048000DF93EC0181E0888F9B8D8C8D98131AC0CF
:10049000E889F989808185FF15C09FB7F894EE89B6
:1004A000FF896083E889F989808183708064808313
:1004B0009FBF81E090E0DF91CF911F910F91FF905E
:1004C000EF900895F62E0B8D10E00F5F1F4F0F7306
:1004D0001127E02E8C8D8E110CC00FB607FCFACFC1
:1004E000E889F989808185FFF5CFCE010E94190244
:1004F000F1CFEB8DEC0FFD2FF11DE35AFF4FF08292
:100500009FB7F8940B8FEA89FB8980818062CFCFF7
:100510000F931F93CF93DF938C01D0E0C0E0F801DD
:10052000EC0FFD1F6491662341F082E892E00E9487
:100530003B02892B11F02196F2CFCE01DF91CF91B2
:100540001F910F910895CF93DF93EC01888D88233D
:10055000B9F0AA89BB89E889F9898C9185FD03C026
:10056000808186FD0DC00FB607FCF7CF8C9185FF0B
:10057000F2CF808185FFEDCFCE010E941902E9CF35
:10058000DF91CF910895833081F028F4813099F084
:100590008230A9F008958730A9F08830C9F08430FE
:1005A000B1F4809180008F7D03C0809180008F77AF
:1005B00080938000089584B58F7784BD089584B5B5
:1005C0008F7DFBCF8091B0008F778093B00008952E
:1005D0008091B0008F7DF9CF1F93CF93DF93282FA9
:1005E00030E0F901E158FD4F8491F901E559FD4FE3
:1005F000D491F901E95AFD4FC491CC23A9F0162FEB
:1006000081110E94C302EC2FF0E0EE0FFF1FE35BAD
:10061000FD4FA591B4918FB7F894EC91111108C0DA
:10062000D095DE23DC938FBFDF91CF911F9108958A
:10063000DE2BF8CF61E083E00C94EC0260E083E015
:100640000C94EC02CF93DF9390E0FC01E559FD4F51
:100650002491895A9D4FFC0184918823D1F090E028
:10066000880F991FFC01ED5BFD4FA591B491FC0132
:10067000E35BFD4FC591D49161110EC09FB7F89413
:100680008C91E22FE0958E238C932881E223E883DE
:100690009FBFDF91CF9108958FB7F894EC91E22B33
:1006A000EC938FBFF6CF3FB7F89480916902909199
:1006B0006A02A0916B02B0916C0226B5A89B05C09E
:1006C0002F3F19F00196A11DB11D3FBFBA2FA92FD1
:1006D000982F8827BC01CD01620F711D811D911DCE
:1006E00042E0660F771F881F991F4A95D1F708953A
:1006F0002FB7F8946091650270916602809167024D
:10070000909168022FBF08958F929F92AF92BF92EF
:10071000EF92FF920F931F93CF93DF93EC01088129
:1007200019810115110509F457C0CB01BA010E94C6
:10073000090FF8017183608388859A81891710F405
:100740008F5F8887F884FF828F81882379F0E82F74
:10075000F0E0E150F048EE0FFF1FE00FF11F2081A5
:1007600031813383228381508F83EECFFF20A1F12B
:100770001B821C821D821E8281E08F83EF808B8012
:100780009C80AD80BE80FE14B8F0EE2DF0E0EE0F40
:10079000FF1FE00FF11F6081718190E080E00E94F7
:1007A000380FA50194010E94260E6B837C838D83F4
:1007B0009E83E394EF82E2CF6F2D70E090E080E0C3
:1007C0000E94380F9B01AC01C501B4010E94970E35
:1007D0006B837C838D839E836B817C818D819E81E5
:1007E000DF91CF911F910F91FF90EF90BF90AF904D
:1007F0009F908F900895FC0101900020E9F73197B8
:10080000AF01481B590BBC0182E892E00C949B019C
:100810008CE291E00C94FB03CF93DF930E9488025B
:10082000EC010E9408048C0F9D1FDF91CF91089569
:100830008F929F92AF92BF920F931F93CF93DF93AC
:10084000CDB7DEB7A1970FB6F894DEBF0FBECDBF10
:1008500019A2423008F44AE08E010F5D1F4F842E2A
:10086000912CB12CA12CA50194010E94030EE62F1E
:10087000B901CA01EA30F4F4E05DD801EE938D01CC
:10088000232B242B252B79F790E080E0109719F08B
:10089000CD010E94FB03A1960FB6F894DEBF0FBEF8
:1008A000CDBFDF91CF911F910F91BF90AF909F90DF
:1008B0008F900895E95CE1CF4F925F926F927F92A3
:1008C0008F929F92AF92BF92CF92DF92EF92FF9260
:1008D0006B017C01AC019B010E945C10882381F0BC
:1008E0008FE291E0FF90EF90DF90CF90BF90AF90BC
:1008F0009F908F907F906F905F904F900C94FB0330
:1009000046015701E894B7F82FEF3FEF4FE75FE755
:10091000C501B4010E945C1081110DC02FEF3FEFA3
:100920004FE75FE7C501B4010E94920E18161CF450
:1009300083E391E0D7CF2FEF3FEF4FE75FE4C701AD
:10094000B6010E94EA0F18161CF487E391E0CACFA3
:100950002FEF3FEF4FE75FECC701B6010E94920E09
:1009600087FDF3CF20E030E0A901C701B6010E9466
:10097000920EB12CA12C87FF0AC06DE282E892E0B2
:100980000E943B025C01F7FAF094F7F8F0942AE039
:1009900037ED43EA5BE3C701B6010E94260E2B0147
:1009A0003C010E94090F6B017C010E94380F9B01E2
:1009B000AC01C301B2010E94250E2B013C014AE0AB
:1009C000C701B6010E9418047C01EA0CFB1C6EE210
:1009D00082E892E00E943B02E80EF91E20E030E03F
:1009E00040E251E4C301B2010E94EF0F2B013C0130
:1009F0000E94090F4B01B12CA12C4AE0C501B401A2
:100A00000E941804E80EF91EC501B4010E94380FB7
:100A10009B01AC01C301B2010E94250E20E030E031
:100A200040E251E40E94EF0F0E94090F90E080E045
:100A30004AE00E9418048E0D9F1DFF90EF90DF90FA
:100A4000CF90BF90AF909F908F907F906F905F906E
:100A50004F900895CF92DF92EF92FF92CF93DF9362
:100A60006C01990FEE08FF08F7FE19C06DE282E8ED
:100A700092E00E943B02EC0166277727CB016C19BC
:100A80007D098E099F094AE00E9418048C0F9D1F62
:100A9000DF91CF91FF90EF90DF90CF9008954AE0E3
:100AA000C701B601DF91CF91FF90EF90DF90CF901B
:100AB0000C941804CF92DF92EF92FF920F931F9342
:100AC000CF93DF938C01EC01CC0FDD1FCC0FDD1F2A
:100AD000FE01E85AFD4FC080D180E280F380C1144E
:100AE000D104E104F10481F583E392E00E948802DD
:100AF000C80101960E942A0581E292E00E948802C4
:100B00000E9478030E94380F20E030E04AE754E466
:100B10000E94970E0E945C048CE192E00E94880281
:100B20000E9408040E947803C85ADD4F68837983C5
:100B30008A839B8381E0DF91CF911F910F91FF907A
:100B4000EF90DF90CF9008950E947803C616D706E5
:100B5000E806F906C9F00E9478039B01AC012C1944
:100B60003D094E095F0969017A01FE01E25FFE4F0E
:100B700080819181A281B381C816D906EA06FB065D
:100B800008F0B2CF80E0D7CF0E947803C61AD70A08
:100B9000E80AF90AEACF4F925F926F927F928F92A2
:100BA0009F92AF92BF92CF92DF92EF92FF92CF933C
:100BB000DF93E4E8F2E08491E0E7F2E0D491ECE541
:100BC000F2E0C491CC2379F081110E94C302EC2F92
:100BD000F0E0EE0FFF1FE753FE4FA591B491EC91AB
:100BE000ED23C1E009F4C0E0C09357020E947803EE
:100BF0006B017C0180904F0290905002A0905102B6
:100C0000B0905202C814D904EA04FB0409F458C095
:100C10000E947803681979098A099B09603E734923
:100C20008440910508F05BC080914E02813009F04C
:100C300023C1C11124C110924E02C0904F02D09026
:100C40005002E0905102F0905202C114D104E1042C
:100C5000F10409F4FCC00E9478034B015C01409050
:100C600053025090540260905502709056028414C2
:100C70009504A604B704E1F10E947803641975098C
:100C8000860997096C347D4181059105F0F50E9434
:100C900078036093530270935402809355029093AB
:100CA0005602DF91CF91FF90EF90DF90CF90BF90F1
:100CB000AF909F908F907F906F905F904F9008952E
:100CC0000E947803C61AD70AE80AF90A30EEC3165A
:100CD00033E9D30634E0E306F10408F4A5CF10921B
:100CE0004F021092500210925102109252029CCF69
:100CF0000E947803861A970AA80AB90A5CE4851646
:100D00005DE19506A104B10410F20E94780360939E
:100D100053027093540280935502909356020E949E
:100D20007803C616D706E806F90609F485C00E94BE
:100D300078036C197D098E099F090E94380F20E005
:100D400030E04AE754E40E94970E6B017C010E9458
:100D5000780360934F0270935002809351029093F6
:100D60005202A70196016AE979E989E99EE30E94A6
:100D7000970E6093460270934702809348029093C7
:100D8000490220E030E041E655E40E94EF0F609315
:100D90004A0270934B0280934C0290934D02C09193
:100DA0004402D09145022196D0934502C09344025B
:100DB0008BEF91E00E948802BE0190E080E04AE063
:100DC0000E9418040E94080485EE91E00E940C0421
:100DD00082EE91E00E948802609146027091470283
:100DE00080914802909149020E945C048CED91E050
:100DF0000E940C0489ED91E00E94880260914A02F1
:100E000070914B0280914C0290914D020E945C04C3
:100E100083ED91E00E940C04DF91CF91FF90EF9061
:100E2000DF90CF90BF90AF909F908F907F906F900A
:100E30005F904F900C9408040E947803A7019601DC
:100E4000261B370B480B590BCA01B90176CF0E94FC
:100E500078036093530270935402809355029093E9
:100E600056020E94780360934F0270935002809361
:100E700051029093520293CFC13009F012CF81E01A
:100E800080934E020ECF2F923F924F925F927F92AD
:100E90008F929F92AF92BF92CF92DF92EF92FF928A
:100EA0000F931F93CF93DF93CDB7DEB7DA950FB6CD
:100EB000F894DEBF0FBECDBF782E82E892E00E948C
:100EC000A302C72CD12C25E0729EF0011124E35916
:100ED000FD4F8281882309F4DFC3208120934A03D8
:100EE00042E852E05093490340934803109255045E
:100EF0001092570410925604EFE4F3E04FEC53E0E5
:100F0000119211924E175F07D9F791E090937D02ED
:100F100095E09C9DF0019D9DF00D1124E359FD4F3E
:100F20009181492F50E050934C0340934B03482F3D
:100F300050E050934E0340934D03298323E02A83CE
:100F40001B829C831D828E838E010F5F1F4FAE011B
:100F5000495F5F4FF8018FEF9FEF58012191822782
:100F600028E030E0BC016170772796958795672B64
:100F700021F061E0862760EA96272150310991F738
:100F80004E175F0759F78F8398871986809148031A
:100F900090914903DC01ED91FC910284F385E02DF1
:100FA0000995019699F7E0915E04F0915F043097FE
:100FB00009F009954801E8E08E0E911C80914803E4
:100FC00090914903D8016D918D01DC01ED91FC9167
:100FD0000190F081E02D09950815190579F78091A8
:100FE000480390914903DC01ED91FC910680F78163
:100FF000E02D0995E0916004F0916104309709F0CB
:1010000009950E9478031B012C0100E0A8E09A2EAC
:101010008091480390914903DC01ED91FC9100849B
:10102000F185E02D0995892B09F448C0809148038A
:1010300090914903DC01ED91FC910284F385E02D50
:101040000995F501E00FF11D80839A940F5F05303B
:1010500009F05BC0998180914A03981347C1EA81E6
:101060008E2F8F77833009F043C1E7FF30C01B819B
:1010700011115EC08FEF9FEF60E010E098012250E9
:101080003109462F50E0421753070CF0DEC04A0DDD
:101090005B1DFA014081842748E050E0FC01E170CB
:1010A000FF2796958795EF2B21F0F1E08F27F0EA47
:1010B0009F274150510991F76F5FE3CFE0915C04A6
:1010C000F0915D04309709F4C2CF0995C0CFE35089
:1010D000E531D8F4F0E0E159F74F0C946110840841
:1010E0008408EA08EA0885088508850885088508CF
:1010F000850885088508EA08EA08850885088508BE
:1011000085088508E70884089B800E947803621997
:1011100073098409950912EE613D774081059105B7
:1011200008F410E0992009F458C0112309F470CF95
:1011300010925504109257041092560410925A04BB
:101140008BEB91E00E9488020E9478030E94380F86
:1011500020E030E04AE754E40E94970E0E945C04CD
:101160008AE991E00E94880285E08C9DF0018D9DC6
:10117000F00D1124E359FD4F608170E090E080E0B4
:101180004AE00E9418048CE891E00E948802112332
:1011900009F45DC1113009F45CC2123009F45EC279
:1011A000133009F460C2143009F462C2103E09F42D
:1011B00064C2113E09F466C2123E09F468C2133ECD
:1011C00009F049C183EEE82E81E0F82E44C1F5E034
:1011D0009F2E9BCFE3E09E2E98CF1111A9CF053013
:1011E00008F048CF8A81853030F4833030F4813084
:1011F000D0F510E09DCF8731E1F76B8170E07595F8
:10120000679590915B0480E0282F30E02617370720
:101210000CF069C08034B0F4A9014E5F5F4F440FF9
:10122000551F220F331FF901E85BFC4FDE01A40FAD
:10123000B51F2C914A0D5B1DDA019C91322F292F8D
:1012400030872783982F8F5FDFCF2A0D3B1DD90171
:101250002C91281306C00C0F1D1FF80180818917DF
:1012600009F213EE65CF6B81462F50E055954795F7
:1012700030915B0420E0822F90E084179507E4F41E
:101280002034B8F4880F991FFC01E85BFC4FA5E0FF
:10129000B0E0AC0FBD1FA80FB91F3C91A4E0B0E0B7
:1012A000AC0FBD1F8A0F9B1FDC018C91932F908781
:1012B0008783322F2F5FDFCF30935B0460FF99CF9E
:1012C000203468F4880F991FFC01E85BFC4F8C0FF9
:1012D0009D1FDC0114968C9190E0908787832F5F8F
:1012E00020935B0486CF90935B0483CF10EE20CFD6
:1012F00011EE1ECF90932B0280932A02111118C079
:1013000060914F037091500370932D0260932C02F3
:1013100090E080E00E94380FAB01BC018CE293E0CA
:101320000E9484030E94090F70932F0260932E0283
:1013300084EC90E00E94880260912C0270912D0252
:1013400090E080E00E94380F20E030E040E251E47D
:101350000E94970E0E945C048FEB90E00E940C04A8
:1013600089EA90E00E94880260912E0270912F021B
:1013700090E080E00E94380F20E030E040E251E44D
:101380000E94970E0E945C0484EA90E00E940C0484
:10139000D3950FB6F894DEBF0FBECDBFDF91CF91CE
:1013A0001F910F91FF90EF90DF90CF90BF90AF9083
:1013B0009F908F907F905F904F903F902F900C94D4
:1013C00008049093250280932402111139C0609182
:1013D0004F0370915003709327026093260290E0B0
:1013E00080E00E94380FAB01BC018FE193E00E94C6
:1013F00084030E94090F709329026093280288E8F1
:1014000090E00E948802609126027091270290E08D
:1014100080E04AE00E94180486E890E00E940C04F4
:101420008AE690E00E948802609128027091290269
:1014300090E080E04AE00E94180488E690E0A6CFA1
:1014400080E190E09093270280932602D8CFE8EFC6
:10145000EE2EE1E0FE2EC7010E94FB030E9408046D
:1014600010927D02812F90E0B1E07B1609F442CF0B
:10147000E2E07E1609F4A5CF909333028093320206
:10148000111140C080914F03909150039093350209
:1014900080933402809151039091520390933702CC
:1014A00080933602809153039091540390933902B4
:1014B00080933802809155039091560390933B029C
:1014C00080933A02809157039091580390933D0284
:1014D00080933C028091590390915A0390933F026C
:1014E00080933E0280915B0390915C039093410254
:1014F0008093400280915D0390915E03909343023C
:101500008093420287E791E00E9488026091340252
:101510007091350290E080E00E94380F20E030E0CA
:1015200040E251E40E94970E0E945C0482E791E041
:101530000E940C048DE591E00E94880260913602C1
:101540007091370290E080E00E94380F20E030E098
:1015500040E251E40E94970E0E945C0488E591E00D
:101560000E940C0483E491E00E948802609138029A
:101570007091390290E080E00E94380F20E030E066
:1015800040E251E40E94970E0E945C0480E491E0E6
:101590000E940C048BE291E00E94880260913A0262
:1015A00070913B0290E080E00E94380F20E030E034
:1015B00040E251E40E94970E0E945C0486E291E0B2
:1015C0000E940C0481E191E00E94880260913C023B
:1015D00070913D0290E080E00E94380F20E030E002
:1015E00040E251E40E94970E0E945C048CE091E07E
:1015F0000E940C0487EF90E00E94880260913E02F6
:1016000070913F0290E080E00E94380F20E030E0CF
:1016100040E251E40E94970E0E945C0482EF90E049
:101620000E940C048DED90E00E94880260914002BF
:101630007091410290E080E00E94380F20E030E09D
:1016400040E251E40E94970E0E945C048AED90E013
:101650009DCE79E0E72E72E0F72EFDCE6BE3E62E0D
:1016600061E0F62EF8CE59E5E52E51E0F52EF3CEE9
:1016700045E7E42E41E0F42EEECE33E9E32E31E0EF
:10168000F32EE9CE2DEAE22E21E0F22EE4CE97EC05
:10169000E92E91E0F92EDFCED3950FB6F894DEBF98
:1016A0000FBECDBFDF91CF911F910F91FF90EF90B3
:1016B000DF90CF90BF90AF909F908F907F905F9082
:1016C0004F903F902F9008951F920F920FB60F9258
:1016D00011242F933F934F935F936F937F938F9337
:1016E0009F93AF93BF93EF93FF9382E892E00E94A2
:1016F0001902FF91EF91BF91AF919F918F917F91CF
:101700006F915F914F913F912F910F900FBE0F906E
:101710001F9018951F920F920FB60F9211242F93BE
:101720008F939F93EF93FF93E0919202F091930236
:101730008081E0919802F091990282FD1BC0908116
:1017400080919B028F5F8F7320919C02821741F0E2
:10175000E0919B02F0E0EE57FD4F958F80939B0246
:10176000FF91EF919F918F912F910F900FBE0F904E
:101770001F9018958081F4CF1F920F920FB60F9291
:1017800011242F933F938F939F93AF93BF93809197
:10179000650290916602A0916702B0916802309153
:1017A000640223E0230F2D3758F50196A11DB11DCA
:1017B000209364028093650290936602A09367026F
:1017C000B09368028091690290916A02A0916B02C5
:1017D000B0916C020196A11DB11D80936902909396
:1017E0006A02A0936B02B0936C02BF91AF919F917C
:1017F0008F913F912F910F900FBE0F901F901895D2
:1018000026E8230F0296A11DB11DD2CFE2E8F2E037
:101810001382128288EE93E0A0E0B0E08483958387
:10182000A683B7838EE191E09183808385EC90E07D
:101830009587848784EC90E09787868780EC90E09A
:10184000918B808B81EC90E0938B828B82EC90E08B
:10185000958B848B86EC90E0978B868B118E128E05
:10186000138E148E10925D0410925C0410925F042B
:1018700010925E041092610410926004E9E3F3E0B8
:101880001182108213821282ECE2F3E01182108244
:101890001282138214821582168217821086118694
:1018A000128613861486EFE1F3E011821082128211
:1018B0001382148215821682178210861186128670
:1018C000138614860895789484B5826084BD84B5A7
:1018D000816084BD85B5826085BD85B5816085BD2B
:1018E00080916E00816080936E00109281008091E3
:1018F000810082608093810080918100816080936B
:101900008100809180008160809380008091B1008F
:1019100084608093B1008091B00081608093B000BA
:1019200080917A00846080937A0080917A0082604E
:1019300080937A0080917A00816080937A00809110
:101940007A00806880937A001092C10088E28093C8
:101950002E0382E590E00E94671090932D03809300
:101960002C038AE08093210386E190E00E946710B7
:101970009093200380931F0361E086E00E9422037E
:1019800060E085E00E94220361E083E00E94220380
:1019900081E080936D0294E690936E0298E09093BC
:1019A0006F029BEC9093700296E09093710222E09C
:1019B0002093720210927302809374021092750247
:1019C0001092760233E0309377021092780280937F
:1019D000790210927A0210927B024AE153E050930E
:1019E0005F0440935E044EE153E0509361044093E2
:1019F00060044BEC55E050935D0440935C04E0912F
:101A00009202F09193022083E0918E02F0918F0276
:101A10001082E0919002F09191028FEC80831092FD
:101A20009A02E0919602F09197029083E0919402DD
:101A3000F0919502808180618083E0919402F09121
:101A40009502808188608083E0919402F0919502F4
:101A5000808180688083E0919402F091950280817A
:101A60008F7D808387EC92E00E94880280E895E277
:101A70000E942A0580EC92E00E940C040E94080457
:101A800086EA92E00E940C0483E992E00E948802B8
:101A900080E091E00E94FB030E9408040E94080479
:101AA0000E9453034B015C0184ECC82E89E0D82EC0
:101AB000E12CF12C0E945303681979098A099B09CA
:101AC000683E734081059105A8F321E0C21AD10850
:101AD000E108F10838EE830E33E0931EA11CB11C1F
:101AE000C114D104E104F10429F781E080937C0260
:101AF000C0E0D0E00E94780360937E0270937F0282
:101B000080938002909381020E94CB0580917D0298
:101B1000811131C090E080E00E945A05882359F17C
:101B200080E00E94430760917C0286E00E94EC0204
:101B30000E947803C0907E02D0907F02E0908002E5
:101B4000F09081026C157D058E059F0561F10E9464
:101B500078036C197D098E099F096431710581052F
:101B6000910578F1209731F20E940502882311F245
:101B70000E940000BFCF80917D02811108C081E0EA
:101B800090E00E945A05882311F081E0CACF80912D
:101B90007D028111C8CF82E090E00E945A0588231F
:101BA00011F282E0BECF0E947803A7019601261BA6
:101BB000370B480B590BDA01C9014497A105B10550
:101BC00088F60E947803C616D706E806F90661F083
:101BD0000E9478036C197D098E099F096531710592
:101BE0008105910570F3BECF0E947803A70196018D
:101BF000261B370B480B590BDA01C9014597A10584
:101C0000B105F8F2AFCFA1E21A2EAA1BBB1BFD0152
:101C10000DC0AA1FBB1FEE1FFF1FA217B307E407CB
:101C2000F50720F0A21BB30BE40BF50B661F771F23
:101C3000881F991F1A9469F7609570958095909503
:101C40009B01AC01BD01CF0108955058BB27AA27C5
:101C50000E943D0E0C94B00F0E94A20F38F00E941B
:101C6000A90F20F039F49F3F19F426F40C949F0F2C
:101C70000EF4E095E7FB0C94990FE92F0E94C10F39
:101C800058F3BA17620773078407950720F079F4B1
:101C9000A6F50C94E30F0EF4E0950B2EBA2FA02DB1
:101CA0000B01B90190010C01CA01A0011124FF2709
:101CB000591B99F0593F50F4503E68F11A16F04004
:101CC000A22F232F342F4427585FF3CF4695379503
:101CD0002795A795F0405395C9F77EF41F16BA0BC8
:101CE000620B730B840BBAF09150A1F0FF0FBB1F76
:101CF000661F771F881FC2F70EC0BA0F621F731FBF
:101D0000841F48F4879577956795B795F7959E3F1B
:101D100008F0B0CF9395880F08F09927EE0F9795AC
:101D2000879508950E94750F08F481E008950E9438
:101D3000AB0E0C94B00F0E94A90F58F00E94A20F96
:101D400040F029F45F3F29F00C94990F51110C9445
:101D5000E40F0C949F0F0E94C10F68F39923B1F315
:101D6000552391F3951B550BBB27AA2762177307C1
:101D7000840738F09F5F5F4F220F331F441FAA1F55
:101D8000A9F335D00E2E3AF0E0E832D09150504011
:101D9000E695001CCAF72BD0FE2F29D0660F771FBF
:101DA000881FBB1F261737074807AB07B0E809F0A5
:101DB000BB0B802DBF01FF2793585F4F3AF09E3F2A
:101DC000510578F00C94990F0C94E40F5F3FE4F305
:101DD000983ED4F3869577956795B795F7959F5F6D
:101DE000C9F7880F911D9695879597F90895E1E0B9
:101DF000660F771F881FBB1F621773078407BA0718
:101E000020F0621B730B840BBA0BEE1F88F7E09572
:101E100008950E94C90F88F09F5798F0B92F99270D
:101E2000B751B0F0E1F0660F771F881F991F1AF0C5
:101E3000BA95C9F714C0B13091F00E94E30FB1E038
:101E400008950C94E30F672F782F8827B85F39F037
:101E5000B93FCCF3869577956795B395D9F73EF45E
:101E600090958095709561957F4F8F4F9F4F089506
:101E7000E89409C097FB3EF4909580957095619524
:101E80007F4F8F4F9F4F9923A9F0F92F96E9BB27DA
:101E90009395F695879577956795B795F111F8CF56
:101EA000FAF4BB0F11F460FF1BC06F5F7F4F8F4FC1
:101EB0009F4F16C0882311F096E911C0772321F0B7
:101EC0009EE8872F762F05C0662371F096E8862F4F
:101ED00070E060E02AF09A95660F771F881FDAF7A6
:101EE000880F9695879597F90895990F0008550FD3
:101EF000AA0BE0E8FEEF16161706E807F907C0F090
:101F000012161306E407F50798F0621B730B840B97
:101F1000950B39F40A2661F0232B242B252B21F471
:101F200008950A2609F4A140A6958FEF811D811D11
:101F3000089597F99F6780E870E060E008959FEF4B
:101F400080EC089500240A94161617061806090650
:101F5000089500240A94121613061406050608951F
:101F6000092E0394000C11F4882352F0BB0F40F4A7
:101F7000BF2B11F460FF04C06F5F7F4F8F4F9F4FE7
:101F8000089557FD9058440F551F59F05F3F71F069
:101F90004795880F97FB991F61F09F3F79F08795D0
:101FA0000895121613061406551FF2CF4695F1DF59
:101FB00008C0161617061806991FF1CF86957105E9
:101FC000610508940895E894BB2766277727CB011D
:101FD00097F908950E94750F08F48FEF08950E94F5
:101FE00002100C94B00F0E94A20F38F00E94A90FAB
:101FF00020F0952311F00C94990F0C949F0F11244D
:102000000C94E40F0E94C10F70F3959FC1F3950FDC
:1020100050E0551F629FF001729FBB27F00DB11D6C
:10202000639FAA27F00DB11DAA1F649F6627B00DFC
:10203000A11D661F829F2227B00DA11D621F739FE5
:10204000B00DA11D621F839FA00D611D221F749FF3
:102050003327A00D611D231F849F600D211D822F3A
:10206000762F6A2F11249F5750409AF0F1F0882361
:102070004AF0EE0FFF1FBB1F661F771F881F91508E
:102080005040A9F79E3F510580F00C94990F0C9495
:10209000E40F5F3FE4F3983ED4F386957795679518
:1020A000B795F795E7959F5FC1F7FE2B880F911DB8
:1020B0009695879597F908950E94750F880B990B4F
:1020C0000895EE0FFF1F0590F491E02D09940F93F2
:1020D0001F93CF93DF938230910510F482E090E05C
:1020E000E0916404F091650430E020E0B0E0A0E00D
:1020F000309799F42115310509F44AC0281B390B92
:1021000024303105D8F58A819B816115710589F1EB
:10211000FB0193838283FE0111C0408151810281C2
:10212000138148175907E0F04817590799F4109799
:1021300061F012960C93129713961C933296CF016E
:10214000DF91CF911F910F91089500936404109334
:102150006504F4CF2115310551F04217530738F0CB
:10216000A901DB019A01BD01DF01F801C1CFEF0137
:10217000F9CF9093650480936404CDCFFE01E20F04
:10218000F31F819391932250310939832883D7CF4C
:102190002091620430916304232B41F420910A01C1
:1021A00030910B0130936304209362042091080165
:1021B000309109012115310541F42DB73EB7409109
:1021C0000C0150910D01241B350BE0916204F0913C
:1021D0006304E217F307A0F42E1B3F0B28173907FF
:1021E00078F0AC014E5F5F4F2417350748F04E0F73
:1021F0005F1F5093630440936204819391939FCF38
:10220000F0E0E0E09CCFCF93DF930097E9F0FC0192
:10221000329713821282A0916404B0916504ED019B
:1022200030E020E01097A1F420813181820F931FCC
:1022300020916204309163042817390709F061C0C6
:10224000F0936304E0936204DF91CF910895EA0173
:10225000CE17DF07E8F54A815B819E0141155105E4
:10226000B1F7E901FB83EA8349915991C40FD51F66
:10227000EC17FD0761F4808191810296840F951F10
:10228000E90199838883828193819B838A83F0E02B
:10229000E0E012968D919C9113970097B9F52D91DE
:1022A0003C911197CD010296820F931F20916204F9
:1022B000309163042817390739F6309751F5109299
:1022C000650410926404B0936304A0936204BCCFCD
:1022D000D383C28340815181840F951FC817D907CA
:1022E00061F44E5F5F4F88819981480F591F518378
:1022F00040838A819B81938382832115310509F074
:10230000B0CFF0936504E09364049ECFFD01DC013F
:0C231000C0CF13821282D7CFF894FFCF09
:10231C00323130342E303700000066048000C8AFF4
:10232C000000983A000088130000000000003B02F7
:10233C009B01C801A302F901D701EB010D0A006E44
:10234C00616E00696E66006F766600307830323AE6
:10235C00204D425F494C4C4547414C5F44415441F0
:10236C005F4144445245535300307830333A204D4A
:10237C00425F494C4C4547414C5F444154415F5688
:10238C00414C554500307830343A204D425F534C27
:10239C004156455F4445564943455F4641494C5576
:1023AC00524500307845303A204D425F494E5641F7
:1023BC004C49445F534C4156455F49440030784585
:1023CC00313A204D425F494E56414C49445F465587
:1023DC004E4354494F4E00307845323A204D425FBF
:1023EC00524553504F4E53455F54494D45445F4FF2
:1023FC00555400307845333A204D425F494E564192
:10240C004C49445F43524300307830303A204D42BF
:10241C005F5355434345535300307830313A204D88
:10242C00425F494C4C4547414C5F46554E435449DD
:04243C004F4E0000FF
:107E0000112484B714BE81FFF0D085E080938100F7
:107E100082E08093C00088E18093C10086E0809377
:107E2000C20080E18093C4008EE0C9D0259A86E02C
:107E300020E33CEF91E0309385002093840096BBD3
:107E4000B09BFECF1D9AA8958150A9F7CC24DD24C4
:107E500088248394B5E0AB2EA1E19A2EF3E0BF2EE7
:107E6000A2D0813461F49FD0082FAFD0023811F036
:107E7000013811F484E001C083E08DD089C08234E0
:107E800011F484E103C0853419F485E0A6D080C0E4
:107E9000853579F488D0E82EFF2485D0082F10E0AE
:107EA000102F00270E291F29000F111F8ED06801E7
:107EB0006FC0863521F484E090D080E0DECF843638
:107EC00009F040C070D06FD0082F6DD080E0C81688
:107ED00080E7D80618F4F601B7BEE895C0E0D1E017
:107EE00062D089930C17E1F7F0E0CF16F0E7DF06D8
:107EF00018F0F601B7BEE89568D007B600FCFDCFD4
:107F0000A601A0E0B1E02C9130E011968C91119780
:107F100090E0982F8827822B932B1296FA010C0160
:107F200087BEE89511244E5F5F4FF1E0A038BF0790
:107F300051F7F601A7BEE89507B600FCFDCF97BE46
:107F4000E89526C08437B1F42ED02DD0F82E2BD052
:107F50003CD0F601EF2C8F010F5F1F4F84911BD097
:107F6000EA94F801C1F70894C11CD11CFA94CF0C13
:107F7000D11C0EC0853739F428D08EE10CD085E9AC
:107F80000AD08FE07ACF813511F488E018D01DD067
:107F900080E101D065CF982F8091C00085FFFCCF94
:107FA0009093C60008958091C00087FFFCCF809118
:107FB000C00084FD01C0A8958091C6000895E0E648
:107FC000F0E098E1908380830895EDDF803219F02E
:107FD00088E0F5DFFFCF84E1DECF1F93182FE3DFCA
:107FE0001150E9F7F2DF1F91089580E0E8DFEE27F6
:047FF000FF270994CA
:027FFE00040479
:0400000300007E007B
:00000001FF