:100000000C9462000C948A000C948A000C948A0070
:100010000C948A000C948A000C948A000C948A0038
:100020000C948A000C948A000C948A000C948A0028
:100030000C948A000C948A000C948A000C948A0018
:100040000C9448020C948A000C9416020C94F00153
:100050000C948A000C948A000C948A000C948A00F8
:100060000C948A000C948A000000000025002800EF
:100070002B0000000000240027002A0000000000E0
:1000800023002600290004040404040404040202DA
:100090000202020203030303030301020408102007
:1000A0004080010204081020010204081020000012
:1000B0000008000201000003040700000000000027
:1000C0000000920211241FBECFEFD8E0DEBFCDBFEB
:1000D00011E0A0E0B1E0ECECF7E002C005900D9279
:1000E000A231B107D9F722E0A2E1B1E001C01D922F
:1000F000A73EB207E1F710E0C2E6D0E004C02197C6
:10010000FE010E94DE03C136D107C9F70E94D10269
:100110000C94E4030C940000FC01538D448D252FB6
:1001200030E0842F90E0821B930B541710F0CF9691
:10013000089501970895FC01918D828D981761F0C3
:10014000A28DAE0FBF2FB11D5D968C91928D9F5FDA
:100150009F73928F90E008958FEF9FEF0895FC01B9
:10016000918D828D981731F0828DE80FF11D858D6C
:1001700090E008958FEF9FEF0895FC01918D228DFF
:10018000892F90E0805C9F4F821B91098F73992784
:100190000895FC01A48DA80FB92FB11DA35ABF4F1C
:1001A0002C91848D90E001968F739927848FA68976
:1001B000B7892C93A089B1898C91837080648C93CA
:1001C000938D848D981306C00288F389E02D808179
:1001D0008F7D80830895EF92FF920F931F93CF93AB
:1001E000DF93EC0181E0888F9B8D8C8D98131AC072
:1001F000E889F989808185FF15C09FB7F894EE8959
:10020000FF896083E889F9898081837080648083B5
:100210009FBF81E090E0DF91CF911F910F91FF9000
:10022000EF900895F62E0B8D10E00F5F1F4F0F73A8
:100230001127E02E8C8D8E110CC00FB607FCFACF63
:10024000E889F989808185FFF5CFCE010E94C90038
:10025000F1CFEB8DEC0FFD2FF11DE35AFF4FF08234
:100260009FB7F8940B8FEA89FB8980818062CFCF9A
:10027000CF93DF93EC01888D8823B9F0AA89BB89DD
:10028000E889F9898C9185FD03C0808186FD0DC0C8
:100290000FB607FCF7CF8C9185FFF2CF808185FFE9
:1002A000EDCFCE010E94C900E9CFDF91CF91089533
:1002B00081E291E00E94BD0021E0892B09F420E059
:1002C000822F089580E090E0892B29F00E94580148
:1002D00081110C9400000895AF92BF92CF92DF92EB
:1002E000EF92FF920F931F93CF93DF936C017B01EB
:1002F0008B01040F151FEB015E01AE18BF08C0177C
:10030000D10759F06991D601ED91FC910190F081EE
:10031000E02DC6010995892B79F7C501DF91CF91B1
:100320001F910F91FF90EF90DF90CF90BF90AF9013
:100330000895833081F028F4813099F08230A9F05B
:1003400008958730A9F08830C9F08430B1F48091E5
:1003500080008F7D03C0809180008F778093800024
:10036000089584B58F7784BD089584B58F7DFBCFC4
:100370008091B0008F778093B00008958091B00095
:100380008F7DF9CF1F93CF93DF93282F30E0F901B2
:10039000E255FF4F8491F901E656FF4FD491F901E0
:1003A000EA57FF4FC491CC23A9F0162F81110E9468
:1003B0009901EC2FF0E0EE0FFF1FE859FF4FA591D8
:1003C000B4918FB7F894EC91111108C0D095DE2349
:1003D000DC938FBFDF91CF911F910895DE2BF8CF73
:1003E0001F920F920FB60F9211242F933F934F93AA
:1003F0005F936F937F938F939F93AF93BF93EF938D
:10040000FF9381E291E00E94C900FF91EF91BF91BB
:10041000AF919F918F917F916F915F914F913F919C
:100420002F910F900FBE0F901F9018951F920F9253
:100430000FB60F9211242F938F939F93EF93FF93F7
:10044000E0913101F09132018081E0913701F0912A
:10045000380182FD1BC0908180913A018F5F8F73BC
:1004600020913B01821741F0E0913A01F0E0EF5D0D
:10047000FE4F958F80933A01FF91EF919F918F915D
:100480002F910F900FBE0F901F9018958081F4CF81
:100490001F920F920FB60F9211242F933F938F93B9
:1004A0009F93AF93BF938091170190911801A091F2
:1004B0001901B0911A013091160123E0230F2D3755
:1004C00058F50196A11DB11D2093160180931701C7
:1004D00090931801A0931901B0931A018091120111
:1004E00090911301A0911401B09115010196A11DE5
:1004F000B11D8093120190931301A0931401B09346
:100500001501BF91AF919F918F913F912F910F90C6
:100510000FBE0F901F90189526E8230F0296A11D7D
:10052000B11DD2CFE1E2F1E01382128288EE93E0B6
:10053000A0E0B0E084839583A683B78384E091E054
:100540009183808385EC90E09587848784EC90E0AC
:100550009787868780EC90E0918B808B81EC90E090
:10056000938B828B82EC90E0958B848B86EC90E071
:10057000978B868B118E128E138E148EE8EDF2E01F
:1005800011821082138212821092D3021092D20230
:100590001092D5021092D4021092D7021092D60275
:1005A0000895789484B5826084BD84B5816084BDEB
:1005B00085B5826085BD85B5816085BD80916E0001
:1005C000816080936E001092810080918100826032
:1005D000809381008091810081608093810080916F
:1005E00080008160809380008091B100846080935E
:1005F000B1008091B00081608093B00080917A005A
:10060000846080937A0080917A00826080937A007F
:1006100080917A00816080937A0080917A0080686E
:1006200080937A001092C100E0EAF0E02491ECE8B7
:10063000F0E08491882399F090E0880F991FFC01E5
:10064000EE58FF4FA591B491FC01E859FF4F8591F9
:1006500094918FB7F894EC91E22BEC938FBF4FE914
:1006600050E0FA0164912BE830E0F901849188238D
:10067000C1F090E0880F991FFC01EE58FF4FA59143
:10068000B491FC01E859FF4FC591D4917FB7F8941C
:100690009C91862F809598239C93988189238883A9
:1006A0007FBFE3EBF0E08491FA014491F901C4913A
:1006B000CC2361F081110E949901EC2FF0E0EE0F44
:1006C000FF1FE458FF4FA591B4918C91C0E0D0E09A
:1006D0002FB7F8948091170190911801A0911901FA
:1006E000B0911A012FBF80931D0190931E01A0931A
:1006F0001F01B093200160E086E00E94C20180915A
:100700001B0190911C018436910508F047C00A96A0
:1007100090931C0180931B0160E086E00E94C2015F
:100720008FB7F89440911701509118016091190109
:1007300070911A018FBF80911D0190911E01A091AF
:100740001F01B09120012FB784179507A607B7079F
:1007500051F1F8948091170190911801A09119011D
:10076000B0911A012FBF40911D0150911E0160915F
:100770001F0170912001841B950BA60BB70B0B97E3
:10078000A105B10568F2209709F4A2CF0E94580193
:10079000882309F49DCF0E9400009ACF10921C017B
:1007A00010921B01B9CFF894409117015091180194
:1007B0006091190170911A012FBFDDCFEE0FFF1F5D
:0C07C0000590F491E02D0994F894FFCF0F
:1007CC0000000000EB006C018C003801BD009B00A8
:0207DC00AF006C
:00000001FF
