:100000000C9418010C9440010C9440010C94400194
:100010000C9440010C9440010C9440010C9440015C
:100020000C9440010C9440010C9440010C9440014C
:100030000C9440010C9440010C9440010C9440013C
:100040000C9415040C9440010C94E3030C94BD0330
:100050000C9440010C9440010C9440010C9440011C
:100060000C9440010C944001000000002400270083
:100070002A0000000000250028002B0000000000DE
:1000800023002600290004040404040404040202DA
:100090000202020203030303030301020408102007
:1000A0004080010204081020010204081020000012
:1000B0000008000201000003040700000000000027
:1000C0000000646F6E6521005761697420666F726D
:1000D00020746865206D6F6462757320736C61763F
:1000E000657320746F206265206F7065726174693A
:1000F0006F6E616C2E2E2E00536F66747761726581
:100100002076657273696F6E3A20004D41494E202A
:100110005745415445522053544154494F4E204273
:100120004F41524400206269742F7300537461720E
:1001300074206D6F646275732F73657269616C20D2
:10014000617420002025004162736F6C75746548EE
:10015000756D69646974792E2E2E200020EFBFBD65
:10016000430048656174496E6465782E2E2E2E2EEC
:100170002E2E2E2E2E200020EFBFBD43004465778B
:10018000506F696E742E2E2E2E2E2E2E2E2E2E2E6B
:10019000200020EFBFBD43005765742074656D706B
:1001A000657261747572652E2E2E2E20002025003A
:1001B00048756D69646974792E2E2E2E2E2E2E2E82
:1001C0002E2E2E20002068506100507265737375CA
:1001D00072652E2E2E2E2E2E2E2E2E2E2E2000200E
:1001E000EFBFBD43004472792074656D7065726124
:1001F000747572652E2E2E2E200020424D45323809
:10020000305F4D4F444255535F494400536C617613
:100210006549643A2000526573756C742069733ABD
:100220002000536C6176652049643A2000005F0429
:1002300011241FBECFEFD8E0DEBFCDBF11E0A0E09C
:10024000B1E0E0EFF1E102C005900D92A032B107FC
:10025000D9F723E0A0E2B1E001C01D92A931B207B5
:10026000E1F711E0C8E1D1E004C02197FE010E944E
:10027000F008C731D107C9F70E949E040C94F60814
:100280000C940000AF92BF92CF92DF92EF92FF9258
:100290000F931F93CF93DF936C017B018B01040FAE
:1002A000151FEB015E01AE18BF08C017D10759F04A
:1002B0006991D601ED91FC910190F081E02DC6018C
:1002C0000995892B79F7C501DF91CF911F910F9186
:1002D000FF90EF90DF90CF90BF90AF900895FC011A
:1002E000538D448D252F30E0842F90E0821B930B9B
:1002F000541710F0CF96089501970895FC01918D41
:10030000828D981761F0A28DAE0FBF2FB11D5D9643
:100310008C91928D9F5F9F73928F90E008958FEFE5
:100320009FEF0895FC01918D828D981731F0828D99
:10033000E80FF11D858D90E008958FEF9FEF0895F0
:10034000FC01918D228D892F90E0805C9F4F821B54
:1003500091098F739927089583E591E00E94A00188
:1003600021E0892B09F420E0822F089580E090E0BD
:10037000892B29F00E94AC0181110C940000089592
:10038000FC01A48DA80FB92FB11DA35ABF4F2C910A
:10039000848D90E001968F739927848FA689B78901
:1003A0002C93A089B1898C91837080648C93938DF8
:1003B000848D981306C00288F389E02D80818F7D9B
:1003C00080830895EF92FF920F931F93CF93DF9353
:1003D000EC0181E0888F9B8D8C8D98131AC0E88981
:1003E000F989808185FF15C09FB7F894EE89FF8950
:1003F0006083E889F98980818370806480839FBFEE
:1004000081E090E0DF91CF911F910F91FF90EF90ED
:100410000895F62E0B8D10E00F5F1F4F0F731127FD
:10042000E02E8C8D8E110CC00FB607FCFACFE88938
:10043000F989808185FFF5CFCE010E94C001F1CFFF
:10044000EB8DEC0FFD2FF11DE35AFF4FF0829FB7AC
:10045000F8940B8FEA89FB8980818062CFCF0F935C
:100460001F93CF93DF938C01D0E0C0E0F801EC0F35
:10047000FD1F6491662341F083E591E00E94E20153
:10048000892B11F02196F2CFCE01DF91CF911F91F0
:100490000F910895CF93DF93EC01888D8823B9F0F5
:1004A000AA89BB89E889F9898C9185FD03C080817F
:1004B00086FD0DC00FB607FCF7CF8C9185FFF2CFFC
:1004C000808185FFEDCFCE010E94C001E9CFDF9191
:1004D000CF910895833081F028F4813099F08230F3
:1004E000A9F008958730A9F08830C9F08430B1F4BC
:1004F000809180008F7D03C0809180008F778093F2
:100500008000089584B58F7784BD089584B58F7D6C
:10051000FBCF8091B0008F778093B00008958091D9
:10052000B0008F7DF9CF1F93CF93DF93282F30E05A
:10053000F901E255FF4F8491F901E656FF4FD4913E
:10054000F901EA57FF4FC491CC23A9F0162F81116E
:100550000E946A02EC2FF0E0EE0FFF1FEE58FF4FF3
:10056000A591B4918FB7F894EC91111108C0D09572
:10057000DE23DC938FBFDF91CF911F910895DE2B97
:10058000F8CF61E083E00C94930260E083E00C9488
:100590009302CF93DF9390E0FC01E656FF4F249146
:1005A0008A579F4FFC0184918823D1F090E0880FF7
:1005B000991FFC01E859FF4FA591B491FC01EE5839
:1005C000FF4FC591D49161110EC09FB7F8948C91E3
:1005D000E22FE0958E238C932881E223E8839FBF4E
:1005E000DF91CF9108958FB7F894EC91E22BEC93C3
:1005F0008FBFF6CF3FB7F8948091250190912601E7
:10060000A0912701B091280126B5A89B05C02F3FD6
:1006100019F00196A11DB11D3FBFBA2FA92F982F28
:100620008827BC01CD01620F711D811D911D42E023
:10063000660F771F881F991F4A95D1F708952FB726
:10064000F894609121017091220180912301909191
:1006500024012FBF0895FC0101900020E9F7319794
:10066000AF01481B590BBC0183E591E00C9442019A
:100670008CE191E00C942B03CF93DF930E942F0227
:10068000EC010E9438038C0F9D1FDF91CF910895DC
:100690008F929F92AF92BF920F931F93CF93DF934E
:1006A000CDB7DEB7A1970FB6F894DEBF0FBECDBFB2
:1006B00019A2423008F44AE08E010F5D1F4F842ECC
:1006C000912CB12CA12CA50194010E94CE08E62FFB
:1006D000B901CA01EA30F4F4E05DD801EE938D016E
:1006E000232B242B252B79F790E080E0109719F02D
:1006F000CD010E942B03A1960FB6F894DEBF0FBE6A
:10070000CDBFDF91CF911F910F91BF90AF909F9080
:100710008F900895E95CE1CFCF92DF92EF92FF9244
:10072000CF93DF936B017C016DE283E591E00E9442
:10073000E201EC0166277727CB016C197D098E0950
:100740009F094AE00E9448038C0F9D1FDF91CF91C3
:10075000FF90EF90DF90CF900895BC01990F880B28
:10076000990B97FD0C948C034AE00C944803BC0150
:1007700090E080E04AE00C9448031F920F920FB67D
:100780000F9211242F933F934F935F936F937F9317
:100790008F939F93AF93BF93EF93FF9383E591E084
:1007A0000E94C001FF91EF91BF91AF919F918F91F6
:1007B0007F916F915F914F913F912F910F900FBE5D
:1007C0000F901F9018951F920F920FB60F92112441
:1007D0002F938F939F93EF93FF93E0916301F09199
:1007E00064018081E0916901F0916A0182FD1BC082
:1007F000908180916C018F5F8F7320916D018217C2
:1008000041F0E0916C01F0E0ED5AFE4F958F80933E
:100810006C01FF91EF919F918F912F910F900FBEDF
:100820000F901F9018958081F4CF1F920F920FB6F2
:100830000F9211242F933F938F939F93AF93BF9366
:100840008091210190912201A0912301B091240176
:100850003091200123E0230F2D3758F50196A11D7B
:10086000B11D209320018093210190932201A09338
:100870002301B09324018091250190912601A0913C
:100880002701B09128010196A11DB11D809325017A
:1008900090932601A0932701B0932801BF91AF91B7
:1008A0009F918F913F912F910F900FBE0F901F90AE
:1008B000189526E8230F0296A11DB11DD2CFE3E5BE
:1008C000F1E01382128288EE93E0A0E0B0E084832E
:1008D0009583A683B7838EE091E09183808385EC36
:1008E00090E09587848784EC90E09787868780ECFA
:1008F00090E0918B808B81EC90E0938B828B82ECEB
:1009000090E0958B848B86EC90E0978B868B118E94
:10091000128E138E148E10921403109213031092E1
:100920001603109215031092180310921703E0EFAC
:10093000F1E011821082138212820895CF93DF9327
:10094000CDB7DEB7DA950FB6F894DEBF0FBECDBFD8
:10095000789484B5826084BD84B5816084BD85B59A
:10096000826085BD85B5816085BD80916E008160A6
:1009700080936E001092810080918100826080934C
:10098000810080918100816080938100809180004E
:100990008160809380008091B10084608093B10079
:1009A0008091B00081608093B00080917A00846073
:1009B00080937A0080917A00826080937A0080919F
:1009C0007A00816080937A0080917A0080688093B9
:1009D0007A001092C10061E086E00E94C90260E0E6
:1009E00085E00E94C90261E083E00E94C902E3EB56
:1009F000F0E08491EFE9F0E0E491EBE8F0E01491AD
:100A0000112361F081110E946A02E12FF0E0EE0FE4
:100A1000FF1FE458FF4FA591B4918C9181E0809322
:100A20003E0124E630E03093400120933F0128E06E
:100A300030E03093420120934101809343011092B2
:100A400045011092440121E030E0309347012093AA
:100A500046018093480110924A0110924901309357
:100A60004C0120934B01E0916301F091640182E01D
:100A70008083E0915F01F09160011082E09161015B
:100A8000F09162018FEC808310926B01E09167011D
:100A9000F091680186E08083E0916501F091660144
:100AA000808180618083E0916501F09166018081A1
:100AB00088608083E0916501F091660180818068A3
:100AC0008083E0916501F091660180818F7D808354
:100AD0008CE291E00E942F0280E895E20E94AD0333
:100AE00085E291E00E943C030E9438038BE091E094
:100AF0000E943C0388EF90E00E942F0280E091E08A
:100B00000E942B030E9438030E94380388EC90E077
:100B10000E942F020E94FA024B015C01E4ECCE2EEF
:100B2000E9E0DE2EE12CF12C0E94FA026819790925
:100B30008A099B09683E734081059105A8F321E06D
:100B4000C21AD108E108F10838EE830E33E0931E93
:100B5000A11CB11CC114D104E104F10429F782ECF9
:100B600090E00E943C036E0187E0C80ED11C71EC3E
:100B7000672E72E0772E0E941F0360934F017093DF
:100B80005001809351019093520160E086E00E94F1
:100B9000930280914D0190914E01883EA3E09A0707
:100BA000A0F58C599F4F90934E0180934D0160E0CA
:100BB00086E00E9493020E941F031B012C0180907B
:100BC0004F0190905001A0905101B0905201281413
:100BD00039044A045B0409F4D3C20E941F03681954
:100BE00079098A099B09653671058105910518F314
:100BF00020E030E0232B09F4BECF0E94AC01882313
:100C000009F4B9CF0E940000B6CF10924E011092A5
:100C10004D01809108019091090180930102E3E563
:100C2000F1E0F0930002E093FF0110920C031092A8
:100C30000E0310920D03709216036092150325ECBB
:100C400032E0309318032093170335E0389FF0010A
:100C5000399FF00D1124E75CFE4F2081222309F417
:100C6000C7C1938124813181428130930202409334
:100C700003029093040220930502898383E08A8310
:100C80004B833C832D839E838E010F5F1F4FF801A2
:100C90008FEF9FEF78012191822728E030E0AC01AF
:100CA0004170552796958795452B21F041E0842783
:100CB00040EA94272150310991F7EC15FD0559F7C9
:100CC0008F83988719868091FF0190910002DC0143
:100CD000ED91FC910284F385E02D0995019699F739
:100CE000E0911503F0911603309709F0099548013A
:100CF000E8E08E0E911C8091FF0190910002D801D6
:100D00006D918D01DC01ED91FC910190F081E02D60
:100D100009958016910679F78091FF019091000264
:100D2000DC01ED91FC910680F781E02D0995E091C1
:100D30001703F0911803309709F009950E941F03DB
:100D40001B012C0198E0992E00E08091FF01909109
:100D50000002DC01ED91FC910084F185E02D099504
:100D6000892B09F449C08091FF0190910002DC01B8
:100D7000ED91FC910284F385E02D0995F701E00FD8
:100D8000F11D80839A940F5F053009F05CC0998152
:100D9000809101029813C9C1EA818E2F8F77833029
:100DA00009F0C5C1E7FF31C01B8111115FC02FEFF2
:100DB0003FEFA0E0802F90E0AC01425051096A2F34
:100DC00070E0641775070CF05CC16E0D7F1DFB01B0
:100DD0006081262768E070E0F901E170FF27369511
:100DE0002795EF2B21F0F1E02F27F0EA3F27615004
:100DF000710991F7AF5FE3CFE0911303F091140312
:100E0000309709F4C1CF0995BFCFE350E531D8F44D
:100E1000F0E0E35FF84F0C94F0082207220709087E
:100E2000090823072307230723072307230723078B
:100E30002307090809082307230723072307230794
:100E4000060822079B800E941F0362197309840908
:100E5000950912EE613D77408105910508F410E097
:100E6000992009F4D9C0112309F46FCF10920C0313
:100E700010920E0310920D0310921103E0900801DE
:100E8000F0900901111155C1EA94EF2809F0B0C0A2
:100E9000809106029091070290932A018093290184
:100EA000809108029091090290932C0180932B016C
:100EB00080910A0290910B0290932E0180932D0154
:100EC00080910C0290910D029093300180932F013C
:100ED00080910E0290910F02909332018093310124
:100EE000809110029091110290933401809333010C
:100EF00080911202909113029093360180933501F4
:100F000080911402909115029093380180933701DB
:100F10008CE092E00E942F0281E090E00E94AD03FD
:100F20008AEF91E00E943C0385EE91E00E942F023F
:100F30008091290190912A010E94B7038FED91E0E1
:100F40000E943C038AEC91E00E942F0280912B01C9
:100F500090912C010E94B70385EC91E00E943C0324
:100F600080EB91E00E942F0280912D0190912E0143
:100F70000E94B7038DEA91E00E943C0388E991E06A
:100F80000E942F0280912F01909130010E94B7039F
:100F900082E991E00E943C038DE791E00E942F02DC
:100FA00080913101909132010E94B70387E791E06F
:100FB0000E943C0382E691E00E942F02809133015F
:100FC000909134010E94B7038CE591E00E943C03AC
:100FD00087E491E00E942F028091350190913601C3
:100FE0000E94B70384E491E00E943C030E9438030E
:100FF0008091080190910901833091050CF0B9C0EE
:1010000001969093090180930801D1CD85E0982E37
:101010001ACF13E0912E17CF111128CF053008F009
:10102000C6CE8A81853030F4833030F48130B8F513
:1010300010E01CCF8731E1F72B8130E03595279503
:101040008091120340E0E42FF0E0E217F3070CF088
:1010500069C0403498F4CF010296880F991FEE0FB3
:10106000FF1FE150FE4FDE01A80FB91F5C918E0DEE
:101070009F1DDC018C91952F90878783842F4F5F74
:10108000E2CF4E0D5F1DDA014C91421306C08C0F6A
:101090009D1FFC018081831721F213EEE7CE5B8157
:1010A000252F30E0359527956091120340E0842F7D
:1010B00090E082179307E4F44034B8F4880F991F46
:1010C000FC01E150FE4FA5E0B0E0AC0FBD1FA80F42
:1010D000B91F6C91A4E0B0E0AC0FBD1F8A0F9B1F3D
:1010E000DC018C91962F90878783642F4F5FDFCF31
:1010F0006093120350FF9CCF403480F4880F991FF7
:10110000FC01E150FE4F24E030E02C0F3D1F820F28
:10111000931FDC018C9190E0908787834F5F409311
:10112000120386CF8093120383CF10EE9FCE11EE71
:101130009DCE82E292E00E942F02B701FF0C880B45
:10114000990B97FF12C00E948C030E94380386E11E
:1011500092E00E942F02612F70E090E080E04AE070
:101160000E9448030E94380341CF4AE00E9448038E
:10117000ECCFE1E0F0E0F0930901E093080117CD36
:101180000E941F03261A370A480A590AF5E62F1645
:1011900031044104510408F40ECD2ACDA1E21A2EE7
:1011A000AA1BBB1BFD010DC0AA1FBB1FEE1FFF1F0B
:1011B000A217B307E407F50720F0A21BB30BE40B5B
:1011C000F50B661F771F881F991F1A9469F76095A2
:1011D0007095809590959B01AC01BD01CF0108955C
:1011E000EE0FFF1F0590F491E02D0994F894FFCFC6
:1011F000323130342E303700010000000000E201AF
:1012000042016F014A02A0017E0192010D0A000015
:00000001FF
