:100000000C9419010C9441010C9441010C94410190
:100010000C9441010C9441010C9441010C94410158
:100020000C9441010C9441010C9441010C94410148
:100030000C9441010C9441010C9441010C94410138
:100040000C9425060C9441010C94F3050C94CD05F9
:100050000C9441010C9441010C9441010C94410118
:100060000C9441010C944101000000002400270081
:100070002A0000000000250028002B0000000000DE
:1000800023002600290004040404040404040202DA
:100090000202020203030303030301020408102007
:1000A0004080010204081020010204081020000012
:1000B0000008000201000003040700000000000027
:1000C0000000646F6E6521005761697420666F726D
:1000D00020746865206D6F6462757320736C61763F
:1000E000657320746F206265206F7065726174693A
:1000F0006F6E616C2E2E2E00536F66747761726581
:100100002076657273696F6E3A20004D41494E202A
:100110005745415445522053544154494F4E204273
:100120004F41524400206269742F7300537461720E
:1001300074206D6F646275732F73657269616C20D2
:10014000617420002025004162736F6C75746548EE
:10015000756D69646974792E2E2E200020C2B0431B
:100160000048656174496E6465782E2E2E2E2E2E01
:100170002E2E2E2E200020C2B04300446577506FF3
:10018000696E742E2E2E2E2E2E2E2E2E2E2E20000A
:1001900020C2B043005765742074656D706572614C
:1001A000747572652E2E2E2E200020250048756D48
:1001B00069646974792E2E2E2E2E2E2E2E2E2E2E22
:1001C0002000206850610050726573737572652E4F
:1001D0002E2E2E2E2E2E2E2E2E2E200020C2B0435E
:1001E000004472792074656D706572617475726512
:1001F0002E2E2E2E200020424D453238305F4D4F9E
:10020000444255535F494400536C61766549643AF2
:10021000200020616E6420726573756C74206973B0
:100220002000536C617665204964206973200000CA
:100230006F0611241FBECFEFD8E0DEBFCDBF12E0A6
:10024000A0E0B1E0E0EAF7E102C005900D92A03035
:10025000B107D9F723E0A0E0B2E001C01D92AF3FA3
:10026000B207E1F711E0C9E1D1E004C02197FE0136
:100270000E94D609C831D107C9F70E94AE060C9476
:10028000CE0B0C940000AF92BF92CF92DF92EF9210
:10029000FF920F931F93CF93DF936C017B018B0130
:1002A000040F151FEB015E01AE18BF08C017D10780
:1002B00059F06991D601ED91FC910190F081E02D0A
:1002C000C6010995892B79F7C501DF91CF911F915F
:1002D0000F91FF90EF90DF90CF90BF90AF90089577
:1002E000FC01538D448D252F30E0842F90E0821B3C
:1002F000930B541710F0CF96089501970895FC01C1
:10030000918D828D981761F0A28DAE0FBF2FB11D18
:100310005D968C91928D9F5F9F73928F90E0089570
:100320008FEF9FEF0895FC01918D828D981731F02A
:10033000828DE80FF11D858D90E008958FEF9FEF7E
:100340000895FC01918D228D892F90E0805C9F4F54
:10035000821B91098F739927089585E392E00E948B
:10036000A10121E0892B09F420E0822F089580E08B
:1003700090E0892B29F00E94AD0181110C940000BE
:100380000895FC01A48DA80FB92FB11DA35ABF4F2A
:100390002C91848D90E001968F739927848FA68984
:1003A000B7892C93A089B1898C91837080648C93D8
:1003B000938D848D981306C00288F389E02D808187
:1003C0008F7D80830895EF92FF920F931F93CF93B9
:1003D000DF93EC0181E0888F9B8D8C8D98131AC080
:1003E000E889F989808185FF15C09FB7F894EE8967
:1003F000FF896083E889F9898081837080648083C4
:100400009FBF81E090E0DF91CF911F910F91FF900E
:10041000EF900895F62E0B8D10E00F5F1F4F0F73B6
:100420001127E02E8C8D8E110CC00FB607FCFACF71
:10043000E889F989808185FFF5CFCE010E94C1014D
:10044000F1CFEB8DEC0FFD2FF11DE35AFF4FF08242
:100450009FB7F8940B8FEA89FB8980818062CFCFA8
:100460000F931F93CF93DF938C01D0E0C0E0F8018E
:10047000EC0FFD1F6491662341F085E392E00E943A
:10048000E301892B11F02196F2CFCE01DF91CF91BC
:100490001F910F910895CF93DF93EC01888D8823EE
:1004A000B9F0AA89BB89E889F9898C9185FD03C0D7
:1004B000808186FD0DC00FB607FCF7CF8C9185FFBC
:1004C000F2CF808185FFEDCFCE010E94C101E9CF3F
:1004D000DF91CF910895833081F028F4813099F035
:1004E0008230A9F008958730A9F08830C9F08430AF
:1004F000B1F4809180008F7D03C0809180008F7760
:1005000080938000089584B58F7784BD089584B565
:100510008F7DFBCF8091B0008F778093B0000895DE
:100520008091B0008F7DF9CF1F93CF93DF93282F59
:1005300030E0F901E255FF4F8491F901E656FF4F93
:10054000D491F901EA57FF4FC491CC23A9F0162F9B
:1005500081110E946B02EC2FF0E0EE0FFF1FEE58AE
:10056000FF4FA591B4918FB7F894EC91111108C089
:10057000D095DE23DC938FBFDF91CF911F9108953B
:10058000DE2BF8CF61E083E00C94940260E083E01E
:100590000C949402CF93DF9390E0FC01E656FF4F5A
:1005A00024918A579F4FFC0184918823D1F090E0D9
:1005B000880F991FFC01E859FF4FA591B491FC01E8
:1005C000EE58FF4FC591D49161110EC09FB7F894BA
:1005D0008C91E22FE0958E238C932881E223E8838F
:1005E0009FBFDF91CF9108958FB7F894EC91E22BE4
:1005F000EC938FBFF6CF3FB7F894809105029091AE
:100600000602A0910702B091080226B5A89B05C07A
:100610002F3F19F00196A11DB11D3FBFBA2FA92F81
:10062000982F8827BC01CD01620F711D811D911D7E
:1006300042E0660F771F881F991F4A95D1F70895EA
:100640002FB7F89460910102709102028091030229
:10065000909104022FBF08958F929F92AF92BF9204
:10066000EF92FF920F931F93CF93DF93CDB7DEB737
:10067000DA950FB6F894DEBF0FBECDBF8091E302CE
:10068000898383E08A838091E4029091E5029B83D1
:100690008C838091E6029091E7029D838E838E0188
:1006A0000F5F1F4FAE01495F5F4FF8018FEF9FEF64
:1006B00078012191822728E030E0BC016170772722
:1006C00096958795672B21F061E0862760EA96274B
:1006D0002150310991F7E417F50759F78F8398876F
:1006E00019868091E1029091E202DC01ED91FC918A
:1006F0000284F385E02D0995019699F7E091F703BF
:10070000F091F803309709F009955801E8E0AE0E32
:10071000B11C8091E1029091E202D8016D918D01AE
:10072000DC01ED91FC910190F081E02D09950A1515
:100730001B0579F78091E1029091E202DC01ED91D5
:10074000FC910680F781E02D0995E091F903F09185
:10075000FA03309709F009950E9420034B015C01D0
:1007600010E008E08091E1029091E202DC01ED915D
:10077000FC910084F185E02D0995892B09F44BC08B
:100780008091E1029091E202DC01ED91FC91028402
:10079000F385E02D0995F701E10FF11D80830150EC
:1007A0001F5F153009F05EC099818091E3029813B4
:1007B00010C1EA818E2F8F77833009F00CC1E7FFDB
:1007C00033C08B81811160C08FEF9FEFE0E0212F5C
:1007D00030E0A901425051096E2F70E0641775078F
:1007E0000CF0A8C06E0D7F1DDB016C91862768E0C0
:1007F00070E0DC01A170BB2796958795AB2B21F0AB
:10080000B1E08B27B0EA9B276150710991F7EF5F48
:10081000E3CF82EE34C0E091F503F091F603309718
:1008200009F4BFCF0995BDCFE350E531D8F4F0E02E
:10083000E45EFB4F0C94D609310431045F045F047D
:1008400032043204320432043204320432043204F8
:100850005F045F04320432043204320432045D0463
:1008600031040B810E942003681979098A099B09C8
:10087000613D77408105910508F0CBCF80E00023F2
:1008800001F1882309F46ECF1092EE031092F00369
:100890001092EF031092F303D3950FB6F894DEBFD6
:1008A0000FBECDBFDF91CF911F910F91FF90EF90C1
:1008B000BF90AF909F908F90089505E0D3CF03E055
:1008C000D1CF8111E1CF153008F07ECF8A818530FC
:1008D00030F4833030F48130E0F580E0D5CF8731DB
:1008E000E1F76B8170E0759567952091F40340E026
:1008F000842F90E0861797070CF068C04034B8F456
:100900009C012E5F3F4F220F331F880F991FFC0160
:10091000EF51FD4FDE01A20FB31F8C912E0D3F1D35
:10092000D9019C9189279827892790878783242F2D
:100930004F5FDECF4E0D5F1DFA014081481307C0A7
:100940002C0F3D1FD9018C91891709F4BFCF83EE7D
:100950009BCF6B81462F50E0559547953091F4031E
:1009600020E0822F90E084179507E4F42034B8F457
:10097000880F991FFC01EF51FD4FA5E0B0E0AC0FCF
:10098000BD1FA80FB91F3C91A4E0B0E0AC0FBD1F84
:100990008A0F9B1FDC018C91932F90878783322FC6
:1009A0002F5FDFCF3093F40360FF97CF203468F4DC
:1009B000880F991FFC01EF51FD4F8C0F9D1FDC012B
:1009C00014968C9190E0908787832F5F2093F40397
:1009D00084CF80EE59CF81EE57CFFC0101900020EB
:1009E000E9F73197AF01481B590BBC0185E392E051
:1009F0000C94430182E291E00C94ED04CF93DF93D9
:100A00000E943002EC010E94FA048C0F9D1FDF91BE
:100A1000CF9108958F929F92AF92BF920F931F93A1
:100A2000CF93DF93CDB7DEB7A1970FB6F894DEBFB3
:100A30000FBECDBF19A2423008F44AE08E010F5D0F
:100A40001F4F842E912CB12CA12CA50194010E9442
:100A5000B409E62FB901CA01EA30F4F4E05DD80127
:100A6000EE938D01232B242B252B79F790E080E04A
:100A7000109719F0CD010E94ED04A1960FB6F894DD
:100A8000DEBF0FBECDBFDF91CF911F910F91BF9001
:100A9000AF909F908F900895E95CE1CFCF92DF9265
:100AA000EF92FF92CF93DF936C01990FEE08FF084E
:100AB000F7FE19C06DE285E392E00E94E301EC01CC
:100AC00066277727CB016C197D098E099F094AE0BB
:100AD0000E940A058C0F9D1FDF91CF91FF90EF9030
:100AE000DF90CF9008954AE0C701B601DF91CF9122
:100AF000FF90EF90DF90CF900C940A05BC0190E03E
:100B000080E04AE00C940A05EF92FF920F931F9346
:100B1000CF93DF93EC017B01198218821B821A822A
:100B20001D821C82FB0101900020E9F731978F01A3
:100B3000061B170BB8016F5F7F4F90E080E00E94AB
:100B4000010B0097B9F0998388831B830A832C815A
:100B50003D81232B11F4FC0110821D830C83B7010E
:100B600088819981DF91CF911F910F91FF90EF9034
:100B70000C94C70B88819981009711F00E94780A24
:100B8000198218821D821C821B821A82DF91CF91EA
:100B90001F910F91FF90EF9008951F920F920FB643
:100BA0000F9211242F933F934F935F936F937F93F3
:100BB0008F939F93AF93BF93EF93FF9385E392E05F
:100BC0000E94C101FF91EF91BF91AF919F918F91D1
:100BD0007F916F915F914F913F912F910F900FBE39
:100BE0000F901F9018951F920F920FB60F9211241D
:100BF0002F938F939F93EF93FF93E0914502F09192
:100C000046028081E0914B02F0914C0282FD1BC0B4
:100C1000908180914E028F5F8F7320914F028217D7
:100C200041F0E0914E02F0E0EB5CFD4F958F809338
:100C30004E02FF91EF919F918F912F910F900FBED8
:100C40000F901F9018958081F4CF1F920F920FB6CE
:100C50000F9211242F933F938F939F93AF93BF9342
:100C60008091010290910202A0910302B0910402CE
:100C70003091000223E0230F2D3758F50196A11D76
:100C8000B11D209300028093010290930202A09371
:100C90000302B09304028091050290910602A09194
:100CA0000702B09108020196A11DB11D80930502B3
:100CB00090930602A0930702B0930802BF91AF91F0
:100CC0009F918F913F912F910F900FBE0F901F908A
:100CD000189526E8230F0296A11DB11DD2CFE5E39A
:100CE000F2E01382128288EE93E0A0E0B0E0848309
:100CF0009583A683B78384E191E09183808385EC1B
:100D000090E09587848784EC90E09787868780ECD5
:100D100090E0918B808B81EC90E0938B828B82ECC6
:100D200090E0958B848B86EC90E0978B868B118E70
:100D3000128E138E148E1092F6031092F5031092F9
:100D4000F8031092F7031092FA031092F903E2ED00
:100D5000F2E011821082138212820895CF93DF9302
:100D600000D000D000D0CDB7DEB7789484B58260D3
:100D700084BD84B5816084BD85B5826085BD85B53F
:100D8000816085BD80916E00816080936E001092BD
:100D90008100809181008260809381008091810038
:100DA00081608093810080918000816080938000C9
:100DB0008091B10084608093B1008091B000816027
:100DC0008093B00080917A00846080937A00809153
:100DD0007A00826080937A0080917A0081608093AB
:100DE0007A0080917A00806880937A001092C10026
:100DF00061E086E00E94CA0260E085E00E94CA02CB
:100E000061E083E00E94CA02E3EBF0E08491EFE945
:100E1000F0E0E491EBE8F0E01491112361F081112E
:100E20000E946B02E12FF0E0EE0FFF1FE458FF4F2E
:100E3000A591B4918C9181E080931E0224E630E06C
:100E40003093200220931F0228E030E030932202EA
:100E500020932102809323021092250210922402F3
:100E600021E030E03093270220932602809328026D
:100E700010922A021092290230932C0220932B0206
:100E8000E0914502F091460282E08083E0914102C8
:100E9000F09142021082E0914302F09144028FEC03
:100EA000808310924D02E0914902F0914A0286E05F
:100EB0008083E0914702F0914802808180618083C5
:100EC000E0914702F0914802808188608083E09140
:100ED0004702F0914802808180688083E091470258
:100EE000F091480280818F7D80838CE291E00E94A6
:100EF000300280E895E20E944E0585E291E00E9472
:100F0000FE040E94FA048BE091E00E94FE0488EF48
:100F100090E00E94300280E091E00E94ED040E9487
:100F2000FA040E94FA0488EC90E00E9430020E94C9
:100F3000FB024B015C0134ECC32E39E0D32EE12CD3
:100F4000F12C0E94FB02681979098A099B09683E05
:100F5000734081059105A8F321E0C21AD108E10888
:100F6000F10838EE830E33E0931EA11CB11CC114AE
:100F7000D104E104F10429F782EC90E00E94FE0420
:100F800081E090E09093300280932F0285E3282E39
:100F900082E0382E96ECE92E92E0F92ECC24C39410
:100FA000D12C0E942003609331027093320280930F
:100FB00033029093340260912F0286E00E949402E3
:100FC00080912D0290912E02883E33E09307A8F580
:100FD0008C599F4F90932E0280932D0260912F0287
:100FE00086E00E9494020E9420034B015C01409025
:100FF00031025090320260903302709034028414B7
:101000009504A604B70409F46AC10E942003641978
:10101000750986099709653671058105910518F3EB
:1010200020E030E0232B09F4BCCF0E94AD018823DF
:1010300009F4B7CF0E940000B4CF10922E02109294
:101040002D0280910801909109018093E302309272
:10105000E2022092E1021092EE031092F00310924D
:10106000EF0322EC32E03093F8032093F703F09281
:10107000FA03E092F903E8EEF2E01192119228E609
:1010800033E02E173F07C9F735E0389FF001399F4D
:10109000F00D1124E75EFD4F8081882309F4C8C05C
:1010A00083819481218132813093E5022093E4028F
:1010B0009093E7028093E6020E942C03182F81117F
:1010C000C5C08091080190910901019709F0B0C055
:1010D0008091E8029091E90290930A0280930902BC
:1010E0008091EA029091EB0290930C0280930B02A4
:1010F0008091EC029091ED0290930E0280930D028C
:101100008091EE029091EF029093100280930F0273
:101110008091F0029091F10290931202809311025B
:101120008091F2029091F302909314028093130243
:101130008091F4029091F50290931602809315022B
:101140008091F6029091F702909318028093170213
:1011500088E092E00E94300281E090E00E944E051B
:1011600086EF91E00E94FE0481EE91E00E94300241
:101170008091090290910A020E947E058CED91E017
:101180000E94FE0487EC91E00E94300280910B02E5
:1011900090910C020E947E0582EC91E00E94FE0478
:1011A0008DEA91E00E94300280910D0290910E0232
:1011B0000E947E058AEA91E00E94FE0485E991E0A2
:1011C0000E94300280910F02909110020E947E05D1
:1011D00080E991E00E94FE048BE791E00E943002DA
:1011E00080911102909112020E947E0586E791E0A3
:1011F0000E94FE0481E691E00E9430028091130279
:10120000909114020E947E058CE591E00E94FE04FC
:1012100087E491E00E9430028091150290911602BD
:101220000E947E0584E491E00E94FE040E94FA047C
:101230008091080190910901833091050CF04AC01A
:1012400001969093090180930801C8CE82E292E052
:101250000E94300280910801909109010E944E0580
:1012600082E192E00E94300265E271E01130E1F02B
:1012700060E471E01230C1F06EE571E01330A1F06E
:101280006AE771E0143081F068E971E0103E61F0C6
:1012900062EB71E0113E41F06DEC71E0123E21F025
:1012A000133E31F469EE71E0CE0101960E9484058F
:1012B0004D815E8169817A8185E392E00E944301DC
:1012C0000E94FA0489819A81009709F4AFCF0E94A5
:1012D000780AACCFD0920901C09208017FCE0E945B
:1012E0002003861A970AA80AB90A85E68816910487
:1012F000A104B10408F477CE93CE2F923F924F927F
:101300005F926F927F928F929F92AF92BF92CF9295
:10131000DF92EF92FF920F931F93CF93DF93CDB79E
:10132000DEB7CA1BDB0B0FB6F894DEBF0FBECDBF16
:1013300009942A88398848885F846E847D848C84E7
:101340009B84AA84B984C884DF80EE80FD800C81F0
:101350001B81AA81B981CE0FD11D0FB6F894DEBFD3
:101360000FBECDBFED010895A1E21A2EAA1BBB1B33
:10137000FD010DC0AA1FBB1FEE1FFF1FA217B30761
:10138000E407F50720F0A21BB30BE40BF50B661F77
:10139000771F881F991F1A9469F76095709580953B
:1013A00090959B01AC01BD01CF010895EE0FFF1F89
:1013B0000590F491E02D09940F931F93CF93DF9341
:1013C0008230910510F482E090E0E091FD03F0910D
:1013D000FE0330E020E0B0E0A0E0309799F4211562
:1013E000310509F44AC0281B390B24303105D8F5E2
:1013F0008A819B816115710589F1FB019383828349
:10140000FE0111C0408151810281138148175907A3
:10141000E0F04817590799F4109761F012960C9371
:10142000129713961C933296CF01DF91CF911F91A3
:101430000F9108950093FD031093FE03F4CF21153F
:10144000310551F04217530738F0A901DB019A0129
:10145000BD01DF01F801C1CFEF01F9CF9093FE0389
:101460008093FD03CDCFFE01E20FF31F8193919393
:101470002250310939832883D7CF2091FB03309143
:10148000FC03232B41F420910C0130910D0130938A
:10149000FC032093FB0320910A0130910B012115DD
:1014A000310541F42DB73EB740910E0150910F0127
:1014B000241B350BE091FB03F091FC03E217F307CB
:1014C000A0F42E1B3F0B2817390778F0AC014E5FB4
:1014D0005F4F2417350748F04E0F5F1F5093FC03F2
:1014E0004093FB03819391939FCFF0E0E0E09CCF8A
:1014F000CF93DF930097E9F0FC01329713821282B9
:10150000A091FD03B091FE03ED0130E020E01097C3
:10151000A1F420813181820F931F2091FB03309130
:10152000FC032817390709F061C0F093FC03E0932E
:10153000FB03DF91CF910895EA01CE17DF07E8F5AD
:101540004A815B819E0141155105B1F7E901FB8399
:10155000EA8349915991C40FD51FEC17FD0761F437
:10156000808191810296840F951FE9019983888378
:10157000828193819B838A83F0E0E0E012968D91D3
:101580009C9113970097B9F52D913C911197CD013E
:101590000296820F931F2091FB033091FC032817C2
:1015A000390739F6309751F51092FE031092FD037A
:1015B000B093FC03A093FB03BCCFD383C2834081D1
:1015C0005181840F951FC817D90761F44E5F5F4F93
:1015D00088819981480F591F518340838A819B815B
:1015E000938382832115310509F0B0CFF093FE0378
:1015F000E093FD039ECFFD01DC01C0CF1382128278
:10160000D7CFB0E0A0E0E7E0FBE00C947F098C01CD
:10161000009751F4CB010E94DC098C01C801CDB7C1
:10162000DEB7E0E10C949B09FC01E60FF71F9C017B
:1016300022503109E217F30708F49DC0D901CD917A
:10164000DC911197C617D70798F0C530D10530F354
:10165000CE0104978617970708F3C61BD70B22976E
:10166000C193D1936D937C93CF010E94780AD6CF1A
:101670005B01AC1ABD0A4C018C0E9D1EA091FD03AE
:10168000B091FE03512C412CF12CE12C109731F537
:101690008091FB039091FC038815990509F05CC0CB
:1016A0004616570608F058C080910A0190910B0128
:1016B000009741F48DB79EB740910E0150910F01F4
:1016C000841B950BE817F90708F055C0F093FC034D
:1016D000E093FB03F90171836083A0CF8D919C910E
:1016E000119712966C90129713967C901397A815E9
:1016F000B90559F56C0142E0C40ED11CCA14DB04D3
:1017000020F1AC014A195B09DA011296159780F0B5
:101710006282738251834083D9016D937C93E1147B
:10172000F10471F0D7011396FC93EE93129776CFE4
:1017300022968C0F9D1FF90191838083F301EFCFD7
:10174000F093FE03E093FD0369CF4816590608F4B1
:101750002C017D01D3019ACFCB010E94DC097C01D1
:10176000009749F0AE01B8010E94BE0BC8010E946B
:10177000780A870153CF10E000E050CFFB01DC0175
:1017800002C001900D9241505040D8F70895FB01DE
:10179000DC0101900D920020E1F70895F894FFCF4D
:1017A000323130342E30370001000000FF0380005A
:1017B00000000000E301430170014B02A1017F0121
:1017C00093010D0A00307830313A206B75384D4264
:1017D000496C6C6567616C46756E6374696F6E0009
:1017E000307830323A206B75384D42496C6C656701
:1017F000616C446174614164647265737300307834
:1018000030333A206B75384D42496C6C6567616CBA
:101810004461746156616C756500307830343A20EB
:101820006B75384D42536C617665446576696365C6
:101830004661696C75726500307845303A206B7589
:10184000384D42496E76616C6964536C61766549C6
:101850004400307845313A206B75384D42496E76F8
:10186000616C696446756E6374696F6E00307845AB
:10187000323A206B75384D42526573706F6E7365E6
:1018800054696D65644F757400307845333A206B48
:1018900075384D42496E76616C696443524300006D
:107E0000112484B714BE81FFF0D085E080938100F7
:107E100082E08093C00088E18093C10086E0809377
:107E2000C20080E18093C4008EE0C9D0259A86E02C
:107E300020E33CEF91E0309385002093840096BBD3
:107E4000B09BFECF1D9AA8958150A9F7CC24DD24C4
:107E500088248394B5E0AB2EA1E19A2EF3E0BF2EE7
:107E6000A2D0813461F49FD0082FAFD0023811F036
:107E7000013811F484E001C083E08DD089C08234E0
:107E800011F484E103C0853419F485E0A6D080C0E4
:107E9000853579F488D0E82EFF2485D0082F10E0AE
:107EA000102F00270E291F29000F111F8ED06801E7
:107EB0006FC0863521F484E090D080E0DECF843638
:107EC00009F040C070D06FD0082F6DD080E0C81688
:107ED00080E7D80618F4F601B7BEE895C0E0D1E017
:107EE00062D089930C17E1F7F0E0CF16F0E7DF06D8
:107EF00018F0F601B7BEE89568D007B600FCFDCFD4
:107F0000A601A0E0B1E02C9130E011968C91119780
:107F100090E0982F8827822B932B1296FA010C0160
:107F200087BEE89511244E5F5F4FF1E0A038BF0790
:107F300051F7F601A7BEE89507B600FCFDCF97BE46
:107F4000E89526C08437B1F42ED02DD0F82E2BD052
:107F50003CD0F601EF2C8F010F5F1F4F84911BD097
:107F6000EA94F801C1F70894C11CD11CFA94CF0C13
:107F7000D11C0EC0853739F428D08EE10CD085E9AC
:107F80000AD08FE07ACF813511F488E018D01DD067
:107F900080E101D065CF982F8091C00085FFFCCF94
:107FA0009093C60008958091C00087FFFCCF809118
:107FB000C00084FD01C0A8958091C6000895E0E648
:107FC000F0E098E1908380830895EDDF803219F02E
:107FD00088E0F5DFFFCF84E1DECF1F93182FE3DFCA
:107FE0001150E9F7F2DF1F91089580E0E8DFEE27F6
:047FF000FF270994CA
:027FFE00040479
:0400000300007E007B
:00000001FF