:100000000C9419010C9441010C9441010C94410190
:100010000C9441010C9441010C9441010C94410158
:100020000C9441010C9441010C9441010C94410148
:100030000C9441010C9441010C9441010C94410138
:100040000C9411090C9441010C94DF080C94B9082C
:100050000C9441010C9441010C9441010C94410118
:100060000C9441010C9441012025004162736F6C96
:1000700075746548756D69646974792E2E2E20003B
:1000800020C2B0430048656174496E6465782E2EC5
:100090002E2E2E2E2E2E2E2E200020C2B0430044B7
:1000A0006577506F696E742E2E2E2E2E2E2E2E2ECC
:1000B0002E2E200020C2B043005765742074656D59
:1000C00070657261747572652E2E2E2E20002025AB
:1000D0000048756D69646974792E2E2E2E2E2E2E91
:1000E0002E2E2E2E200020685061005072657373F2
:1000F0007572652E2E2E2E2E2E2E2E2E2E2E20009A
:1001000020C2B043004472792074656D70657261DD
:10011000747572652E2E2E2E2000206D2F730041D7
:10012000637475616C2077696E64207370656564B3
:100130002E2E20003E0057696E642064697265634C
:1001400074696F6E2E2E2E2E2E203C00207C2052A5
:100150006573756C7420697320007365632E207C51
:100160002052657175657374206D61646520736CD0
:10017000617665204964206E722E004D696C6C6951
:10018000732074696D653A20000000000024002788
:10019000002A0000000000250028002B00000000BD
:1001A00000230026002900040404040404040402BB
:1001B0000202020202030303030303010204081004
:1001C00020408001020408102001020408102000D1
:1001D0000000080002010000030407000000000006
:1001E000000000536F6674776172652076657273E4
:1001F000696F6E3A20004D41494E205745415445A4
:10020000522053544154494F4E20424F41524400D2
:10021000206269742F73005374617274206D6F646F
:100220006275732F73657269616C206174200000C0
:100230005B0911241FBECFEFD8E0DEBFCDBF12E0B7
:10024000A0E0B1E0E2E8FCE102C005900D92A83820
:10025000B107D9F724E0A8E8B2E001C01D92A239A5
:10026000B207E1F711E0C9E1D1E004C02197FE0136
:100270000E94390EC831D107C9F70E949A090C941F
:100280003F0E0C940000AF92BF92CF92DF92EF929C
:10029000FF920F931F93CF93DF936C017B018B0130
:1002A000040F151FEB015E01AE18BF08C017D10780
:1002B00059F06991D601ED91FC910190F081E02D0A
:1002C000C6010995892B79F7C501DF91CF911F915F
:1002D0000F91FF90EF90DF90CF90BF90AF90089577
:1002E000FC01538D448D252F30E0842F90E0821B3C
:1002F000930B541710F0CF96089501970895FC01C1
:10030000918D828D981761F0A28DAE0FBF2FB11D18
:100310005D968C91928D9F5F9F73928F90E0089570
:100320008FEF9FEF0895FC01918D828D981731F02A
:10033000828DE80FF11D858D90E008958FEF9FEF7E
:100340000895FC01918D228D892F90E0805C9F4F54
:10035000821B91098F73992708958CEC92E00E947B
:10036000A10121E0892B09F420E0822F089580E08B
:1003700090E0892B29F00E94AD0181110C940000BE
:100380000895FC01A48DA80FB92FB11DA35ABF4F2A
:100390002C91848D90E001968F739927848FA68984
:1003A000B7892C93A089B1898C91837080648C93D8
:1003B000938D848D981306C00288F389E02D808187
:1003C0008F7D80830895EF92FF920F931F93CF93B9
:1003D000DF93EC0181E0888F9B8D8C8D98131AC080
:1003E000E889F989808185FF15C09FB7F894EE8967
:1003F000FF896083E889F9898081837080648083C4
:100400009FBF81E090E0DF91CF911F910F91FF900E
:10041000EF900895F62E0B8D10E00F5F1F4F0F73B6
:100420001127E02E8C8D8E110CC00FB607FCFACF71
:10043000E889F989808185FFF5CFCE010E94C1014D
:10044000F1CFEB8DEC0FFD2FF11DE35AFF4FF08242
:100450009FB7F8940B8FEA89FB8980818062CFCFA8
:100460000F931F93CF93DF938C01D0E0C0E0F8018E
:10047000EC0FFD1F6491662341F08CEC92E00E942A
:10048000E301892B11F02196F2CFCE01DF91CF91BC
:100490001F910F910895CF93DF93EC01888D8823EE
:1004A000B9F0AA89BB89E889F9898C9185FD03C0D7
:1004B000808186FD0DC00FB607FCF7CF8C9185FFBC
:1004C000F2CF808185FFEDCFCE010E94C101E9CF3F
:1004D000DF91CF910895833081F028F4813099F035
:1004E0008230A9F008958730A9F08830C9F08430AF
:1004F000B1F4809180008F7D03C0809180008F7760
:1005000080938000089584B58F7784BD089584B565
:100510008F7DFBCF8091B0008F778093B0000895DE
:100520008091B0008F7DF9CF1F93CF93DF93282F59
:1005300030E0F901E153FE4F8491F901E554FE4F9B
:10054000D491F901E955FE4FC491CC23A9F0162F9F
:1005500081110E946B02EC2FF0E0EE0FFF1FED56B1
:10056000FE4FA591B4918FB7F894EC91111108C08A
:10057000D095DE23DC938FBFDF91CF911F9108953B
:10058000DE2BF8CF61E083E00C94940260E083E01E
:100590000C949402CF93DF9390E0FC01E554FE4F5E
:1005A000249189559E4FFC0184918823D1F090E0DD
:1005B000880F991FFC01E757FE4FA591B491FC01EC
:1005C000ED56FE4FC591D49161110EC09FB7F894BE
:1005D0008C91E22FE0958E238C932881E223E8838F
:1005E0009FBFDF91CF9108958FB7F894EC91E22BE4
:1005F000EC938FBFF6CF3FB7F8948091A70290910C
:10060000A802A091A902B091AA0226B5A89B05C094
:100610002F3F19F00196A11DB11D3FBFBA2FA92F81
:10062000982F8827BC01CD01620F711D811D911D7E
:1006300042E0660F771F881F991F4A95D1F70895EA
:100640002FB7F8946091A3027091A4028091A50243
:100650009091A6022FBF0895FC0101900020E9F7B8
:100660003197AF01481B590BBC018CEC92E00C9404
:1006700043018AE191E00C942C03CF93DF930E9415
:100680003002EC010E9439038C0F9D1FDF91CF9146
:1006900008958F929F92AF92BF920F931F93CF9323
:1006A000DF93CDB7DEB7A1970FB6F894DEBF0FBECC
:1006B000CDBF19A2423008F44AE08E010F5D1F4FF2
:1006C000842E912CB12CA12CA50194010E94DB0B4E
:1006D000E62FB901CA01EA30F4F4E05DD801EE93E7
:1006E0008D01232B242B252B79F790E080E01097A8
:1006F00019F0CD010E942C03A1960FB6F894DEBF2D
:100700000FBECDBFDF91CF911F910F91BF90AF90E2
:100710009F908F900895E95CE1CF4F925F926F9226
:100720007F928F929F92AF92BF92CF92DF92EF9281
:10073000FF920F931F93CF936B017C01742EAC013A
:100740009B010E94340E882399F08DE191E0CF91B6
:100750001F910F91FF90EF90DF90CF90BF90AF90DF
:100760009F908F907F906F905F904F900C942C0390
:1007700046015701E894B7F82FEF3FEF4FE75FE7E7
:10078000C501B4010E94340E81110DC02FEF3FEF5F
:100790004FE75FE7C501B4010E946A0C18161CF40C
:1007A00081E291E0D4CF2FEF3FEF4FE75FE4C70145
:1007B000B6010E94C20D18161CF485E291E0C7CF65
:1007C0002FEF3FEF4FE75FECC701B6010E946A0CC5
:1007D00087FDF3CF20E030E0A901C701B6010E94F8
:1007E0006A0C10E000E087FF0AC06DE28CEC92E03A
:1007F0000E94E3018C01F7FAF094F7F8F094C0E05E
:1008000060E070E080E09FE37C1641F020E030E0A3
:1008100040E251E40E946F0CCF5FF6CFA701960132
:100820000E94FE0B2B013C010E94E10C4B015C017C
:100830004AE00E9449037C01E00EF11ECC23C1F185
:10084000C501B4010E94100D9B01AC01C301B201AE
:100850000E94FD0B4B015C016EE28CEC92E00E9469
:10086000E301E80EF91EC15018F120E030E040E24B
:1008700051E4C501B4010E94C70D2B013C010E9447
:10088000E10C4B01B12CA12C4AE0C501B4010E943E
:100890004903E80EF91EC501B4010E94100D9B0129
:1008A000AC01C301B2010E94FD0B4B015C01DBCF27
:1008B000C701CF911F910F91FF90EF90DF90CF90E4
:1008C000BF90AF909F908F907F906F905F904F9070
:1008D00008952F923F924F925F926F927F928F92E4
:1008E0009F92AF92BF92CF92DF92EF92FF920F93BF
:1008F0001F93CF93DF93CDB7DEB7C150D1400FB672
:10090000F894DEBF0FBECDBF882E912C25E0829FCC
:10091000F0011124E555FD4F9281992309F40FC48C
:10092000308130937A034CEC52E05093790340933A
:100930007803109285041092870410928604EFE7E2
:10094000F3E04FEF53E0119211924E175F07D9F782
:1009500021E02093BB0225E0289DF001299DF00DA8
:100960001124E555FD4F2181422F50E050937C0327
:1009700040937B03492F50E050937E0340937D03C7
:10098000398333E03A831B822C831D829E83DE01F0
:1009900011966D011696F6012FEF3FEF56019191DA
:1009A000292748E050E0B9016170772736952795EF
:1009B000672B21F061E0262760EA36274150510974
:1009C00091F7EA17FB0759F7CF5FDE4F8883C150D5
:1009D000D1402F83388719868091780390917903CD
:1009E000DC01ED91FC910284F385E02D09950196DF
:1009F00099F7E0918E04F0918F04309709F00995F2
:100A00003601E8E06E0E711C8091780390917903B5
:100A1000D6016D916D01DC01ED91FC910190F081A9
:100A2000E02D09956C147D0479F7809178039091FD
:100A30007903DC01ED91FC910680F781E02D0995A9
:100A4000E0919004F0919104309709F009950E948B
:100A500020031B012C01C12C98E0792E8091780392
:100A600090917903DC01ED91FC910084F185E02DFA
:100A70000995892B09F44BC08091780390917903F3
:100A8000DC01ED91FC910284F385E02D0995F501DF
:100A9000EC0DF11D80837A94C394B5E0CB125EC057
:100AA000998180917A03981354C1EA818E2F8F77B0
:100AB000833009F051C1E7FF33C0DB80D11061C042
:100AC0008FEF9FEFE0E0D12C9601225031094E2F9D
:100AD00050E0421753070CF0EAC04A0D5B1DDA01E3
:100AE0004C91842748E050E0BC01617077279695CF
:100AF0008795672B21F0B1E08B27B0EA9B27415007
:100B0000510991F7EF5FE3CF82EED82E34C0E09128
:100B10008C04F0918D04309709F4BFCF0995BDCFB7
:100B2000E350E531D8F4F0E0E856FA4F0C94390E72
:100B3000AD05AD051B061B06AE05AE05AE05AE0543
:100B4000AE05AE05AE05AE051B061B06AE05AE0531
:100B5000AE05AE05AE051806AD057B800E942003EC
:100B60006219730984099509613D774081059105F2
:100B700008F0CACFD12C772009F460C0DD2009F439
:100B80006DCF109285041092870410928604109203
:100B90008A048BE791E00E9430020E9420030E94A9
:100BA000100D20E030E04AE754E40E946F0C42E070
:100BB0000E948D038AE591E00E94300285E0889DC5
:100BC000F001899DF00D1124E555FD4F608170E025
:100BD00090E080E04AE00E9449038CE491E00E94AA
:100BE0003002DD2009F431C1B1E0DB1609F452C254
:100BF000E2E0DE1609F453C2F3E0DF1609F454C252
:100C000024E0D21609F455C230EED31609F456C2C8
:100C100061EED61609F457C282EED81609F458C20E
:100C200093EED91216C181EDE82E81E0F82E11C1A4
:100C3000B5E07B2E93CFA3E07A2E90CFD110A1CF39
:100C4000F4E0FC1508F43CCF8A81853030F4833021
:100C500030F48130D8F5D12C94CF8731E1F76B8116
:100C600070E07595679590918B0480E0282F30E0B7
:100C7000261737070CF06AC08034B0F4A9014E5F24
:100C80005F4F440F551F220F331FF901E858FC4FE7
:100C9000DE01A40FB51F2C914A0D5B1DDA019C915A
:100CA000322F292F30872783982F8F5FDFCF2A0D90
:100CB0003B1DF9012081281306C0CC0EDD1ED60194
:100CC0008C91891709F2F3EEDF2E5BCF6B81462FF3
:100CD00050E05595479530918B0420E0822F90E0AD
:100CE00084179507E4F42034B8F4880F991FFC01A9
:100CF000E858FC4FA5E0B0E0AC0FBD1FA80FB91F2E
:100D00003C91A4E0B0E0AC0FBD1F8A0F9B1FDC013B
:100D10008C91932F90878783322F2F5FDFCF309373
:100D20008B0460FF98CF203468F4880F991FFC0172
:100D3000E858FC4F8C0F9D1FDC0114968C9190E0BD
:100D4000908787832F5F20938B0485CF90938B04AC
:100D500082CFB0EEDB2E15CFA1EEDA2E12CF90931C
:100D60008D0280938C02D110EAC100917F03109113
:100D7000800310938F0200938E028FE191E00E9416
:100D80003002B80190E080E00E94100D20E030E0D9
:100D900040E251E40E946F0C42E00E948D038AE120
:100DA00091E05BC19093890280938802D110C7C102
:100DB000F0907F0380918003F0928A0280938B02EF
:100DC00086E391E00E943002FF2009F486C1A1E091
:100DD000FA1609F48AC1B2E0FB1609F489C1E3E00E
:100DE000FE1609F488C1F4E0FF1609F487C125E076
:100DF000F21609F486C136E0F31609F485C167E0FE
:100E0000F61609F484C188E0F81609F483C199E064
:100E1000F91609F482C1AAE0FA1609F481C1BBE00F
:100E2000FB1609F480C1ECE0FE1609F47FC1FDE079
:100E3000FF1609F47EC12EE0F21609F47DC13FE0F1
:100E4000F3124DC105E612E04AC1E6EEEE2EE1E0F6
:100E5000FE2EC7010E942C030E9439031092BB0290
:100E60008D2D90E0CF5FDE4F6881C150D140613061
:100E700009F475CF623009F495CF90939102809375
:100E80009002D1105CC100917F03109180031093F8
:100E90009302009392028091810390918203909338
:100EA00095028093940280918303909184039093A0
:100EB0009702809396028091850390918603909388
:100EC0009902809398028091870390918803909370
:100ED0009B0280939A028091890390918A03909358
:100EE0009D0280939C0280918B0390918C03909340
:100EF0009F0280939E0280918D0390918E03909328
:100F0000A1028093A00285E091E00E943002B80126
:100F100090E080E00E94100D20E030E040E251E4DB
:100F20000E946F0C42E00E948D0380E091E00E94DD
:100F30003D038BEE90E00E9430026091940270912C
:100F4000950290E080E00E94100D20E030E040E249
:100F500051E40E946F0C42E00E948D0386EE90E007
:100F60000E943D0381ED90E00E9430026091960264
:100F70007091970290E080E00E94100D20E030E038
:100F800040E251E40E946F0C42E00E948D038EEC1F
:100F900090E00E943D0389EB90E00E943002609156
:100FA00098027091990290E080E00E94100D20E07C
:100FB00030E040E251E40E946F0C42E00E948D0359
:100FC00084EB90E00E943D038FE990E00E943002A4
:100FD00060919A0270919B0290E080E00E94100D57
:100FE00020E030E040E251E40E946F0C42E00E94B9
:100FF0008D038AE990E00E943D0385E890E00E941D
:10100000300260919C0270919D0290E080E00E940D
:10101000100D20E030E040E251E40E946F0C42E00D
:101020000E948D0380E890E00E943D038BE690E0F3
:101030000E94300260919E0270919F0290E080E0D9
:101040000E94100D20E030E040E251E40E946F0C5D
:1010500042E00E948D0388E690E00E943D03CF5F4E
:10106000DE4F0FB6F894DEBF0FBECDBFDF91CF913C
:101070001F910F91FF90EF90DF90CF90BF90AF90B6
:101080009F908F907F906F905F904F903F902F90A8
:101090000C94390377EFE72E71E0F72EDACE69E290
:1010A000E62E61E0F62ED5CE57E4E52E51E0F52E82
:1010B000D0CE43E6E42E41E0F42ECBCE31E8E32E51
:1010C00031E0F32EC6CE2BE9E22E21E0F22EC1CE86
:1010D00095EBE92E91E0F92EBCCE04E712E0C801B1
:1010E0000E942C0384E391E0B8CF09E712E0F7CF28
:1010F0000EE712E0F4CF01E112E0F1CF00E712E0D9
:10110000EECF0EE112E0EBCF0EE212E0E8CF0AE202
:1011100012E0E5CF06E312E0E2CF0AE312E0DFCF10
:101120000EE312E0DCCF07E412E0D9CF0FE612E0C5
:10113000D6CF05E512E0D3CF0AE612E0D0CFCF5FDD
:10114000DE4F0FB6F894DEBF0FBECDBFDF91CF915B
:101150001F910F91FF90EF90DF90CF90BF90AF90D5
:101160009F908F907F906F905F904F903F902F90C7
:1011700008951F920F920FB60F9211242F933F9351
:101180004F935F936F937F938F939F93AF93BF938F
:10119000EF93FF938CEC92E00E94C101FF91EF91DD
:1011A000BF91AF919F918F917F916F915F914F917F
:1011B0003F912F910F900FBE0F901F9018951F9287
:1011C0000F920FB60F9211242F938F939F93EF934B
:1011D000FF93E091DC02F091DD028081E091E20278
:1011E000F091E30282FD1BC090818091E5028F5F48
:1011F0008F732091E602821741F0E091E502F0E062
:10120000E453FD4F958F8093E502FF91EF919F91FD
:101210008F912F910F900FBE0F901F901895808186
:10122000F4CF1F920F920FB60F9211242F933F937A
:101230008F939F93AF93BF938091A3029091A40249
:10124000A091A502B091A6023091A20223E0230F43
:101250002D3758F50196A11DB11D2093A202809350
:10126000A3029093A402A093A502B093A60280913A
:10127000A7029091A802A091A902B091AA0201969A
:10128000A11DB11D8093A7029093A802A093A9026B
:10129000B093AA02BF91AF919F918F913F912F91EF
:1012A0000F900FBE0F901F90189526E8230F0296FF
:1012B000A11DB11DD2CFECECF2E01382128288EEB8
:1012C00093E0A0E0B0E084839583A683B7838CE0AD
:1012D00091E09183808385EC90E09587848784EC0E
:1012E00090E09787868780EC90E0918B808B81ECF3
:1012F00090E0938B828B82EC90E0958B848B86ECD4
:1013000090E0978B868B118E128E138E148E109216
:101310008D0410928C0410928F0410928E041092FF
:10132000910410929004E9E6F3E011821082138296
:1013300012820895789484B5826084BD84B58160FA
:1013400084BD85B5826085BD85B5816085BD809190
:101350006E00816080936E00109281008091810008
:101360008260809381008091810081608093810000
:10137000809180008160809380008091B1008460C2
:101380008093B1008091B00081608093B000809123
:101390007A00846080937A0080917A0082608093E2
:1013A0007A0080917A00816080937A0080917A003F
:1013B000806880937A001092C10061E086E00E940C
:1013C000CA0260E085E00E94CA0261E083E00E94F8
:1013D000CA02E4EDF1E08491E0ECF1E0E491ECEAA2
:1013E000F1E0C491CC2361F081110E946B02EC2FDB
:1013F000F0E0EE0FFF1FE356FE4FA591B4918C91E4
:1014000081E08093AB0294E69093AC0298E09093D5
:10141000AD029BEC9093AE0296E09093AF0222E077
:101420002093B0021092B1028093B2021092B302E4
:101430001092B40233E03093B5021092B60280935A
:10144000B7021092B8021092B90242EC52E05093E7
:101450008F0440938E0446EC52E0509391044093E5
:101460009004E091DC02F091DD022083E091D8024B
:10147000F091D9021082E091DA02F091DB028FEC58
:1014800080831092E402E091E002F091E102908307
:10149000E091DE02F091DF02808180618083E09143
:1014A000DE02F091DF02808188608083E091DE02BD
:1014B000F091DF02808180688083E091DE02F0910C
:1014C000DF0280818F7D808387E192E00E9430027D
:1014D0004AE060E875E280E090E00E94490380E124
:1014E00092E00E943D030E94390386EF91E00E9442
:1014F0003D0383EE91E00E94300280E091E00E9483
:101500002C030E9439030E9439030E94FB024B0105
:101510005C0184ECC82E89E0D82EE12CF12C0E94CD
:10152000FB02681979098A099B09683E73408105A5
:101530009105A8F321E0C21AD108E108F10838EEBC
:10154000830E33E0931EA11CB11CC114D104E1042D
:10155000F10429F781E08093BA02C0E0D0E00E9454
:1015600020036093C8027093C9028093CA029093CB
:10157000CB02C090BC02D090BD02E090BE02F090C1
:10158000BF02C114D104E104F10491F48091BB02C3
:10159000811120C00E9420036093BC027093BD02A1
:1015A0008093BE029093BF0280E00E94690473C0E2
:1015B0000E942003C616D706E806F90641F10E94EC
:1015C00020036C197D098E099F0968397A438105CA
:1015D0009105E0F6C090C002D090C102E090C20236
:1015E000F090C302C114D104E104F104F9F4809134
:1015F000BB0281112EC00E9420036093C002709331
:10160000C1028093C2029093C30281E0CECF0E94B8
:101610002003C61AD70AE80AF90A88E9C8168AE335
:10162000D806E104F10408F0B1CFD4CF0E94200322
:10163000C616D706E806F90609F45DC00E94200325
:101640006C197D098E099F096838734181059105E0
:1016500070F6C090C402D090C502E090C602F0902F
:10166000C702C114D104E104F10409F461C00E946D
:101670002003C616D706E806F90609F44BC00E94F7
:1016800020036C197D098E099F0968387341810513
:10169000910508F04DC08CEC92E00E944B026091E5
:1016A000BA0286E00E9494020E942003C090C80201
:1016B000D090C902E090CA02F090CB026C157D0573
:1016C0008E059F0509F444C00E9420036C197D0912
:1016D0008E099F09643671058105910508F448C09B
:1016E000209709F43CCF0E94AD01882309F437CF3D
:1016F0000E94000034CF0E942003C61AD70AE80ACD
:10170000F90A38E8C31633E1D306E104F10408F01E
:101710006ECF9FCF0E942003C61AD70AE80AF90AA3
:1017200058E8C51653E1D506E104F10408F4B3CF37
:101730008091BB028111AFCF0E9420036093C4024D
:101740007093C5028093C6029093C70282E02DCFAA
:101750000E942003A7019601261B370B480B590B4B
:10176000DA01C90184369105A105B10508F0B8CFA9
:101770000E942003C616D706E806F90661F00E940B
:1017800020036C197D098E099F0965367105810555
:10179000910570F3A5CF0E942003A7019601261B97
:1017A000370B480B590BDA01C90185369105A105A4
:1017B000B105F0F295CFA1E21A2EAA1BBB1BFD01C9
:1017C0000DC0AA1FBB1FEE1FFF1FA217B307E40720
:1017D000F50720F0A21BB30BE40BF50B661F771F78
:1017E000881F991F1A9469F7609570958095909558
:1017F0009B01AC01BD01CF0108955058BB27AA271A
:101800000E94150C0C94880D0E947A0D38F00E94ED
:10181000810D20F039F49F3F19F426F40C94770DD4
:101820000EF4E095E7FB0C94710DE92F0E94990DE1
:1018300058F3BA17620773078407950720F079F405
:10184000A6F50C94BB0D0EF4E0950B2EBA2FA02D2F
:101850000B01B90190010C01CA01A0011124FF275D
:10186000591B99F0593F50F4503E68F11A16F04058
:10187000A22F232F342F4427585FF3CF4695379557
:101880002795A795F0405395C9F77EF41F16BA0B1C
:10189000620B730B840BBAF09150A1F0FF0FBB1FCA
:1018A000661F771F881FC2F70EC0BA0F621F731F13
:1018B000841F48F4879577956795B795F7959E3F70
:1018C00008F0B0CF9395880F08F09927EE0F979501
:1018D000879508950E944D0D08F481E008950E94B7
:1018E000830C0C94880D0E94810D58F00E947A0D93
:1018F00040F029F45F3F29F00C94710D51110C94C4
:10190000BC0D0C94770D0E94990D68F39923B1F3E7
:10191000552391F3951B550BBB27AA276217730715
:10192000840738F09F5F5F4F220F331F441FAA1FA9
:10193000A9F335D00E2E3AF0E0E832D09150504065
:10194000E695001CCAF72BD0FE2F29D0660F771F13
:10195000881FBB1F261737074807AB07B0E809F0F9
:10196000BB0B802DBF01FF2793585F4F3AF09E3F7E
:10197000510578F00C94710D0C94BC0D5F3FE4F3AD
:10198000983ED4F3869577956795B795F7959F5FC1
:10199000C9F7880F911D9695879597F90895E1E00D
:1019A000660F771F881FBB1F621773078407BA076C
:1019B00020F0621B730B840BBA0BEE1F88F7E095C7
:1019C00008950E94A10D88F09F5798F0B92F99278C
:1019D000B751B0F0E1F0660F771F881F991F1AF01A
:1019E000BA95C9F714C0B13091F00E94BB0DB1E0B7
:1019F00008950C94BB0D672F782F8827B85F39F0B6
:101A0000B93FCCF3869577956795B395D9F73EF4B2
:101A100090958095709561957F4F8F4F9F4F08955A
:101A2000E89409C097FB3EF4909580957095619578
:101A30007F4F8F4F9F4F9923A9F0F92F96E9BB272E
:101A40009395F695879577956795B795F111F8CFAA
:101A5000FAF4BB0F11F460FF1BC06F5F7F4F8F4F15
:101A60009F4F16C0882311F096E911C0772321F00B
:101A70009EE8872F762F05C0662371F096E8862FA3
:101A800070E060E02AF09A95660F771F881FDAF7FA
:101A9000880F9695879597F90895990F0008550F27
:101AA000AA0BE0E8FEEF16161706E807F907C0F0E4
:101AB00012161306E407F50798F0621B730B840BEC
:101AC000950B39F40A2661F0232B242B252B21F4C6
:101AD00008950A2609F4A140A6958FEF811D811D66
:101AE000089597F99F6780E870E060E008959FEFA0
:101AF00080EC089500240A941616170618060906A5
:101B0000089500240A941216130614060506089573
:101B1000092E0394000C11F4882352F0BB0F40F4FB
:101B2000BF2B11F460FF04C06F5F7F4F8F4F9F4F3B
:101B3000089557FD9058440F551F59F05F3F71F0BD
:101B40004795880F97FB991F61F09F3F79F0879524
:101B50000895121613061406551FF2CF4695F1DFAD
:101B600008C0161617061806991FF1CF869571053D
:101B7000610508940895E894BB2766277727CB0171
:101B800097F908950E944D0D08F48FEF08950E9473
:101B9000DA0D0C94880D0E947A0D38F00E94810DA8
:101BA00020F0952311F00C94710D0C94770D1124F5
:101BB0000C94BC0D0E94990D70F3959FC1F3950F85
:101BC00050E0551F629FF001729FBB27F00DB11DC1
:101BD000639FAA27F00DB11DAA1F649F6627B00D51
:101BE000A11D661F829F2227B00DA11D621F739F3A
:101BF000B00DA11D621F839FA00D611D221F749F48
:101C00003327A00D611D231F849F600D211D822F8E
:101C1000762F6A2F11249F5750409AF0F1F08823B5
:101C20004AF0EE0FFF1FBB1F661F771F881F9150E2
:101C30005040A9F79E3F510580F00C94710D0C9413
:101C4000BC0D5F3FE4F3983ED4F386957795679596
:101C5000B795F795E7959F5FC1F7FE2B880F911D0C
:101C60009695879597F908950E944D0D880B990BCD
:101C70000895EE0FFF1F0590F491E02D0994F8945C
:021C8000FFCF94
:101C8200323130342E30370000000000E3014301CE
:101C920070014B02A1017F0193010D0A006E616E7A
:101CA20000696E66006F766600307830323A204DF9
:101CB200425F494C4C4547414C5F444154415F416E
:101CC20044445245535300307830333A204D425FFA
:101CD200494C4C4547414C5F444154415F56414C4D
:101CE200554500307830343A204D425F534C4156CE
:101CF200455F4445564943455F4641494C55524527
:101D020000307845303A204D425F494E56414C49A9
:101D1200445F534C4156455F494400307845313A5F
:101D2200204D425F494E56414C49445F46554E4311
:101D320054494F4E00307845323A204D425F524569
:101D420053504F4E53455F54494D45445F4F555490
:101D520000307845333A204D425F494E56414C4956
:101D6200445F43524300307830303A204D425F5353
:101D720055434345535300307830313A204D425F4A
:101D8200494C4C4547414C5F46554E4354494F4E92
:101D9200004553545F4E4F52445F455354004553E0
:101DA200545F5355445F455354005355445F535554
:101DB200445F45535400535544005355445F5355B3
:101DC200445F5745535400574553545F5355445F3E
:101DD20057455354004F564553545F4E4F52445F3C
:101DE20057455354004E4F52445F4E4F52445F5733
:101DF200455354004E4F5244004E4F52445F4E4F93
:081E020052445F4553540000F7
:00000001FF
