:100000000C94FC000C9424010C9424010C94240105
:100010000C9424010C9424010C9424010C942401CC
:100020000C9424010C9424010C9424010C942401BC
:100030000C9424010C9424010C9424010C942401AC
:100040000C9418080C9424010C94E6070C94C00737
:100050000C9424010C9424010C9424010C9424018C
:100060000C9424010C9424012025004162736F6CD0
:1000700075746548756D69646974792E2E2E20003B
:1000800020C2B0430048656174496E6465782E2EC5
:100090002E2E2E2E2E2E2E2E200020C2B0430044B7
:1000A0006577506F696E742E2E2E2E2E2E2E2E2ECC
:1000B0002E2E200020C2B043005765742074656D59
:1000C00070657261747572652E2E2E2E20002025AB
:1000D0000048756D69646974792E2E2E2E2E2E2E91
:1000E0002E2E2E2E200020685061005072657373F2
:1000F0007572652E2E2E2E2E2E2E2E2E2E2E20009A
:1001000020C2B043004472792074656D70657261DD
:10011000747572652E2E2E2E20004D696C6C6973DD
:100120002074696D653A20002E20526573756C74D9
:10013000206973200052657175657374206D616468
:100140006520746F20746865206E6F646520000000
:10015000000000240027002A0000000000250028DD
:10016000002B0000000000230026002900040404E6
:100170000404040404020202020202030303030350
:10018000030102040810204080010204081020012D
:10019000020408102000000008000201000003040F
:1001A000070000000000000000536F667477617262
:1001B000652076657273696F6E3A20004D41494E35
:1001C000205745415445522053544154494F4E20E5
:1001D000424F41524400206269742F73005374618E
:1001E0007274206D6F646275732F73657269616CD0
:1001F000206174200000620811241FBECFEFD8E0F8
:10020000DEBFCDBF12E0A0E0B1E0E4E3F9E102C05F
:1002100005900D92A032B107D9F724E0A0E2B2E038
:1002200001C01D92A031B207E1F710E0CCEFD0E0A1
:1002300004C02197FE010E94920CCB3FD107C9F761
:100240000E94A1080C94980C0C940000AF92BF92ED
:10025000CF92DF92EF92FF920F931F93CF93DF9392
:100260006C017B018B01040F151FEB015E01AE18C1
:10027000BF08C017D10759F06991D601ED91FC91E3
:100280000190F081E02DC6010995892B79F7C50110
:10029000DF91CF911F910F91FF90EF90DF90CF9062
:1002A000BF90AF900895FC01538D448D252F30E011
:1002B000842F90E0821B930B541710F0CF96089573
:1002C00001970895FC01918D828D981761F0A28DA0
:1002D000AE0FBF2FB11D5D968C91928D9F5F9F7366
:1002E000928F90E008958FEF9FEF0895FC01918D1C
:1002F000828D981731F0828DE80FF11D858D90E089
:1003000008958FEF9FEF0895FC01918D228D892F25
:1003100090E0805C9F4F821B91098F73992708950D
:100320008AE492E00E94840121E0892B09F420E014
:10033000822F089580E090E0892B29F00E9490019F
:1003400081110C9400000895FC01A48DA80FB92F11
:10035000B11DA35ABF4F2C91848D90E001968F73ED
:100360009927848FA689B7892C93A089B1898C910C
:10037000837080648C93938D848D981306C002885B
:10038000F389E02D80818F7D80830895EF92FF9225
:100390000F931F93CF93DF93EC0181E0888F9B8DA8
:1003A0008C8D98131AC0E889F989808185FF15C062
:1003B0009FB7F894EE89FF896083E889F989808185
:1003C0008370806480839FBF81E090E0DF91CF9154
:1003D0001F910F91FF90EF900895F62E0B8D10E076
:1003E0000F5F1F4F0F731127E02E8C8D8E110CC0E5
:1003F0000FB607FCFACFE889F989808185FFF5CF30
:10040000CE010E94A401F1CFEB8DEC0FFD2FF11D69
:10041000E35AFF4FF0829FB7F8940B8FEA89FB896C
:1004200080818062CFCF0F931F93CF93DF938C0196
:10043000D0E0C0E0F801EC0FFD1F6491662341F0AD
:100440008AE492E00E94C601892B11F02196F2CF36
:10045000CE01DF91CF911F910F910895CF93DF933C
:10046000EC01888D8823B9F0AA89BB89E889F989CC
:100470008C9185FD03C0808186FD0DC00FB607FC01
:10048000F7CF8C9185FFF2CF808185FFEDCFCE0134
:100490000E94A401E9CFDF91CF910895833081F0CC
:1004A00028F4813099F08230A9F008958730A9F0BE
:1004B0008830C9F08430B1F4809180008F7D03C012
:1004C000809180008F7780938000089584B58F7726
:1004D00084BD089584B58F7DFBCF8091B0008F7768
:1004E0008093B00008958091B0008F7DF9CF1F9365
:1004F000CF93DF93282F30E0F901EB56FE4F849124
:10050000F901EF57FE4FD491F901E359FE4FC49121
:10051000CC23A9F0162F81110E944E02EC2FF0E09F
:10052000EE0FFF1FE75AFE4FA591B4918FB7F894D5
:10053000EC91111108C0D095DE23DC938FBFDF91C1
:10054000CF911F910895DE2BF8CF61E083E00C94EA
:10055000770260E083E00C947702CF93DF9390E022
:10056000FC01EF57FE4F249183599E4FFC0184916B
:100570008823D1F090E0880F991FFC01E15BFE4FCA
:10058000A591B491FC01E75AFE4FC591D491611138
:100590000EC09FB7F8948C91E22FE0958E238C9338
:1005A0002881E223E8839FBFDF91CF9108958FB721
:1005B000F894EC91E22BEC938FBFF6CF3FB7F89411
:1005C0008091370290913802A0913902B0913A029D
:1005D00026B5A89B05C02F3F19F00196A11DB11D9E
:1005E0003FBFBA2FA92F982F8827BC01CD01620FDA
:1005F000711D811D911D42E0660F771F881F991F95
:100600004A95D1F708952FB7F8946091330270910D
:10061000340280913502909136022FBF0895FC017B
:1006200001900020E9F73197AF01481B590BBC013D
:100630008AE492E00C94260183E291E00C940F038B
:10064000CF93DF930E941302EC010E941C038C0FD6
:100650009D1FDF91CF9108958F929F92AF92BF928D
:100660000F931F93CF93DF93CDB7DEB7A1970FB64C
:10067000F894DEBF0FBECDBF19A2423008F44AE0A5
:100680008E010F5D1F4F842E912CB12CA12CA50142
:1006900094010E94340AE62FB901CA01EA30F4F449
:1006A000E05DD801EE938D01232B242B252B79F7C8
:1006B00090E080E0109719F0CD010E940F03A19601
:1006C0000FB6F894DEBF0FBECDBFDF91CF911F9163
:1006D0000F91BF90AF909F908F900895E95CE1CF0C
:1006E0004F925F926F927F928F929F92AF92BF9242
:1006F000CF92DF92EF92FF920F931F93CF936B01F4
:100700007C01742EAC019B010E948D0C882399F012
:1007100086E291E0CF911F910F91FF90EF90DF90D3
:10072000CF90BF90AF909F908F907F906F905F9091
:100730004F900C940F0346015701E894B7F82FEF40
:100740003FEF4FE75FE7C501B4010E948D0C8111B7
:100750000DC02FEF3FEF4FE75FE7C501B4010E94E7
:10076000C30A18161CF48AE291E0D4CF2FEF3FEFB2
:100770004FE75FE4C701B6010E941B0C18161CF47A
:100780008EE291E0C7CF2FEF3FEF4FE75FECC7015D
:10079000B6010E94C30A87FDF3CF20E030E0A90133
:1007A000C701B6010E94C30A10E000E087FF0AC03B
:1007B0006DE28AE492E00E94C6018C01F7FAF0949F
:1007C000F7F8F094C0E060E070E080E09FE37C1612
:1007D00041F020E030E040E251E40E94C80ACF5FDF
:1007E000F6CFA70196010E94570A2B013C010E94F7
:1007F0003A0B4B015C014AE00E942C037C01E00EA5
:10080000F11ECC23C1F1C501B4010E94690B9B010B
:10081000AC01C301B2010E94560A4B015C016EE2B9
:100820008AE492E00E94C601E80EF91EC15018F158
:1008300020E030E040E251E4C501B4010E94200C08
:100840002B013C010E943A0B4B01B12CA12C4AE038
:10085000C501B4010E942C03E80EF91EC501B401C4
:100860000E94690B9B01AC01C301B2010E94560AB0
:100870004B015C01DBCFC701CF911F910F91FF901E
:10088000EF90DF90CF90BF90AF909F908F907F9030
:100890006F905F904F9008954F925F926F927F920A
:1008A0009F92AF92BF92CF92DF92EF92FF920F93FF
:1008B0001F93CF93DF93CDB7DEB7DA950FB6F894D9
:1008C000DEBF0FBECDBF282F30E0F901E25FFE4F43
:1008D000C080C092F8024AE452E05093F70240937D
:1008E000F602109203041092050410920404EDEF36
:1008F000F2E01192119273E0ED37F707D1F7F901A9
:10090000EE0FFF1FE20FF31FE55CFD4F908199236F
:1009100009F420C392812181422F50E05093FA02C2
:100920004093F902492F50E05093FC024093FB02A0
:10093000C98233E03A831B822C831D829E838E0101
:100940000F5F1F4FBE01695F7F4FF8012FEF3FEF31
:1009500058019191292748E050E0D901A170BB27A7
:1009600036952795AB2B21F091E0292790EA39277E
:100970004150510991F7E617F70759F7D82E2F8301
:10098000388719868091F6029091F702DC01ED918B
:10099000FC910284F385E02D0995019699F7E09189
:1009A0000C04F0910D04309709F009953801E8E046
:1009B0006E0E711C8091F6029091F702D8016D9134
:1009C0008D01DC01ED91FC910190F081E02D099504
:1009D0006016710679F78091F6029091F702DC01BA
:1009E000ED91FC910680F781E02D0995E0910E04D0
:1009F000F0910F04309709F009950E9403032B0131
:100A00003C0100E0A8E09A2E8091F6029091F70256
:100A1000DC01ED91FC910084F185E02D0995892B95
:100A200009F448C08091F6029091F702DC01ED9143
:100A3000FC910284F385E02D0995F501E00FF11D8D
:100A400080839A940F5F053009F05BC09981809193
:100A5000F802981325C2EA818E2F8F77833009F030
:100A600021C2E7FF30C01B8111115EC08FEF9FEFE5
:100A700060E010E0980122503109462F50E0421703
:100A800053070CF0BFC14A0D5B1DFA01408184275A
:100A900048E050E0FC01E170FF2796958795EF2B29
:100AA00021F0F1E08F27F0EA9F274150510991F79B
:100AB0006F5FE3CFE0910A04F0910B04309709F4E3
:100AC000C2CF0995C0CFE350E531D8F4F0E0E55945
:100AD000FA4F0C94920C80058005C906C906810561
:100AE0008105810581058105810581058105C9068D
:100AF000C90681058105810581058105C606800538
:100B00009B800E940303641975098609970912EEF8
:100B1000613D77408105910508F410E0992009F4C2
:100B20003BC1112309F470CF109203041092050405
:100B300010920404109208048FEF8D0D823008F497
:100B4000F6C0812F90E09093210280932002111132
:100B5000EEC0A090FD02B090FE02B0922302A092DF
:100B600022028091FF0290910003909325028093CE
:100B700024028091010390910203909327028093B5
:100B8000260280910303909104039093290280939D
:100B90002802809105039091060390932B02809385
:100BA0002A02809107039091080390932D0280936D
:100BB0002C028091090390910A0390932F02809355
:100BC0002E0280910B0390910C039093310280933D
:100BD000300285E091E00E941302B50190E080E0D0
:100BE0000E94690B20E030E040E251E40E94C80A14
:100BF00042E00E94700380E091E00E9420038BEEAF
:100C000090E00E941302609124027091250290E00E
:100C100080E00E94690B20E030E040E251E40E9455
:100C2000C80A42E00E94700386EE90E00E94200312
:100C300081ED90E00E9413026091260270912702DC
:100C400090E080E00E94690B20E030E040E251E457
:100C50000E94C80A42E00E9470038EEC90E00E945D
:100C6000200389EB90E00E941302609128027091AA
:100C7000290290E080E00E94690B20E030E040E231
:100C800051E40E94C80A42E00E94700384EB90E0A5
:100C90000E9420038FE990E00E94130260912A02D3
:100CA00070912B0290E080E00E94690B20E030E020
:100CB00040E251E40E94C80A42E00E9470038AE9BF
:100CC00090E00E94200385E890E00E94130260916A
:100CD0002C0270912D0290E080E00E94690B20E0D0
:100CE00030E040E251E40E94C80A42E00E947003F2
:100CF00080E890E00E9420038BE690E00E941302BF
:100D000060912E0270912F0290E080E00E94690BAA
:100D100020E030E040E251E40E94C80A42E00E9434
:100D2000700388E690E00E9420030E941C0385E384
:100D300091E00E9413026C2D70E090E080E04AE0A8
:100D40000E942C0388E291E00E941302112309F40F
:100D5000ABC0113009F4DBC0123009F4DDC0133030
:100D600009F4DFC0143009F4E1C0103E09F4E3C017
:100D7000113E09F4E5C0123E09F4E7C0133E09F044
:100D800097C08BEDE82E81E0F82E92C0F5E09F2E03
:100D9000B8CEE3E09E2EB5CE1111C6CE053008F0D8
:100DA00065CE8A81853030F4833030F48130C0F5EF
:100DB00010E0BACE8731E1F76B8170E075956795E9
:100DC0008091090420E0422F50E0461757070CF0AD
:100DD00064C02034A0F4CA010296880F991F440F02
:100DE000551FFA01EA50FD4FDE01A80FB91F3C91D3
:100DF0008A0D9B1DDC018C91932F90878783822F16
:100E00002F5FE1CF2A0D3B1DD9012C91281306C07D
:100E10000C0F1D1FF8018081891719F213EE84CE83
:100E20006B81462F50E0559547959091090480E0DD
:100E3000282F30E024173507E4F48034B8F4220F6B
:100E4000331FF901EA50FD4FA5E0B0E0AC0FBD1F24
:100E5000A20FB31F9C91A4E0B0E0AC0FBD1F2A0FFE
:100E60003B1FD9012C91392F30872783982F8F5F13
:100E7000DFCF9093090460FF9BCF803468F4220F8A
:100E8000331FF901EA50FD4F2C0F3D1FD901149675
:100E90002C9130E0308727838F5F8093090488CFBF
:100EA00010EE42CE11EE40CEE1EFEE2EE1E0FE2E4E
:100EB000C7010E940F030E941C038AE191E00E9477
:100EC00013020E9403030E94690B20E030E04AE70E
:100ED00054E40E94C80A42E00E9470030E941C036E
:100EE000D3950FB6F894DEBF0FBECDBFDF91CF9183
:100EF0001F910F91FF90EF90DF90CF90BF90AF9038
:100F00009F907F906F905F904F900C941C0374E0C3
:100F1000E72E72E0F72ECCCF62E3E62E61E0F62EEC
:100F2000C7CF50E5E52E51E0F52EC2CF4CE6E42EBA
:100F300041E0F42EBDCF3AE8E32E31E0F32EB8CFF6
:100F400024EAE22E21E0F22EB3CF9FEBE92E91E0CE
:100F5000F92EAECFD3950FB6F894DEBF0FBECDBF3E
:100F6000DF91CF911F910F91FF90EF90DF90CF9085
:100F7000BF90AF909F907F906F905F904F9008953B
:100F80001F920F920FB60F9211242F933F934F93FE
:100F90005F936F937F938F939F93AF93BF93EF93E1
:100FA000FF938AE492E00E94A401FF91EF91BF9128
:100FB000AF919F918F917F916F915F914F913F91F1
:100FC0002F910F900FBE0F901F9018951F920F92A8
:100FD0000FB60F9211242F938F939F93EF93FF934C
:100FE000E0915A02F0915B028081E0916002F09101
:100FF000610282FD1BC09081809163028F5F8F73BD
:1010000020916402821741F0E0916302F0E0E65B18
:10101000FD4F958F80936302FF91EF919F918F9188
:101020002F910F900FBE0F901F9018958081F4CFD5
:101030001F920F920FB60F9211242F933F938F930D
:101040009F93AF93BF938091330290913402A0910C
:101050003502B09136023091320223E0230F2D3752
:1010600058F50196A11DB11D2093320280933302E1
:1010700090933402A0933502B093360280913702E8
:1010800090913802A0913902B0913A020196A11DC7
:10109000B11D8093370290933802A0933902B09328
:1010A0003A02BF91AF919F918F913F912F910F90F5
:1010B0000FBE0F901F90189526E8230F0296A11DD2
:1010C000B11DD2CFEAE4F2E01382128288EE93E0FF
:1010D000A0E0B0E084839583A683B78385E191E0A7
:1010E0009183808385EC90E09587848784EC90E001
:1010F0009787868780EC90E0918B808B81EC90E0E5
:10110000938B828B82EC90E0958B848B86EC90E0C5
:10111000978B868B118E128E138E148E10920B0469
:1011200010920A0410920D0410920C0410920F04F5
:1011300010920E04E7EEF2E0118210821382128206
:101140000895789484B5826084BD84B5816084BD3F
:1011500085B5826085BD85B5816085BD80916E0055
:10116000816080936E001092810080918100826086
:1011700080938100809181008160809381008091C3
:1011800080008160809380008091B10084608093B2
:10119000B1008091B00081608093B00080917A00AE
:1011A000846080937A0080917A00826080937A00D4
:1011B00080917A00816080937A0080917A008068C3
:1011C00080937A001092C10061E086E00E94AD0237
:1011D00060E085E00E94AD0261E083E00E94AD0224
:1011E000EAE9F1E08491E6E8F1E0E491E2E7F1E098
:1011F000C491CC2361F081110E944E02EC2FF0E0EB
:10120000EE0FFF1FED59FE4FA591B4918C9181E037
:1012100080933B0294E690933C0298E090933D02C9
:1012200080933E0210923F028093400280934102DD
:10123000109242028093430285EA92E090930D045B
:1012400080930C0489EA92E090930F0480930E043B
:10125000E0915A02F0915B0282E08083E0915602B5
:10126000F09157021082E0915802F09159028FECF0
:10127000808310926202E0915E02F0915F0286E04C
:101280008083E0915C02F0915D02808180618083C7
:10129000E0915C02F0915D02808188608083E09142
:1012A0005C02F0915D02808180688083E0915C0245
:1012B000F0915D0280818F7D80838DED91E00E94B1
:1012C00013024AE060E875E280E090E00E942C039F
:1012D00086ED91E00E9420030E941C038CEB91E0BC
:1012E0000E94200389EA91E00E94130280E091E0CD
:1012F0000E940F030E941C030E941C030E94DE0236
:101300004B015C0184ECC82E89E0D82EE12CF12C35
:101310000E94DE02681979098A099B09683E7340B8
:1013200081059105A8F321E0C21AD108E108F1086E
:1013300088EE880E83E0981EA11CB11CC114D10454
:10134000E104F10429F781E090E090934502809355
:101350004402C0E0D0E00E94030360934602709311
:10136000470280934802909349028091080190912E
:10137000090188392AE392070CF453C0109209013D
:101380001092080180E00E944C0480910A01909123
:101390000B01883823E192070CF44AC010920B012C
:1013A00010920A0181E00E944C0480910C019091FE
:1013B0000D01883823E192070CF441C010920D0111
:1013C00010920C0182E00E944C046091440286E07D
:1013D0000E9477020E9403036B017C018090460209
:1013E00090904702A0904802B0904902C814D904D6
:1013F000EA04FB0459F10E940303681979098A0978
:101400009B09653671058105910520F3209709F444
:10141000A2CF0E949001882309F49DCF0E94000072
:101420009ACF8C599F4F9093090180930801ADCFBB
:101430008C599F4F90930B0180930A01B6CF8C5922
:101440009F4F90930D0180930C01BFCF0E94030327
:10145000C61AD70AE80AF90A85E6C816D104E104D3
:10146000F10408F4B7CFD2CFA1E21A2EAA1BBB1BFE
:10147000FD010DC0AA1FBB1FEE1FFF1FA217B30760
:10148000E407F50720F0A21BB30BE40BF50B661F76
:10149000771F881F991F1A9469F76095709580953A
:1014A00090959B01AC01BD01CF0108955058BB2719
:1014B000AA270E946E0A0C94E10B0E94D30B38F00D
:1014C0000E94DA0B20F039F49F3F19F426F40C94B3
:1014D000D00B0EF4E095E7FB0C94CA0BE92F0E94A9
:1014E000F20B58F3BA17620773078407950720F0C9
:1014F00079F4A6F50C94140C0EF4E0950B2EBA2F8B
:10150000A02D0B01B90190010C01CA01A001112409
:10151000FF27591B99F0593F50F4503E68F11A16B5
:10152000F040A22F232F342F4427585FF3CF469546
:1015300037952795A795F0405395C9F77EF41F1668
:10154000BA0B620B730B840BBAF09150A1F0FF0F32
:10155000BB1F661F771F881FC2F70EC0BA0F621F1E
:10156000731F841F48F4879577956795B795F7950E
:101570009E3F08F0B0CF9395880F08F09927EE0FA3
:101580009795879508950E94A60B08F481E0089529
:101590000E94DC0A0C94E10B0E94DA0B58F00E94C6
:1015A000D30B40F029F45F3F29F00C94CA0B511182
:1015B0000C94150C0C94D00B0E94F20B68F3992339
:1015C000B1F3552391F3951B550BBB27AA2762173F
:1015D0007307840738F09F5F5F4F220F331F441F4C
:1015E000AA1FA9F335D00E2E3AF0E0E832D0915080
:1015F0005040E695001CCAF72BD0FE2F29D0660F6D
:10160000771F881FBB1F261737074807AB07B0E8AF
:1016100009F0BB0B802DBF01FF2793585F4F3AF0B5
:101620009E3F510578F00C94CA0B0C94150C5F3F4B
:10163000E4F3983ED4F3869577956795B795F7953B
:101640009F5FC9F7880F911D9695879597F9089523
:10165000E1E0660F771F881FBB1F621773078407BF
:10166000BA0720F0621B730B840BBA0BEE1F88F7CE
:10167000E09508950E94FA0B88F09F5798F0B92FD3
:101680009927B751B0F0E1F0660F771F881F991FB7
:101690001AF0BA95C9F714C0B13091F00E94140C39
:1016A000B1E008950C94140C672F782F8827B85F49
:1016B00039F0B93FCCF3869577956795B395D9F70F
:1016C0003EF490958095709561957F4F8F4F9F4F19
:1016D0000895E89409C097FB3EF490958095709525
:1016E00061957F4F8F4F9F4F9923A9F0F92F96E96E
:1016F000BB279395F695879577956795B795F111E3
:10170000F8CFFAF4BB0F11F460FF1BC06F5F7F4F7F
:101710008F4F9F4F16C0882311F096E911C0772391
:1017200021F09EE8872F762F05C0662371F096E89A
:10173000862F70E060E02AF09A95660F771F881F69
:10174000DAF7880F9695879597F90895990F00080D
:10175000550FAA0BE0E8FEEF16161706E807F90783
:10176000C0F012161306E407F50798F0621B730B1E
:10177000840B950B39F40A2661F0232B242B252B9F
:1017800021F408950A2609F4A140A6958FEF811D42
:10179000811D089597F99F6780E870E060E00895E3
:1017A0009FEF80EC089500240A9416161706180679
:1017B0000906089500240A94121613061406050655
:1017C0000895092E0394000C11F4882352F0BB0FE6
:1017D00040F4BF2B11F460FF04C06F5F7F4F8F4F49
:1017E0009F4F089557FD9058440F551F59F05F3F84
:1017F00071F04795880F97FB991F61F09F3F79F033
:1018000087950895121613061406551FF2CF4695B4
:10181000F1DF08C0161617061806991FF1CF869536
:101820007105610508940895E894BB27662777271A
:10183000CB0197F908950E94A60B08F48FEF089545
:101840000E94330C0C94E10B0E94D30B38F00E94E1
:10185000DA0B20F0952311F00C94CA0B0C94D00BEA
:1018600011240C94150C0E94F20B70F3959FC1F398
:10187000950F50E0551F629FF001729FBB27F00D3E
:10188000B11D639FAA27F00DB11DAA1F649F662793
:10189000B00DA11D661F829F2227B00DA11D621FE2
:1018A000739FB00DA11D621F839FA00D611D221F9C
:1018B000749F3327A00D611D231F849F600D211D80
:1018C000822F762F6A2F11249F5750409AF0F1F003
:1018D00088234AF0EE0FFF1FBB1F661F771F881F6C
:1018E00091505040A9F79E3F510580F00C94CA0BCF
:1018F0000C94150C5F3FE4F3983ED4F386957795EE
:101900006795B795F795E7959F5FC1F7FE2B880F11
:10191000911D9695879597F908950E94A60B880BBF
:10192000990B0895EE0FFF1F0590F491E02D099497
:04193000F894FFCF59
:10193400323130342E303700983A8813881301023C
:101944000300000000C601260153012E0284016237
:101954000176010D0A006E616E00696E66006F7695
:101964006600307830323A206B75384D42496C6CE1
:101974006567616C4461746141646472657373008A
:10198400307830333A206B75384D42496C6C65675A
:10199400616C4461746156616C75650030783034F3
:1019A4003A206B75384D42536C61766544657669AF
:1019B40063654661696C75726500307845303A201C
:1019C4006B75384D42496E76616C6964536C61760F
:1019D40065494400307845313A206B75384D4249A9
:1019E4006E76616C696446756E6374696F6E0030FF
:1019F4007845323A206B75384D42526573706F6E7C
:101A0400736554696D65644F757400307845333A75
:101A1400206B75384D42496E76616C69644352435C
:101A240000307830303A206B75384D42537563631B
:101A340065737300307830313A206B75384D424904
:101A44006C6C6567616C46756E6374696F6E0000DB
:107E0000112484B714BE81FFF0D085E080938100F7
:107E100082E08093C00088E18093C10086E0809377
:107E2000C20080E18093C4008EE0C9D0259A86E02C
:107E300020E33CEF91E0309385002093840096BBD3
:107E4000B09BFECF1D9AA8958150A9F7CC24DD24C4
:107E500088248394B5E0AB2EA1E19A2EF3E0BF2EE7
:107E6000A2D0813461F49FD0082FAFD0023811F036
:107E7000013811F484E001C083E08DD089C08234E0
:107E800011F484E103C0853419F485E0A6D080C0E4
:107E9000853579F488D0E82EFF2485D0082F10E0AE
:107EA000102F00270E291F29000F111F8ED06801E7
:107EB0006FC0863521F484E090D080E0DECF843638
:107EC00009F040C070D06FD0082F6DD080E0C81688
:107ED00080E7D80618F4F601B7BEE895C0E0D1E017
:107EE00062D089930C17E1F7F0E0CF16F0E7DF06D8
:107EF00018F0F601B7BEE89568D007B600FCFDCFD4
:107F0000A601A0E0B1E02C9130E011968C91119780
:107F100090E0982F8827822B932B1296FA010C0160
:107F200087BEE89511244E5F5F4FF1E0A038BF0790
:107F300051F7F601A7BEE89507B600FCFDCF97BE46
:107F4000E89526C08437B1F42ED02DD0F82E2BD052
:107F50003CD0F601EF2C8F010F5F1F4F84911BD097
:107F6000EA94F801C1F70894C11CD11CFA94CF0C13
:107F7000D11C0EC0853739F428D08EE10CD085E9AC
:107F80000AD08FE07ACF813511F488E018D01DD067
:107F900080E101D065CF982F8091C00085FFFCCF94
:107FA0009093C60008958091C00087FFFCCF809118
:107FB000C00084FD01C0A8958091C6000895E0E648
:107FC000F0E098E1908380830895EDDF803219F02E
:107FD00088E0F5DFFFCF84E1DECF1F93182FE3DFCA
:107FE0001150E9F7F2DF1F91089580E0E8DFEE27F6
:047FF000FF270994CA
:027FFE00040479
:0400000300007E007B
:00000001FF