:100000000C9429010C9451010C9451010C94510150
:100010000C9451010C9451010C9451010C94510118
:100020000C9451010C9451010C9451010C94510108
:100030000C9451010C9451010C9451010C945101F8
:100040000C94BC090C9451010C948A090C94640919
:100050000C9451010C9451010C9451010C945101D8
:100060000C9451010C9451013E0057696E64206458
:100070006972656374696F6E2E2E2E2E2E203C00E1
:10008000206D2F730041637475616C2077696E6415
:100090002073706565642E2E200020250041627358
:1000A0006F6C75746548756D69646974792E2E2E50
:1000B000200020C2B0430048656174496E646578D1
:1000C0002E2E2E2E2E2E2E2E2E2E200020C2B0436F
:1000D00000446577506F696E742E2E2E2E2E2E2EB4
:1000E0002E2E2E2E200020C2B0430057657420749F
:1000F000656D70657261747572652E2E2E2E2000EE
:1001000020250048756D69646974792E2E2E2E2E77
:100110002E2E2E2E2E2E200020685061005072654B
:1001200073737572652E2E2E2E2E2E2E2E2E2E2EA3
:10013000200020C2B043004472792074656D706560
:100140007261747572652E2E2E2E2000207C205236
:100150006573756C7420697320007365632E207C51
:100160002052657175657374206D61646520736CD0
:10017000617665204964206E722E004D696C6C6951
:10018000732074696D653A2000000000002300268A
:100190000029005261696E2067617567652062758C
:1001A000636B657473206F7665727475726E696EB9
:1001B000673A200000000000240027002A00000009
:1001C0000000250028002B00040404040404040497
:1001D00002020202020203030303030301020408F2
:1001E00010204080010204081020010204081020A1
:1001F00000000008000201000003040700000000E6
:1002000000000000536F6674776172652076657236
:1002100073696F6E3A20004D41494E205745415455
:1002200045522053544154494F4E20424F4152446D
:1002300000206269742F73005374617274206D6FB3
:10024000646275732F73657269616C20617420003C
:10025000060A11241FBECFEFD8E0DEBFCDBF12E0EB
:10026000A0E0B1E0E6E7FCE102C005900D92A23902
:10027000B107D9F724E0A2E9B2E001C01D92AF397D
:10028000B207E1F711E0C9E2D1E004C02197FE0115
:100290000E94330EC832D107C9F70E94450A0C9458
:1002A000390E0C940000AF92BF92CF92DF92EF9282
:1002B000FF920F931F93CF93DF936C017B018B0110
:1002C000040F151FEB015E01AE18BF08C017D10760
:1002D00059F06991D601ED91FC910190F081E02DEA
:1002E000C6010995892B79F7C501DF91CF911F913F
:1002F0000F91FF90EF90DF90CF90BF90AF90089557
:10030000FC01538D448D252F30E0842F90E0821B1B
:10031000930B541710F0CF96089501970895FC01A0
:10032000918D828D981761F0A28DAE0FBF2FB11DF8
:100330005D968C91928D9F5F9F73928F90E0089550
:100340008FEF9FEF0895FC01918D828D981731F00A
:10035000828DE80FF11D858D90E008958FEF9FEF5E
:100360000895FC01918D228D892F90E0805C9F4F34
:10037000821B91098F739927089589ED92E00E945D
:10038000B10121E0892B09F420E0822F089580E05B
:1003900090E0892B29F00E94BD0181110C9400008E
:1003A0000895FC01A48DA80FB92FB11DA35ABF4F0A
:1003B0002C91848D90E001968F739927848FA68964
:1003C000B7892C93A089B1898C91837080648C93B8
:1003D000938D848D981306C00288F389E02D808167
:1003E0008F7D80830895EF92FF920F931F93CF9399
:1003F000DF93EC0181E0888F9B8D8C8D98131AC060
:10040000E889F989808185FF15C09FB7F894EE8946
:10041000FF896083E889F9898081837080648083A3
:100420009FBF81E090E0DF91CF911F910F91FF90EE
:10043000EF900895F62E0B8D10E00F5F1F4F0F7396
:100440001127E02E8C8D8E110CC00FB607FCFACF51
:10045000E889F989808185FFF5CFCE010E94D1011D
:10046000F1CFEB8DEC0FFD2FF11DE35AFF4FF08222
:100470009FB7F8940B8FEA89FB8980818062CFCF88
:100480000F931F93CF93DF938C01D0E0C0E0F8016E
:10049000EC0FFD1F6491662341F089ED92E00E940C
:1004A000F301892B11F02196F2CFCE01DF91CF918C
:1004B0001F910F910895CF93DF93EC01888D8823CE
:1004C000B9F0AA89BB89E889F9898C9185FD03C0B7
:1004D000808186FD0DC00FB607FCF7CF8C9185FF9C
:1004E000F2CF808185FFEDCFCE010E94D101E9CF0F
:1004F000DF91CF910895833081F028F4813099F015
:100500008230A9F008958730A9F08830C9F084308E
:10051000B1F4809180008F7D03C0809180008F773F
:1005200080938000089584B58F7784BD089584B545
:100530008F7DFBCF8091B0008F778093B0000895BE
:100540008091B0008F7DF9CF1F93CF93DF93282F39
:1005500030E0F901E051FE4F8491F901E452FE4F81
:10056000D491F901E853FE4FC491CC23A9F0162F82
:1005700081110E947B02EC2FF0E0EE0FFF1FE2548E
:10058000FE4FA591B4918FB7F894EC91111108C06A
:10059000D095DE23DC938FBFDF91CF911F9108951B
:1005A000DE2BF8CF61E083E00C94A40260E083E0EE
:1005B0000C94A402CF93DF9390E0FC01E452FE4F31
:1005C000249188539E4FFC0184918823D1F090E0C0
:1005D000880F991FFC01EC54FE4FA591B491FC01CA
:1005E000E254FE4FC591D49161110EC09FB7F894AB
:1005F0008C91E22FE0958E238C932881E223E8836F
:100600009FBFDF91CF9108958FB7F894EC91E22BC3
:10061000EC938FBFF6CF3FB7F8948091C0029091D2
:10062000C102A091C202B091C30226B5A89B05C029
:100630002F3F19F00196A11DB11D3FBFBA2FA92F61
:10064000982F8827BC01CD01620F711D811D911D5E
:1006500042E0660F771F881F991F4A95D1F70895CA
:100660002FB7F8946091BC027091BD028091BE02D8
:100670009091BF022FBF0895CF92DF92EF92FF9229
:100680001F93CF93DF93162FEC01CC0FDD1FCC0F00
:10069000DD1FFE01E155FD4FC080D180E280F38077
:1006A000C114D104E104F10489F40E943003C1555E
:1006B000DD4F688379838A839B8381E0DF91CF91CB
:1006C0001F91FF90EF90DF90CF9008950E9430032C
:1006D000C616D706E806F906E1F00E9430039B0132
:1006E000AC012C193D094E095F0969017A0128EE18
:1006F00033E0129FC001139F900D1124092E000CAE
:10070000AA0BBB0BC816D906EA06FB0670F680E0FA
:10071000D5CF0E943003C61AD70AE80AF90AE7CFF4
:10072000FC0101900020E9F73197AF01481B590BFC
:10073000BC0189ED92E00C9453018AE191E00C94A4
:100740009003CF93DF930E944002EC010E949D032F
:100750008C0F9D1FDF91CF9108958F929F92AF9242
:10076000BF920F931F93CF93DF93CDB7DEB7A197BF
:100770000FB6F894DEBF0FBECDBF19A2423008F409
:100780004AE08E010F5D1F4F842E912CB12CA12CBD
:10079000A50194010E94D50BE62FB901CA01EA30E8
:1007A000F4F4E05DD801EE938D01232B242B252B4F
:1007B00079F790E080E0109719F0CD010E94900346
:1007C000A1960FB6F894DEBF0FBECDBFDF91CF91DB
:1007D0001F910F91BF90AF909F908F900895E95C0B
:1007E000E1CFCF93DF93E5EFF1E08491E1EEF1E02B
:1007F000D491EDECF1E0C491CC2379F081110E9409
:100800007B02EC2FF0E0EE0FFF1FE757FE4FA591A4
:10081000B491EC91ED2381E009F480E09091AE0277
:100820009130E9F481111DC01092AE02C091AC026A
:10083000D091AD022196D093AD02C093AC0283E972
:1008400091E00E944002BE0190E080E04AE00E94F8
:10085000AD030E949D03DF91CF910C949D038130E5
:1008600019F481E08093AE02DF91CF9108954F9209
:100870005F926F927F928F929F92AF92BF92CF9230
:10088000DF92EF92FF920F931F93CF936B017C0146
:10089000742EAC019B010E942E0E882399F08DE1ED
:1008A00091E0CF911F910F91FF90EF90DF90CF904B
:1008B000BF90AF909F908F907F906F905F904F9080
:1008C0000C94900346015701E894B7F82FEF3FEFDF
:1008D0004FE75FE7C501B4010E942E0E81110DC0E4
:1008E0002FEF3FEF4FE75FE7C501B4010E94640CB3
:1008F00018161CF481E291E0D4CF2FEF3FEF4FE7C1
:100900005FE4C701B6010E94BC0D18161CF485E215
:1009100091E0C7CF2FEF3FEF4FE75FECC701B60184
:100920000E94640C87FDF3CF20E030E0A901C701ED
:10093000B6010E94640C10E000E087FF0AC06DE27F
:1009400089ED92E00E94F3018C01F7FAF094F7F838
:10095000F094C0E060E070E080E09FE37C1641F03E
:1009600020E030E040E251E40E94690CCF5FF6CF16
:10097000A70196010E94F80B2B013C010E94DB0CA1
:100980004B015C014AE00E94AD037C01E00EF11EC8
:10099000CC23C1F1C501B4010E940A0D9B01AC0139
:1009A000C301B2010E94F70B4B015C016EE289EDBD
:1009B00092E00E94F301E80EF91EC15018F120E008
:1009C00030E040E251E4C501B4010E94C10D2B01A9
:1009D0003C010E94DB0C4B01B12CA12C4AE0C5016B
:1009E000B4010E94AD03E80EF91EC501B4010E94D6
:1009F0000A0D9B01AC01C301B2010E94F70B4B0130
:100A00005C01DBCFC701CF911F910F91FF90EF9059
:100A1000DF90CF90BF90AF909F908F907F906F901E
:100A20005F904F9008952F923F924F925F926F92F6
:100A30007F928F929F92AF92BF92CF92DF92EF926E
:100A4000FF920F931F93CF93DF93CDB7DEB7C150C3
:100A5000D1400FB6F894DEBF0FBECDBF882E912CCB
:100A600025E0829FF0011124EC53FD4F92819923E0
:100A700009F410C430813093870349ED52E050935C
:100A8000860340938503109292041092940410926E
:100A90009304ECE8F3E04CE054E0119211924E170D
:100AA0005F07D9F721E02093D40225E0289DF001CB
:100AB000299DF00D1124EC53FD4F2181422F50E070
:100AC0005093890340938803492F50E050938B0340
:100AD00040938A03398333E03A831B822C831D823F
:100AE0009E83DE0111966D011696F6012FEF3FEF02
:100AF00056019191292748E050E0B90161707727AC
:100B000036952795672B21F061E0262760EA362786
:100B10004150510991F7AE17BF0759F7CF5FDE4F2C
:100B20008883C150D1402F833887198680918503EF
:100B300090918603DC01ED91FC910284F385E02D18
:100B40000995019699F7E0919B04F0919C043097E8
:100B500009F009953601E8E06E0E711C809185035D
:100B600090918603D6016D916D01DC01ED91FC91B0
:100B70000190F081E02D0995C614D70479F7809192
:100B8000850390918603DC01ED91FC910680F7814D
:100B9000E02D0995E0919D04F0919E04309709F0B5
:100BA00009950E9430031B012C01C12C98E0792E7D
:100BB0008091850390918603DC01ED91FC91008486
:100BC000F185E02D0995892B09F44BC080918503AF
:100BD00090918603DC01ED91FC910284F385E02D78
:100BE0000995F501EC0DF11D80837A94C394B5E06D
:100BF000CB125EC0998180918703981354C1EA811A
:100C00008E2F8F77833009F051C1E7FF33C0DB802F
:100C1000D11061C08FEF9FEFE0E0D12C9601225000
:100C200031094E2F50E0421753070CF0EAC04A0D2D
:100C30005B1DDA014C91842748E050E0BC016170F3
:100C4000772796958795672B21F0B1E08B27B0EA3F
:100C50009B274150510991F7EF5FE3CF82EED82EE9
:100C600034C0E0919904F0919A04309709F4BFCF11
:100C70000995BDCFE350E531D8F4F0E0EE5BF94FD4
:100C80000C94330E57065706C506C5065806580677
:100C9000580658065806580658065806C506C5068A
:100CA00058065806580658065806C20657067B804E
:100CB0000E9430036219730984099509613D7740E8
:100CC0008105910508F0CACFD12C772009F460C0C6
:100CD000DD2009F46DCF10929204109294041092CA
:100CE0009304109297048BE791E00E9440020E94C7
:100CF00030030E940A0D20E030E04AE754E40E94ED
:100D0000690C42E00E9437048AE591E00E944002AB
:100D100085E0889DF001899DF00D1124EC53FD4F75
:100D2000608170E090E080E04AE00E94AD038CE4D6
:100D300091E00E944002DD2009F44BC1B1E0DB16D6
:100D400009F453C2E2E0DE1609F454C2F3E0DF1600
:100D500009F455C224E0D21609F456C230EED31677
:100D600009F457C261EED61609F458C282EED816BD
:100D700009F459C293EED91230C181EDE82E81E019
:100D8000F82E2BC1B5E07B2E93CFA3E07A2E90CF27
:100D9000D110A1CFF4E0FC1508F43CCF8A81853056
:100DA00030F4833030F48130D8F5D12C94CF8731B2
:100DB000E1F76B8170E0759567959091980480E0FC
:100DC000282F30E0261737070CF06AC08034B0F4C3
:100DD000A9014E5F5F4F440F551F220F331FF901CA
:100DE000EB57FC4FDE01A40FB51F2C914A0D5B1D84
:100DF000DA019C91322F292F30872783982F8F5F1C
:100E0000DFCF2A0D3B1DF9012081281306C0CC0E2F
:100E1000DD1ED6018C91891709F2F3EEDF2E5BCF30
:100E20006B81462F50E0559547953091980420E00E
:100E3000822F90E084179507E4F42034B8F4880FEB
:100E4000991FFC01EB57FC4FA5E0B0E0AC0FBD1FB4
:100E5000A80FB91F3C91A4E0B0E0AC0FBD1F8A0FF2
:100E60009B1FDC018C91932F90878783322F2F5FFC
:100E7000DFCF3093980460FF98CF203468F4880F58
:100E8000991FFC01EB57FC4F8C0F9D1FDC01149642
:100E90008C9190E0908787832F5F2093980485CF73
:100EA0009093980482CFB0EEDB2E15CFA1EEDA2E10
:100EB00012CF9093970280939602D11008C0809130
:100EC0008C0390918D03909399028093980285E80A
:100ED00090E00E944002609198027091990290E027
:100EE00080E00E940A0D20E030E040E251E40E94E0
:100EF000690C42E00E94370480E890E00E94A10360
:100F0000CF5FDE4F0FB6F894DEBF0FBECDBFDF91CF
:100F1000CF911F910F91FF90EF90DF90CF90BF90F6
:100F2000AF909F908F907F906F905F904F903F9089
:100F30002F900C949D039093930280939202809142
:100F40008C0390918D03DD2011F080E190E090936F
:100F50009502809394028AE690E00E94400280917C
:100F60009402811103C00EE712E064C1813009F4DC
:100F70005FC1823009F464C1833009F464C18430F4
:100F800009F464C1853009F464C1863009F464C190
:100F9000873009F464C1883009F464C1893009F4E8
:100FA00064C18A3009F464C18B3009F464C18C30A7
:100FB00009F464C18D3009F464C18E3009F464C150
:100FC0008F3009F464C1803109F034C104E712E0C4
:100FD00031C1E6EEEE2EE1E0FE2EC7010E94900345
:100FE0000E949D031092D4028D2D90E0CF5FDE4FC2
:100FF000A881C150D140A13009F45BCFA23009F4DF
:101000009ACF90939B0280939A02D11040C0809116
:101010008C0390918D0390939D0280939C0280910C
:101020008E0390918F0390939F0280939E028091F4
:101030009003909191039093A1028093A0028091DC
:101040009203909193039093A3028093A2028091C4
:101050009403909195039093A5028093A4028091AC
:101060009603909197039093A7028093A602809194
:101070009803909199039093A9028093A80280917C
:101080009A0390919B039093AB028093AA0287E30B
:1010900091E00E94400260919C0270919D0290E05C
:1010A00080E00E940A0D20E030E040E251E40E941E
:1010B000690C42E00E94370482E391E00E94A103A0
:1010C0008DE191E00E94400260919E0270919F022A
:1010D00090E080E00E940A0D20E030E040E251E420
:1010E0000E94690C42E00E94370488E191E00E946E
:1010F000A10383E091E00E9440026091A002709100
:10110000A10290E080E00E940A0D20E030E040E281
:1011100051E40E94690C42E00E94370480E091E0B3
:101120000E94A1038BEE90E00E9440026091A20217
:101130007091A30290E080E00E940A0D20E030E070
:1011400040E251E40E94690C42E00E94370486EEBE
:1011500090E00E94A10381ED90E00E944002609126
:10116000A4027091A50290E080E00E940A0D20E0A8
:1011700030E040E251E40E94690C42E00E943704F2
:101180008CEC90E00E94A10387EB90E00E9440026B
:101190006091A6027091A70290E080E00E940A0D83
:1011A00020E030E040E251E40E94690C42E00E94FD
:1011B000370482EB90E00E94A1038DE990E00E9449
:1011C00040026091A8027091A90290E080E00E9424
:1011D0000A0D20E030E040E251E40E94690C42E058
:1011E0000E9437048AE990E089CE77EFE72E71E01C
:1011F000F72EF3CE69E2E62E61E0F62EEECE57E44E
:10120000E52E51E0F52EE9CE43E6E42E41E0F42E42
:10121000E4CE31E8E32E31E0F32EDFCE2BE9E22EEF
:1012200021E0F22EDACE95EBE92E91E0F92ED5CE23
:1012300003E812E0C8010E94900388E690E05ECEC9
:1012400008E812E0F7CF01E112E0F4CF00E712E086
:10125000F1CF0EE112E0EECF0EE212E0EBCF0AE2A8
:1012600012E0E8CF06E312E0E5CF0AE312E0E2CFB6
:101270000EE312E0DFCF07E412E0DCCF0FE612E06E
:10128000D9CF05E512E0D6CF0AE612E0D3CF05E6C6
:1012900012E0D0CFCF5FDE4F0FB6F894DEBF0FBEA7
:1012A000CDBFDF91CF911F910F91FF90EF90DF9015
:1012B000CF90BF90AF909F908F907F906F905F90F6
:1012C0004F903F902F9008951F920F920FB60F925C
:1012D00011242F933F934F935F936F937F938F933B
:1012E0009F93AF93BF93EF93FF9389ED92E00E949A
:1012F000D101FF91EF91BF91AF919F918F917F911C
:101300006F915F914F913F912F910F900FBE0F9072
:101310001F9018951F920F920FB60F9211242F93C2
:101320008F939F93EF93FF93E091E902F091EA028C
:101330008081E091EF02F091F00282FD1BC090816C
:101340008091F2028F5F8F732091F302821741F038
:10135000E091F202F0E0E752FD4F958F8093F202A8
:10136000FF91EF919F918F912F910F900FBE0F9052
:101370001F9018958081F4CF1F920F920FB60F9295
:1013800011242F933F938F939F93AF93BF9380919B
:10139000BC029091BD02A091BE02B091BF023091FB
:1013A000BB0223E0230F2D3758F50196A11DB11D77
:1013B0002093BB028093BC029093BD02A093BE0217
:1013C000B093BF028091C0029091C102A091C2026D
:1013D000B091C3020196A11DB11D8093C0029093EC
:1013E000C102A093C202B093C302BF91AF919F917B
:1013F0008F913F912F910F900FBE0F901F901895D6
:1014000026E8230F0296A11DB11DD2CFE9EDF2E02F
:101410001382128288EE93E0A0E0B0E0848395838B
:10142000A683B7838CE091E09183808385EC90E084
:101430009587848784EC90E09787868780EC90E09E
:10144000918B808B81EC90E0938B828B82EC90E08F
:10145000958B848B86EC90E0978B868B118E128E09
:10146000138E148E10929A041092990410929C0478
:1014700010929B0410929E0410929D04E6E7F3E004
:1014800011821082138212820895789484B582604A
:1014900084BD84B5816084BD85B5826085BD85B518
:1014A000816085BD80916E00816080936E00109296
:1014B0008100809181008260809381008091810011
:1014C00081608093810080918000816080938000A2
:1014D0008091B10084608093B1008091B000816000
:1014E0008093B00080917A00846080937A0080912C
:1014F0007A00826080937A0080917A008160809384
:101500007A0080917A00806880937A001092C100FE
:1015100061E086E00E94DA0260E085E00E94DA0283
:1015200061E083E00E94DA0281E08093C40294E6E5
:101530009093C50298E09093C6029BEC9093C702EB
:1015400096E09093C80222E02093C9021092CA024A
:101550008093CB021092CC021092CD0233E03093F4
:10156000CE021092CF028093D0021092D10210923C
:10157000D20242ED52E050939C0440939B0446ED0E
:1015800052E050939E0440939D0441EF53E05093EA
:101590009A0440939904E091E902F091EA022083D1
:1015A000E091E502F091E6021082E091E702F0910D
:1015B000E8028FEC80831092F102E091ED02F0914D
:1015C000EE029083E091EB02F091EC028081806169
:1015D0008083E091EB02F091EC028081886080834F
:1015E000E091EB02F091EC02808180688083E091D1
:1015F000EB02F091EC0280818F7D808388E392E0A2
:101600000E9440024AE060E875E280E090E00E94BB
:10161000AD0381E392E00E94A1030E949D0387E154
:1016200092E00E94A10384E092E00E94400280E0E8
:1016300091E00E9490030E949D030E949D030E94DE
:101640000B034B015C0184ECC82E89E0D82EE12C01
:10165000F12C0E940B03681979098A099B09683EDD
:10166000734081059105A8F321E0C21AD108E10871
:10167000F10838EE830E33E0931EA11CB11CC11497
:10168000D104E104F10429F781E08093D302C0E0A2
:10169000D0E00E9430036093D5027093D60280930D
:1016A000D7029093D8020E94F1038091D402811155
:1016B0000BC06DE290E080E00E943C03882309F4B7
:1016C00063C080E00E94130589ED92E00E945B02F6
:1016D0006091D30286E00E94A4020E943003C09071
:1016E000D502D090D602E090D702F090D8026C15C7
:1016F0007D058E059F05C1F00E9430036C197D09A0
:101700008E099F096431710581059105D8F02097F4
:1017100009F4BFCF0E94BD01882309F4BACF0E940B
:101720000000B7CF81E0CECF0E943003A701960121
:10173000261B370B480B590BDA01C9014497A10549
:10174000B10528F70E943003C616D706E806F90649
:1017500061F00E9430036C197D098E099F09653183
:1017600071058105910570F3D2CF0E943003A70166
:101770009601261B370B480B590BDA01C901459717
:10178000A105B105F8F2C3CF6FE081E090E00E94BF
:101790003C038111C7CF65E082E090E00E943C03EA
:1017A000882309F491CF82E08DCFA1E21A2EAA1BE3
:1017B000BB1BFD010DC0AA1FBB1FEE1FFF1FA21701
:1017C000B307E407F50720F0A21BB30BE40BF50BFE
:1017D000661F771F881F991F1A9469F76095709587
:1017E000809590959B01AC01BD01CF0108955058A3
:1017F000BB27AA270E940F0C0C94820D0E94740D27
:1018000038F00E947B0D20F039F49F3F19F426F444
:101810000C94710D0EF4E095E7FB0C946B0DE92F21
:101820000E94930D58F3BA17620773078407950750
:1018300020F079F4A6F50C94B50D0EF4E0950B2E7E
:10184000BA2FA02D0B01B90190010C01CA01A00112
:101850001124FF27591B99F0593F50F4503E68F16D
:101860001A16F040A22F232F342F4427585FF3CFAE
:10187000469537952795A795F0405395C9F77EF47F
:101880001F16BA0B620B730B840BBAF09150A1F0C8
:10189000FF0FBB1F661F771F881FC2F70EC0BA0F4E
:1018A000621F731F841F48F4879577956795B795D6
:1018B000F7959E3F08F0B0CF9395880F08F09927D1
:1018C000EE0F9795879508950E94470D08F481E0E3
:1018D00008950E947D0C0C94820D0E947B0D58F09F
:1018E0000E94740D40F029F45F3F29F00C946B0DB9
:1018F00051110C94B60D0C94710D0E94930D68F368
:101900009923B1F3552391F3951B550BBB27AA27B8
:1019100062177307840738F09F5F5F4F220F331FF2
:10192000441FAA1FA9F335D00E2E3AF0E0E832D0BA
:1019300091505040E695001CCAF72BD0FE2F29D0BD
:10194000660F771F881FBB1F261737074807AB078F
:10195000B0E809F0BB0B802DBF01FF2793585F4F04
:101960003AF09E3F510578F00C946B0D0C94B60D37
:101970005F3FE4F3983ED4F3869577956795B795E6
:10198000F7959F5FC9F7880F911D9695879597F9F1
:101990000895E1E0660F771F881FBB1F621773076A
:1019A0008407BA0720F0621B730B840BBA0BEE1F7F
:1019B00088F7E09508950E949B0D88F09F5798F056
:1019C000B92F9927B751B0F0E1F0660F771F881F44
:1019D000991F1AF0BA95C9F714C0B13091F00E945E
:1019E000B50DB1E008950C94B50D672F782F8827B9
:1019F000B85F39F0B93FCCF3869577956795B39585
:101A0000D9F73EF490958095709561957F4F8F4FF3
:101A10009F4F0895E89409C097FB3EF490958095F8
:101A2000709561957F4F8F4F9F4F9923A9F0F92FA4
:101A300096E9BB279395F695879577956795B79522
:101A4000F111F8CFFAF4BB0F11F460FF1BC06F5F08
:101A50007F4F8F4F9F4F16C0882311F096E911C01A
:101A6000772321F09EE8872F762F05C0662371F03B
:101A700096E8862F70E060E02AF09A95660F771F4F
:101A8000881FDAF7880F9695879597F90895990F2B
:101A90000008550FAA0BE0E8FEEF16161706E80738
:101AA000F907C0F012161306E407F50798F0621B59
:101AB000730B840B950B39F40A2661F0232B242B2E
:101AC000252B21F408950A2609F4A140A6958FEF4D
:101AD000811D811D089597F99F6780E870E060E09F
:101AE00008959FEF80EC089500240A9416161706B7
:101AF00018060906089500240A94121613061406FF
:101B000005060895092E0394000C11F4882352F061
:101B1000BB0F40F4BF2B11F460FF04C06F5F7F4F19
:101B20008F4F9F4F089557FD9058440F551F59F000
:101B30005F3F71F04795880F97FB991F61F09F3FBA
:101B400079F087950895121613061406551FF2CFE3
:101B50004695F1DF08C0161617061806991FF1CF33
:101B600086957105610508940895E894BB2766275A
:101B70007727CB0197F908950E94470D08F48FEF5E
:101B800008950E94D40D0C94820D0E94740D38F0BB
:101B90000E947B0D20F0952311F00C946B0D0C949A
:101BA000710D11240C94B60D0E94930D70F3959F46
:101BB000C1F3950F50E0551F629FF001729FBB2744
:101BC000F00DB11D639FAA27F00DB11DAA1F649FE0
:101BD0006627B00DA11D661F829F2227B00DA11D93
:101BE000621F739FB00DA11D621F839FA00D611D19
:101BF000221F749F3327A00D611D231F849F600D3A
:101C0000211D822F762F6A2F11249F5750409AF062
:101C1000F1F088234AF0EE0FFF1FBB1F661F771FEE
:101C2000881F91505040A9F79E3F510580F00C94B9
:101C30006B0D0C94B60D5F3FE4F3983ED4F386959C
:101C400077956795B795F795E7959F5FC1F7FE2B59
:101C5000880F911D9695879597F908950E94470DD5
:101C6000880B990B0895EE0FFF1F0590F491E02D5E
:061C70000994F894FFCF77
:101C7600323130342E30370000000000F3015301BA
:101C860080015B02B1018F01A3010D0A006E616E36
:101C960000696E66006F766600307830323A204D05
:101CA600425F494C4C4547414C5F444154415F417A
:101CB60044445245535300307830333A204D425F06
:101CC600494C4C4547414C5F444154415F56414C59
:101CD600554500307830343A204D425F534C4156DA
:101CE600455F4445564943455F4641494C55524533
:101CF60000307845303A204D425F494E56414C49B6
:101D0600445F534C4156455F494400307845313A6B
:101D1600204D425F494E56414C49445F46554E431D
:101D260054494F4E00307845323A204D425F524575
:101D360053504F4E53455F54494D45445F4F55549C
:101D460000307845333A204D425F494E56414C4962
:101D5600445F43524300307830303A204D425F535F
:101D660055434345535300307830313A204D425F56
:101D7600494C4C4547414C5F46554E4354494F4E9E
:101D8600004553545F4E4F52445F455354004553EC
:101D9600545F5355445F455354005355445F535560
:101DA600445F45535400535544005355445F5355BF
:101DB600445F5745535400574553545F5355445F4A
:101DC60057455354004F564553545F4E4F52445F48
:101DD60057455354004E4F52445F4E4F52445F573F
:101DE600455354004E4F545F56414C4944004E4FA4
:101DF6005244004E4F52445F4E4F52445F45535437
:021E06000000DA
:107E0000112484B714BE81FFF0D085E080938100F7
:107E100082E08093C00088E18093C10086E0809377
:107E2000C20080E18093C4008EE0C9D0259A86E02C
:107E300020E33CEF91E0309385002093840096BBD3
:107E4000B09BFECF1D9AA8958150A9F7CC24DD24C4
:107E500088248394B5E0AB2EA1E19A2EF3E0BF2EE7
:107E6000A2D0813461F49FD0082FAFD0023811F036
:107E7000013811F484E001C083E08DD089C08234E0
:107E800011F484E103C0853419F485E0A6D080C0E4
:107E9000853579F488D0E82EFF2485D0082F10E0AE
:107EA000102F00270E291F29000F111F8ED06801E7
:107EB0006FC0863521F484E090D080E0DECF843638
:107EC00009F040C070D06FD0082F6DD080E0C81688
:107ED00080E7D80618F4F601B7BEE895C0E0D1E017
:107EE00062D089930C17E1F7F0E0CF16F0E7DF06D8
:107EF00018F0F601B7BEE89568D007B600FCFDCFD4
:107F0000A601A0E0B1E02C9130E011968C91119780
:107F100090E0982F8827822B932B1296FA010C0160
:107F200087BEE89511244E5F5F4FF1E0A038BF0790
:107F300051F7F601A7BEE89507B600FCFDCF97BE46
:107F4000E89526C08437B1F42ED02DD0F82E2BD052
:107F50003CD0F601EF2C8F010F5F1F4F84911BD097
:107F6000EA94F801C1F70894C11CD11CFA94CF0C13
:107F7000D11C0EC0853739F428D08EE10CD085E9AC
:107F80000AD08FE07ACF813511F488E018D01DD067
:107F900080E101D065CF982F8091C00085FFFCCF94
:107FA0009093C60008958091C00087FFFCCF809118
:107FB000C00084FD01C0A8958091C6000895E0E648
:107FC000F0E098E1908380830895EDDF803219F02E
:107FD00088E0F5DFFFCF84E1DECF1F93182FE3DFCA
:107FE0001150E9F7F2DF1F91089580E0E8DFEE27F6
:047FF000FF270994CA
:027FFE00040479
:0400000300007E007B
:00000001FF