:100000000C9451010C9479010C9479010C947901B0
:100010000C9479010C9479010C9479010C94790178
:100020000C9479010C9479010C9479010C94790168
:100030000C9479010C9479010C9479010C94790158
:100040000C94510B0C9479010C941F0B0C94F90A2D
:100050000C9479010C9479010C9479010C94790138
:100060000C9479010C9479013E0057696E64206408
:100070006972656374696F6E2E2E2E2E2E203C00E1
:10008000206D2F730041637475616C2077696E6415
:100090002073706565642E2E200020250041627358
:1000A0006F6C75746548756D69646974792E2E2E50
:1000B000200020C2B0430048656174496E646578D1
:1000C0002E2E2E2E2E2E2E2E2E2E200020C2B0436F
:1000D00000446577506F696E742E2E2E2E2E2E2EB4
:1000E0002E2E2E2E200020C2B0430057657420749F
:1000F000656D70657261747572652E2E2E2E2000EE
:1001000020250048756D69646974792E2E2E2E2E77
:100110002E2E2E2E2E2E200020685061005072654B
:1001200073737572652E2E2E2E2E2E2E2E2E2E2EA3
:10013000200020C2B043004472792074656D706560
:100140007261747572652E2E2E2E2000207C205236
:100150006573756C7420697320007365632E207C51
:100160002052657175657374206D61646520736CD0
:10017000617665204964206E722E004D696C6C6951
:10018000732074696D653A2000000000002300268A
:10019000002900206D6D2F68003E2000206D6D2F1E
:1001A00073003E20005261696E20676175676520AB
:1001B0007261696E20726174653A005261696E20E5
:1001C0006761756765206275636B657473206F7610
:1001D00065727475726E696E673A20007365632E7E
:1001E00000206174206D696C6C69732074696D65A1
:1001F0003A20005374617274696E67207461736B86
:1002000020540000000000240027002A0000000005
:1002100000250028002B0004040404040404040244
:100220000202020202030303030303010204081093
:100230002040800102040810200102040810200060
:100240000000080002010000030407000000000095
:10025000000000536F667477617265207665727373
:10026000696F6E3A20004D41494E20574541544533
:10027000522053544154494F4E20424F4152440062
:10028000206269742F73005374617274206D6F64FF
:100290006275732F73657269616C20617420000050
:1002A0009B0B11241FBECFEFD8E0DEBFCDBF12E005
:1002B000A0E0B1E0E4E9FFE102C005900D92AE39A3
:1002C000B107D9F724E0AEE9B2E001C01D92AC3B22
:1002D000B207E1F711E0C1E5D1E004C02197FE01CA
:1002E0000E94C20FC035D107C9F70E94DA0B0C94E7
:1002F000C80F0C940000AF92BF92CF92DF92EF92A2
:10030000FF920F931F93CF93DF936C017B018B01BF
:10031000040F151FEB015E01AE18BF08C017D1070F
:1003200059F06991D601ED91FC910190F081E02D99
:10033000C6010995892B79F7C501DF91CF911F91EE
:100340000F91FF90EF90DF90CF90BF90AF90089506
:10035000FC01538D448D252F30E0842F90E0821BCB
:10036000930B541710F0CF96089501970895FC0150
:10037000918D828D981761F0A28DAE0FBF2FB11DA8
:100380005D968C91928D9F5F9F73928F90E0089500
:100390008FEF9FEF0895FC01918D828D981731F0BA
:1003A000828DE80FF11D858D90E008958FEF9FEF0E
:1003B0000895FC01918D228D892F90E0805C9F4FE4
:1003C000821B91098F739927089586EF92E00E940E
:1003D000D90121E0892B09F420E0822F089580E0E3
:1003E00090E0892B29F00E94E50181110C94000016
:1003F0000895FC01A48DA80FB92FB11DA35ABF4FBA
:100400002C91848D90E001968F739927848FA68913
:10041000B7892C93A089B1898C91837080648C9367
:10042000938D848D981306C00288F389E02D808116
:100430008F7D80830895EF92FF920F931F93CF9348
:10044000DF93EC0181E0888F9B8D8C8D98131AC00F
:10045000E889F989808185FF15C09FB7F894EE89F6
:10046000FF896083E889F989808183708064808353
:100470009FBF81E090E0DF91CF911F910F91FF909E
:10048000EF900895F62E0B8D10E00F5F1F4F0F7346
:100490001127E02E8C8D8E110CC00FB607FCFACF01
:1004A000E889F989808185FFF5CFCE010E94F901A5
:1004B000F1CFEB8DEC0FFD2FF11DE35AFF4FF082D2
:1004C0009FB7F8940B8FEA89FB8980818062CFCF38
:1004D0000F931F93CF93DF938C01D0E0C0E0F8011E
:1004E000EC0FFD1F6491662341F086EF92E00E94BD
:1004F0001B02892B11F02196F2CFCE01DF91CF9113
:100500001F910F910895CF93DF93EC01888D88237D
:10051000B9F0AA89BB89E889F9898C9185FD03C066
:10052000808186FD0DC00FB607FCF7CF8C9185FF4B
:10053000F2CF808185FFEDCFCE010E94F901E9CF96
:10054000DF91CF910895833081F028F4813099F0C4
:100550008230A9F008958730A9F08830C9F084303E
:10056000B1F4809180008F7D03C0809180008F77EF
:1005700080938000089584B58F7784BD089584B5F5
:100580008F7DFBCF8091B0008F778093B00008956E
:100590008091B0008F7DF9CF1F93CF93DF93282FE9
:1005A00030E0F901E15CFD4F8491F901E55DFD4F1B
:1005B000D491F901E95EFD4FC491CC23A9F0162F27
:1005C00081110E94A302EC2FF0E0EE0FFF1FE35F0A
:1005D000FD4FA591B4918FB7F894EC91111108C01B
:1005E000D095DE23DC938FBFDF91CF911F910895CB
:1005F000DE2BF8CF61E083E00C94CC0260E083E076
:100600000C94CC02CF93DF9390E0FC01E55DFD4FAD
:100610002491895E9D4FFC0184918823D1F090E064
:10062000880F991FFC01ED5FFD4FA591B491FC016E
:10063000E35FFD4FC591D49161110EC09FB7F8944F
:100640008C91E22FE0958E238C932881E223E8831E
:100650009FBFDF91CF9108958FB7F894EC91E22B73
:10066000EC938FBFF6CF3FB7F8948091DD02909165
:10067000DE02A091DF02B091E00226B5A89B05C082
:100680002F3F19F00196A11DB11D3FBFBA2FA92F11
:10069000982F8827BC01CD01620F711D811D911D0E
:1006A00042E0660F771F881F991F4A95D1F708957A
:1006B0002FB7F8946091D9027091DA028091DB0231
:1006C0009091DC022FBF0895FC0101900020E9F712
:1006D0003197AF01481B590BBC0186EF92E00C9497
:1006E0007B0186E291E00C946403CF93DF930E9438
:1006F0006802EC010E9471038C0F9D1FDF91CF9166
:1007000008958F929F92AF92BF920F931F93CF93B2
:10071000DF93CDB7DEB7A1970FB6F894DEBF0FBE5B
:10072000CDBF19A2423008F44AE08E010F5D1F4F81
:10073000842E912CB12CA12CA50194010E94640D52
:10074000E62FB901CA01EA30F4F4E05DD801EE9376
:100750008D01232B242B252B79F790E080E0109737
:1007600019F0CD010E946403A1960FB6F894DEBF84
:100770000FBECDBFDF91CF911F910F91BF90AF9072
:100780009F908F900895E95CE1CF4F925F926F92B6
:100790007F928F929F92AF92BF92CF92DF92EF9211
:1007A000FF926B017C01AC019B010E94BD0F88236D
:1007B00081F089E291E0FF90EF90DF90CF90BF90C1
:1007C000AF909F908F907F906F905F904F900C9420
:1007D000640346015701E894B7F82FEF3FEF4FE766
:1007E0005FE7C501B4010E94BD0F81110DC02FEF5D
:1007F0003FEF4FE75FE7C501B4010E94F30D181604
:100800001CF48DE291E0D7CF2FEF3FEF4FE75FE48D
:10081000C701B6010E944B0F18161CF481E391E04A
:10082000CACF2FEF3FEF4FE75FECC701B6010E9441
:10083000F30D87FDF3CF20E030E0A901C701B60139
:100840000E94F30DB12CA12C87FF0AC06DE286EF48
:1008500092E00E941B025C01F7FAF094F7F8F09422
:100860002AE037ED43EA5BE3C701B6010E94870D3A
:100870002B013C010E946A0E6B017C010E94990EC3
:100880009B01AC01C301B2010E94860D2B013C010A
:100890004AE0C701B6010E9481037C01EA0CFB1CFF
:1008A0006EE286EF92E00E941B02E80EF91E20E045
:1008B00030E040E251E4C301B2010E94500F2B012D
:1008C0003C010E946A0E4B01B12CA12C4AE0C501EB
:1008D000B4010E948103E80EF91EC501B4010E9413
:1008E000990E9B01AC01C301B2010E94860D20E06C
:1008F00030E040E251E40E94500F0E946A0E90E006
:1009000080E04AE00E9481038E0D9F1DFF90EF90D2
:10091000DF90CF90BF90AF909F908F907F906F901F
:100920005F904F9008954F925F926F927F928F9257
:100930009F92AF92BF92CF92DF92EF92FF92CF93AE
:10094000DF93E4E4F2E08491E0E3F2E0D491ECE1BF
:10095000F2E0C491CC2379F081110E94A302EC2F24
:10096000F0E0EE0FFF1FE757FE4FA591B491EC9119
:10097000ED23C1E009F4C0E0C093CB020E9458030C
:100980006B017C018090C3029090C402A090C502CC
:10099000B090C602C814D904EA04FB0409F4E2C00A
:1009A0000E945803681979098A099B09603E7349B6
:1009B0008440910508F0E5C08091C202813009F0C1
:1009C0002DC1C1112DC11092C202C090C302D0909E
:1009D000C402E090C502F090C602C114D104E10443
:1009E000F10409F406C10E9458034B015C014090D8
:1009F000C7025090C8026090C9027090CA02841465
:100A00009504A604B70409F4C5C00E9458036419EC
:100A10007509860997090E94990E20E030E04AE79F
:100A200054E40E94F80D20E030E040EE50E40E94D3
:100A30004B0F87FDC5C00E9458036093C702709397
:100A4000C8028093C9029093CA020E945803C61636
:100A5000D706E806F90609F4A8C00E9458036C19E5
:100A60007D098E099F090E94990E20E030E04AE737
:100A700054E40E94F80D6B017C010E9458036093BE
:100A8000C3027093C4028093C5029093C602A7016B
:100A900096016AE979E989E99EE30E94F80D60937D
:100AA000BA027093BB028093BC029093BD0220E017
:100AB00030E041E655E40E94500F6093BE0270930F
:100AC000BF028093C0029093C102C091B802D0913E
:100AD000B9022196D093B902C093B8028BEB91E092
:100AE0000E946802BE0190E080E04AE00E9481031B
:100AF0000E94710385EA91E00E94750382EA91E009
:100B00000E9468026091BA027091BB028091BC029F
:100B10009091BD020E94C5038CE991E00E9475038B
:100B200089E991E00E9468026091BE027091BF0263
:100B30008091C0029091C1020E94C50383E991E0B7
:100B40000E947503DF91CF91FF90EF90DF90CF90DF
:100B5000BF90AF909F908F907F906F905F904F90DD
:100B60000C9471030E945803C61AD70AE80AF90ABE
:100B700030EEC31633E9D30634E0E306F10408F49B
:100B80001BCF1092C3021092C4021092C5021092A1
:100B9000C60212CF0E945803A5019401261B370BF1
:100BA000480B590BCA01B90136CF0E945803A7015F
:100BB0009601261B370B480B590BCA01B90153CFBD
:100BC0000E9458036093C7027093C8028093C902C1
:100BD0009093CA02DF91CF91FF90EF90DF90CF907A
:100BE000BF90AF909F908F907F906F905F904F904D
:100BF00008950E9458036093C7027093C8028093BF
:100C0000C9029093CA020E9458036093C302709372
:100C1000C4028093C5029093C60257CFC130D1F66B
:100C200081E08093C202D6CFCF92DF92EF92FF9203
:100C3000CF93DF936C01990FEE08FF08F7FE19C000
:100C40006DE286EF92E00E941B02EC016627772797
:100C5000CB016C197D098E099F094AE00E9481032E
:100C60008C0F9D1FDF91CF91FF90EF90DF90CF9081
:100C700008954AE0C701B601DF91CF91FF90EF9050
:100C8000DF90CF900C948103CF92DF92EF92FF928E
:100C90000F931F93CF93DF938C01EC01CC0FDD1FDB
:100CA000CC0FDD1FFE01E453FD4FC080D180E280F8
:100CB000F380C114D104E104F10481F583EF91E0E4
:100CC0000E946802C80101960E94140681EE91E01C
:100CD0000E9468020E9458030E94990E20E030E0B2
:100CE0004AE754E40E94F80D0E94C5038CED91E0A0
:100CF0000E9468020E9471030E945803C453DD4F92
:100D0000688379838A839B8381E0DF91CF911F91F0
:100D10000F91FF90EF90DF90CF9008950E945803BD
:100D2000C616D706E806F906C9F00E9458039B01CB
:100D3000AC012C193D094E095F0969017A01FE01D8
:100D4000E85FFE4F80819181A281B381C816D906E8
:100D5000EA06FB0608F0B2CF80E0D7CF0E94580326
:100D6000C61AD70AE80AF90AEACF2F923F924F92A1
:100D70005F926F927F928F929F92AF92BF92CF922B
:100D8000DF92EF92FF920F931F93CF93DF93CDB734
:100D9000DEB7DA950FB6F894DEBF0FBECDBF782E62
:100DA00086EF92E00E948302872C912C25E0729EB0
:100DB000F0011124EF51FD4F8281882309F400C412
:100DC00020812093A40346EF52E05093A303409365
:100DD000A2031092AF041092B1041092B004E9EA99
:100DE000F3E049E254E0119211924E175F07D9F7F0
:100DF00091E09093F10295E0989DF001999DF00D9E
:100E00001124EF51FD4F9181492F50E05093A603DB
:100E10004093A503482F50E05093A8034093A703A5
:100E2000298323E02A831B829C831D828E83CE012B
:100E300001966C01BE01695F7F4FFC018FEF9FEF50
:100E400056012191822728E030E0AC0141705527FE
:100E500096958795452B21F0A1E08A27A0EA9A274D
:100E60002150310991F76E177F0759F78F839887C3
:100E700019868091A2039091A303DC01ED91FC916E
:100E80000284F385E02D0995019699F7E091B80465
:100E9000F091B904309709F009952601E8E04E0E6B
:100EA000511C8091A2039091A303D6016D916D0115
:100EB000DC01ED91FC910190F081E02D0995C414C5
:100EC000D50479F78091A2039091A303DC01ED9101
:100ED000FC910680F781E02D0995E091BA04F0912C
:100EE000BB04309709F009950E9458031B012C019F
:100EF00098E0692EC12C8091A2039091A303DC019C
:100F0000ED91FC910084F185E02D0995892B09F480
:100F10004BC08091A2039091A303DC01ED91FC9161
:100F20000284F385E02D0995F501EC0DF11D808318
:100F30006A94C394B5E0CB125EC099818091A403FA
:100F4000981353C1EA818E2F8F77833009F050C1F7
:100F5000E7FF33C0DB80D11061C08FEF9FEFE0E08F
:100F6000D12C9601225031094E2F50E042175307E1
:100F70000CF0E9C04A0D5B1DDA014C91842748E072
:100F800050E0BC016170772796958795672B21F01B
:100F9000B1E08B27B0EA9B274150510991F7EF5FF1
:100FA000E3CF82EED82E34C0E091B604F091B704BE
:100FB000309709F4BFCF0995BDCFE350E531D8F4A0
:100FC000F0E0EB51F84F0C94C20FFA07FA076708EC
:100FD0006708FB07FB07FB07FB07FB07FB07FB0794
:100FE000FB0767086708FB07FB07FB07FB07FB0717
:100FF0006408FA076B800E94580362197309840918
:101000009509613D77408105910508F0CACFD12C43
:10101000662009F45FC0DD2009F46DCF1092AF04A3
:101020001092B1041092B0041092B4048BE791E0D6
:101030000E9468020E9458030E94990E20E030E04E
:101040004AE754E40E94F80D0E94C5038AE591E046
:101050000E94680285E0889DF001899DF00D1124B1
:10106000EF51FD4F608170E090E080E04AE00E9427
:1010700081038CE491E00E946802DD2009F449C1FB
:10108000B1E0DB1609F447C2E2E0DE1609F448C21B
:10109000F3E0DF1609F449C224E0D21609F44AC28B
:1010A00040EED41609F44BC261EED61609F44CC2D8
:1010B00082EED81609F44DC293EED9122EC18DEDF1
:1010C000E82E81E0F82E29C1B5E06B2E94CFA3E085
:1010D0006A2E91CFD110A2CFF4E0FC1508F43DCFD9
:1010E0008A81853030F4833030F48130D8F5D12CCA
:1010F00095CF8731E1F76B8170E075956795909199
:10110000B50480E0282F30E0261737070CF06AC0BE
:101110008034B0F4A9014E5F5F4F440F551F220F7A
:10112000331FF901EE55FC4FDE01A40FB51F2C91C2
:101130004A0D5B1DDA019C91322F292F30872783BE
:10114000982F8F5FDFCF2A0D3B1DF90120812813D7
:1011500006C0CC0EDD1ED6018C91891709F2F3EE84
:10116000DF2E5CCF6B81462F50E05595479530912F
:10117000B50420E0822F90E084179507E4F4203432
:10118000B8F4880F991FFC01EE55FC4FA5E0B0E0C4
:10119000AC0FBD1FA80FB91F3C91A4E0B0E0AC0F8D
:1011A000BD1F8A0F9B1FDC018C91932F9087878333
:1011B000322F2F5FDFCF3093B50460FF98CF2034FC
:1011C00068F4880F991FFC01EE55FC4F8C0F9D1F92
:1011D000DC0114968C9190E0908787832F5F209399
:1011E000B50485CF9093B50482CFB0EEDB2E16CF39
:1011F000A1EEDA2E13CF9093A3028093A202D11016
:1012000008C08091A9039091AA039093A5028093AE
:10121000A40285E890E00E9468026091A4027091A7
:10122000A50290E080E00E94990E20E030E040E2CC
:1012300051E40E94F80D0E94C50380E890E00E94EE
:101240007503D3950FB6F894DEBF0FBECDBFDF9107
:10125000CF911F910F91FF90EF90DF90CF90BF90B3
:10126000AF909F908F907F906F905F904F903F9046
:101270002F900C94710390939F0280939E02809113
:10128000A9039091AA03DD2011F080E190E09093F2
:10129000A1028093A0028AE690E00E9468028091F9
:1012A000A002811103C00AE812E05AC1813009F49A
:1012B00055C1823009F45AC1833009F45AC18430CF
:1012C00009F45AC1853009F45AC1863009F45AC16B
:1012D000873009F45AC1883009F45AC1893009F4B9
:1012E0005AC18A3009F45AC18B3009F45AC18C3082
:1012F00009F45AC18D3009F45AC18E3009F45AC12B
:101300008F3009F45AC1803109F02AC100E812E097
:1013100027C1E2EFEE2EE1E0FE2EC7010E9464033A
:101320000E9471031092F1028D2D90E0A1E07A16D7
:1013300009F461CFB2E07B1609F49DCF9093A70228
:101340008093A602D11040C08091A9039091AA0376
:101350009093A9028093A8028091AB039091AC0373
:101360009093AB028093AA028091AD039091AE035B
:101370009093AD028093AC028091AF039091B00343
:101380009093AF028093AE028091B1039091B2032B
:101390009093B1028093B0028091B3039091B40313
:1013A0009093B3028093B2028091B5039091B603FB
:1013B0009093B5028093B4028091B7039091B803E3
:1013C0009093B7028093B60287E391E00E9468028F
:1013D0006091A8027091A90290E080E00E94990EAD
:1013E00020E030E040E251E40E94F80D0E94C50385
:1013F00082E391E00E9475038DE191E00E94680212
:101400006091AA027091AB0290E080E00E94990E78
:1014100020E030E040E251E40E94F80D0E94C50354
:1014200088E191E00E94750383E091E00E946802E8
:101430006091AC027091AD0290E080E00E94990E44
:1014400020E030E040E251E40E94F80D0E94C50324
:1014500080E091E00E9475038BEE90E00E946802AC
:101460006091AE027091AF0290E080E00E94990E10
:1014700020E030E040E251E40E94F80D0E94C503F4
:1014800086EE90E00E94750381ED90E00E94680274
:101490006091B0027091B10290E080E00E94990EDC
:1014A00020E030E040E251E40E94F80D0E94C503C4
:1014B0008CEC90E00E94750387EB90E00E9468023C
:1014C0006091B2027091B30290E080E00E94990EA8
:1014D00020E030E040E251E40E94F80D0E94C50394
:1014E00082EB90E00E9475038DE990E00E94680213
:1014F0006091B4027091B50290E080E00E94990E74
:1015000020E030E040E251E40E94F80D0E94C50363
:101510008AE990E094CE73E0E72E72E0F72EFDCEDC
:1015200065E3E62E61E0F62EF8CE53E5E52E51E0B8
:10153000F52EF3CE4FE6E42E41E0F42EEECE3DE85C
:10154000E32E31E0F32EE9CE27EAE22E21E0F22E5F
:10155000E4CE91ECE92E91E0F92EDFCE0FE812E017
:10156000C8010E94640388E690E069CE04E912E0B5
:10157000F7CF0DE112E0F4CF0CE712E0F1CF0AE271
:1015800012E0EECF0AE312E0EBCF06E312E0E8CF81
:1015900002E412E0E5CF06E412E0E2CF0AE412E052
:1015A000DFCF03E512E0DCCF0BE712E0D9CF01E695
:1015B00012E0D6CF06E712E0D3CF01E712E0D0CF9A
:1015C000D3950FB6F894DEBF0FBECDBFDF91CF919C
:1015D0001F910F91FF90EF90DF90CF90BF90AF9051
:1015E0009F908F907F906F905F904F903F902F9043
:1015F00008951F920F920FB60F9211242F933F93CD
:101600004F935F936F937F938F939F93AF93BF930A
:10161000EF93FF9386EF92E00E94F901FF91EF9123
:10162000BF91AF919F918F917F916F915F914F91FA
:101630003F912F910F900FBE0F901F9018951F9202
:101640000F920FB60F9211242F938F939F93EF93C6
:10165000FF93E0910603F09107038081E0910C0372
:10166000F0910D0382FD1BC0908180910F038F5F6D
:101670008F7320911003821741F0E0910F03F0E087
:10168000EA50FD4F958F80930F03FF91EF919F914B
:101690008F912F910F900FBE0F901F901895808102
:1016A000F4CF1F920F920FB60F9211242F933F93F6
:1016B0008F939F93AF93BF938091D9029091DA0259
:1016C000A091DB02B091DC023091D80223E0230F1D
:1016D0002D3758F50196A11DB11D2093D802809396
:1016E000D9029093DA02A093DB02B093DC028091DE
:1016F000DD029091DE02A091DF02B091E00201963E
:10170000A11DB11D8093DD029093DE02A093DF0244
:10171000B093E002BF91AF919F918F913F912F9134
:101720000F900FBE0F901F90189526E8230F02967A
:10173000A11DB11DD2CFE6EFF2E01382128288EE36
:1017400093E0A0E0B0E084839583A683B78388E12B
:1017500091E09183808385EC90E09587848784EC89
:1017600090E09787868780EC90E0918B808B81EC6E
:1017700090E0938B828B82EC90E0958B848B86EC4F
:1017800090E0978B868B118E128E138E148E109292
:10179000B7041092B6041092B9041092B8041092D3
:1017A000BB041092BA04E3E9F3E0118210821382C1
:1017B00012820895789484B5826084BD84B5816076
:1017C00084BD85B5826085BD85B5816085BD80910C
:1017D0006E00816080936E00109281008091810084
:1017E000826080938100809181008160809381007C
:1017F000809180008160809380008091B10084603E
:101800008093B1008091B00081608093B00080919E
:101810007A00846080937A0080917A00826080935D
:101820007A0080917A00816080937A0080917A00BA
:10183000806880937A001092C10061E086E00E9487
:10184000020360E085E00E94020361E083E00E9401
:10185000020381E08093E10294E69093E20298E033
:101860009093E3029BEC9093E40296E09093E50260
:1018700022E02093E6021092E7028093E8021092A1
:10188000E9021092EA0233E03093EB021092EC028C
:101890008093ED021092EE021092EF024AEF52E0B6
:1018A0005093B9044093B8044EEF52E05093BB04F8
:1018B0004093BA0443E954E05093B7044093B6040C
:1018C000E0910603F09107032083E0910203F09179
:1018D00003031082E0910403F09105038FEC8083F1
:1018E00010920E03E0910A03F0910B039083E091B4
:1018F0000803F0910903808180618083E0910803EF
:10190000F0910903808188608083E0910803F09161
:101910000903808180688083E0910803F0910903C6
:1019200080818F7D808387E892E00E94680280E852
:1019300095E20E94140680E892E00E9475030E94DE
:10194000710386E692E00E94750383E592E00E94AF
:10195000680280E091E00E9464030E9471030E948B
:1019600071030E9433034B015C0184ECC82E89E0B3
:10197000D82EE12CF12C0E943303681979098A09C9
:101980009B09683E734081059105A8F321E0C21AC6
:10199000D108E108F10838EE830E33E0931EA11C54
:1019A000B11CC114D104E104F10429F781E0809352
:1019B000F002C0E0D0E00E9458036093F2027093FE
:1019C000F3028093F4029093F5020E9493048091B5
:1019D000F102811131C090E080E00E94440688232A
:1019E00059F180E00E94B5066091F00286E00E9405
:1019F000CC020E945803C090F202D090F302E09013
:101A0000F402F090F5026C157D058E059F0561F1DD
:101A10000E9458036C197D098E099F096431710574
:101A20008105910578F1209731F20E94E501882324
:101A300011F20E940000BFCF8091F102811108C015
:101A400081E090E00E944406882311F081E0CACF33
:101A50008091F1028111C8CF82E090E00E9444069B
:101A6000882311F282E0BECF0E945803A70196019D
:101A7000261B370B480B590BDA01C9014497A10506
:101A8000B10588F60E945803C616D706E806F9067F
:101A900061F00E9458036C197D098E099F09653118
:101AA00071058105910570F3BECF0E945803A7010F
:101AB0009601261B370B480B590BDA01C9014597D4
:101AC000A105B105F8F2AFCFA1E21A2EAA1BBB1BEC
:101AD000FD010DC0AA1FBB1FEE1FFF1FA217B307FA
:101AE000E407F50720F0A21BB30BE40BF50B661F10
:101AF000771F881F991F1A9469F7609570958095D4
:101B000090959B01AC01BD01CF0108955058BB27B2
:101B1000AA270E949E0D0C94110F0E94030F38F00B
:101B20000E940A0F20F039F49F3F19F426F40C9418
:101B3000000F0EF4E095E7FB0C94FA0EE92F0E94DB
:101B4000220F58F3BA17620773078407950720F02E
:101B500079F4A6F50C94440F0EF4E0950B2EBA2FF1
:101B6000A02D0B01B90190010C01CA01A0011124A3
:101B7000FF27591B99F0593F50F4503E68F11A164F
:101B8000F040A22F232F342F4427585FF3CF4695E0
:101B900037952795A795F0405395C9F77EF41F1602
:101BA000BA0B620B730B840BBAF09150A1F0FF0FCC
:101BB000BB1F661F771F881FC2F70EC0BA0F621FB8
:101BC000731F841F48F4879577956795B795F795A8
:101BD0009E3F08F0B0CF9395880F08F09927EE0F3D
:101BE0009795879508950E94D60E08F481E0089590
:101BF0000E940C0E0C94110F0E940A0F58F00E94C4
:101C0000030F40F029F45F3F29F00C94FA0E5111B4
:101C10000C94450F0C94000F0E94220F68F3992337
:101C2000B1F3552391F3951B550BBB27AA276217D8
:101C30007307840738F09F5F5F4F220F331F441FE5
:101C4000AA1FA9F335D00E2E3AF0E0E832D0915019
:101C50005040E695001CCAF72BD0FE2F29D0660F06
:101C6000771F881FBB1F261737074807AB07B0E849
:101C700009F0BB0B802DBF01FF2793585F4F3AF04F
:101C80009E3F510578F00C94FA0E0C94450F5F3F7F
:101C9000E4F3983ED4F3869577956795B795F795D5
:101CA0009F5FC9F7880F911D9695879597F90895BD
:101CB000E1E0660F771F881FBB1F62177307840759
:101CC000BA0720F0621B730B840BBA0BEE1F88F768
:101CD000E09508950E942A0F88F09F5798F0B92F39
:101CE0009927B751B0F0E1F0660F771F881F991F51
:101CF0001AF0BA95C9F714C0B13091F00E94440FA0
:101D0000B1E008950C94440F672F782F8827B85FAF
:101D100039F0B93FCCF3869577956795B395D9F7A8
:101D20003EF490958095709561957F4F8F4F9F4FB2
:101D30000895E89409C097FB3EF4909580957095BE
:101D400061957F4F8F4F9F4F9923A9F0F92F96E907
:101D5000BB279395F695879577956795B795F1117C
:101D6000F8CFFAF4BB0F11F460FF1BC06F5F7F4F19
:101D70008F4F9F4F16C0882311F096E911C077232B
:101D800021F09EE8872F762F05C0662371F096E834
:101D9000862F70E060E02AF09A95660F771F881F03
:101DA000DAF7880F9695879597F90895990F0008A7
:101DB000550FAA0BE0E8FEEF16161706E807F9071D
:101DC000C0F012161306E407F50798F0621B730BB8
:101DD000840B950B39F40A2661F0232B242B252B39
:101DE00021F408950A2609F4A140A6958FEF811DDC
:101DF000811D089597F99F6780E870E060E008957D
:101E00009FEF80EC089500240A9416161706180612
:101E10000906089500240A941216130614060506EE
:101E20000895092E0394000C11F4882352F0BB0F7F
:101E300040F4BF2B11F460FF04C06F5F7F4F8F4FE2
:101E40009F4F089557FD9058440F551F59F05F3F1D
:101E500071F04795880F97FB991F61F09F3F79F0CC
:101E600087950895121613061406551FF2CF46954E
:101E7000F1DF08C0161617061806991FF1CF8695D0
:101E80007105610508940895E894BB2766277727B4
:101E9000CB0197F908950E94D60E08F48FEF0895AC
:101EA0000E94630F0C94110F0E94030F38F00E94E0
:101EB0000A0F20F0952311F00C94FA0E0C94000FE9
:101EC00011240C94450F0E94220F70F3959FC1F3CB
:101ED000950F50E0551F629FF001729FBB27F00DD8
:101EE000B11D639FAA27F00DB11DAA1F649F66272D
:101EF000B00DA11D661F829F2227B00DA11D621F7C
:101F0000739FB00DA11D621F839FA00D611D221F35
:101F1000749F3327A00D611D231F849F600D211D19
:101F2000822F762F6A2F11249F5750409AF0F1F09C
:101F300088234AF0EE0FFF1FBB1F661F771F881F05
:101F400091505040A9F79E3F510580F00C94FA0E35
:101F50000C94450F5F3FE4F3983ED4F38695779554
:101F60006795B795F795E7959F5FC1F7FE2B880FAB
:101F7000911D9695879597F908950E94D60E880B26
:101F8000990B0895EE0FFF1F0590F491E02D099431
:041F9000F894FFCFF3
:101F9400323130342E303700C8AF0000983A000098
:101FA40088130000000000001B027B01A8018302CB
:101FB400D901B701CB010D0A006E616E00696E662E
:101FC400006F766600307830323A204D425F494CDB
:101FD4004C4547414C5F444154415F414444524560
:101FE400535300307830333A204D425F494C4C45CE
:101FF40047414C5F444154415F56414C5545003084
:102004007830343A204D425F534C4156455F444545
:10201400564943455F4641494C5552450030784541
:10202400303A204D425F494E56414C49445F534C2F
:102034004156455F494400307845313A204D425F6E
:10204400494E56414C49445F46554E4354494F4EC0
:1020540000307845323A204D425F524553504F4E3E
:1020640053455F54494D45445F4F555400307845BE
:10207400333A204D425F494E56414C49445F4352E6
:102084004300307830303A204D425F535543434546
:10209400535300307830313A204D425F494C4C451F
:1020A40047414C5F46554E4354494F4E00455354A7
:1020B4005F4E4F52445F455354004553545F53554C
:1020C400445F455354005355445F5355445F45534F
:1020D4005400535544005355445F5355445F57458A
:1020E400535400574553545F5355445F5745535415
:1020F400004F564553545F4E4F52445F5745535417
:10210400004E4F52445F4E4F52445F574553540064
:102114004E4F545F56414C4944004E4F5244004E7A
:0E2124004F52445F4E4F52445F4553540000EB
:00000001FF
