:100000000C9488000C94B0000C94B0000C94B000D8
:100010000C94B0000C94B0000C94B0000C94B000A0
:100020000C94B0000C94B0000C94B0000C94B00090
:100030000C94B0000C94B0000C94B0000C94B00080
:100040000C94DB020C94B0000C94A9020C94830273
:100050000C94B0000C94B0000C94B0000C94B00060
:100060000C94B0000C94B0000000000024002700A5
:100070002A0000000000250028002B0000000000DE
:1000800023002600290004040404040404040202DA
:100090000202020203030303030301020408102007
:1000A0004080010204081020010204081020000012
:1000B0000008000201000003040700000000000027
:1000C0000000536F6674776172652076657273699C
:1000D0006F6E3A20004D41494E20574541544552DC
:1000E0002053544154494F4E20424F415244002026
:1000F0006269742F73005374617274206D6F64624F
:1001000075732F73657269616C206174200025031B
:1001100011241FBECFEFD8E0DEBFCDBF11E0A0E0BD
:10012000B1E0E4EBFDE002C005900D92AE31B10705
:10013000D9F723E0AEE1B1E001C01D92A430B207CF
:10014000E1F710E0C8E8D0E004C02197FE010E946A
:10015000D206C738D107C9F70E9464030C94D806A9
:100160000C940000AF92BF92CF92DF92EF92FF9279
:100170000F931F93CF93DF936C017B018B01040FCF
:10018000151FEB015E01AE18BF08C017D10759F06B
:100190006991D601ED91FC910190F081E02DC601AD
:1001A0000995892B79F7C501DF91CF911F910F91A7
:1001B000FF90EF90DF90CF90BF90AF900895FC013B
:1001C000538D448D252F30E0842F90E0821B930BBC
:1001D000541710F0CF96089501970895FC01918D62
:1001E000828D981761F0A28DAE0FBF2FB11D5D9665
:1001F0008C91928D9F5F9F73928F90E008958FEF07
:100200009FEF0895FC01918D828D981731F0828DBA
:10021000E80FF11D858D90E008958FEF9FEF089511
:10022000FC01918D228D892F90E0805C9F4F821B75
:1002300091098F73992708958EE391E00E94100130
:1002400021E0892B09F420E0822F089580E090E0DE
:10025000892B29F00E941C0181110C940000089543
:10026000FC01A48DA80FB92FB11DA35ABF4F2C912B
:10027000848D90E001968F739927848FA689B78922
:100280002C93A089B1898C91837080648C93938D19
:10029000848D981306C00288F389E02D80818F7DBC
:1002A00080830895EF92FF920F931F93CF93DF9374
:1002B000EC0181E0888F9B8D8C8D98131AC0E889A2
:1002C000F989808185FF15C09FB7F894EE89FF8971
:1002D0006083E889F98980818370806480839FBF0F
:1002E00081E090E0DF91CF911F910F91FF90EF900F
:1002F0000895F62E0B8D10E00F5F1F4F0F7311271F
:10030000E02E8C8D8E110CC00FB607FCFACFE88959
:10031000F989808185FFF5CFCE010E943001F1CFB0
:10032000EB8DEC0FFD2FF11DE35AFF4FF0829FB7CD
:10033000F8940B8FEA89FB8980818062CFCF0F937D
:100340001F93CF93DF938C01D0E0C0E0F801EC0F56
:10035000FD1F6491662341F08EE391E00E945201FB
:10036000892B11F02196F2CFCE01DF91CF911F9111
:100370000F910895CF93DF93EC01888D8823B9F016
:10038000AA89BB89E889F9898C9185FD03C08081A0
:1003900086FD0DC00FB607FCF7CF8C9185FFF2CF1D
:1003A000808185FFEDCFCE010E943001E9CFDF9142
:1003B000CF910895833081F028F4813099F0823014
:1003C000A9F008958730A9F08830C9F08430B1F4DD
:1003D000809180008F7D03C0809180008F77809313
:1003E0008000089584B58F7784BD089584B58F7D8E
:1003F000FBCF8091B0008F778093B00008958091FB
:10040000B0008F7DF9CF1F93CF93DF93282F30E07B
:10041000F901E255FF4F8491F901E656FF4FD4915F
:10042000F901EA57FF4FC491CC23A9F0162F81118F
:100430000E94DA01EC2FF0E0EE0FFF1FEE58FF4FA5
:10044000A591B4918FB7F894EC91111108C0D09593
:10045000DE23DC938FBFDF91CF911F910895DE2BB8
:10046000F8CF61E083E00C94030260E083E00C9439
:100470000302CF93DF9390E0FC01E656FF4F2491F7
:100480008A579F4FFC0184918823D1F090E0880F18
:10049000991FFC01E859FF4FA591B491FC01EE585A
:1004A000FF4FC591D49161110EC09FB7F8948C9104
:1004B000E22FE0958E238C932881E223E8839FBF6F
:1004C000DF91CF9108958FB7F894EC91E22BEC93E4
:1004D0008FBFF6CF2FB7F89460912301709124015C
:1004E00080912501909126012FBF0895FC01019074
:1004F0000020E9F73197AF01481B590BBC018EE38F
:1005000091E00C94B2001F920F920FB60F9211243B
:100510002F933F934F935F936F937F938F939F930B
:10052000AF93BF93EF93FF938EE391E00E9430016E
:10053000FF91EF91BF91AF919F918F917F916F91BB
:100540005F914F913F912F910F900FBE0F901F9091
:1005500018951F920F920FB60F9211242F938F931D
:100560009F93EF93FF93E0914E01F0914F018081B3
:10057000E0915401F091550182FD1BC09081809162
:1005800057018F5F8F7320915801821741F0E091DE
:100590005701F0E0E25CFE4F958F80935701FF9189
:1005A000EF919F918F912F910F900FBE0F901F9001
:1005B00018958081F4CF1F920F920FB60F921124DD
:1005C0002F933F938F939F93AF93BF93809123017A
:1005D00090912401A0912501B09126013091220132
:1005E00023E0230F2D3758F50196A11DB11D20934F
:1005F00022018093230190932401A0932501B093BD
:10060000260180911E0190911F01A0912001B091BF
:1006100021010196A11DB11D80931E0190931F0120
:10062000A0932001B0932101BF91AF919F918F9131
:100630003F912F910F900FBE0F901F90189526E8B5
:10064000230F0296A11DB11DD2CFEEE3F1E013827C
:10065000128288EE93E0A0E0B0E084839583A683C5
:10066000B7838CE091E09183808385EC90E095875F
:10067000848784EC90E09787868780EC90E0918B6C
:10068000808B81EC90E0938B828B82EC90E0958B59
:10069000848B86EC90E0978B868B118E128E138E56
:1006A000148E1092FF021092FE021092010310921B
:1006B00000031092030310920203EBEDF1E01182AC
:1006C0001082138212820895CF93DF93CDB7DEB7E5
:1006D000DA950FB6F894DEBF0FBECDBF789484B51F
:1006E000826084BD84B5816084BD85B5826085BD2E
:1006F00085B5816085BD80916E00816080936E00BC
:1007000010928100809181008260809381008091AD
:10071000810081608093810080918000816080935E
:1007200080008091B10084608093B1008091B0001E
:1007300081608093B00080917A00846080937A0019
:1007400080917A00826080937A0080917A00816043
:1007500080937A0080917A00806880937A0010926A
:10076000C10061E086E00E94390260E085E00E94FD
:10077000390261E083E00E943902E3EBF0E084910A
:10078000EFE9F0E0E491EBE8F0E01491112361F07F
:1007900081110E94DA01E12FF0E0EE0FFF1FE45813
:1007A000FF4FA591B4918C9181E080932C0124E6B8
:1007B00030E030932E0120932D0128E030E030937B
:1007C000300120932F018093310110923301109258
:1007D000320121E030E030933501209334018093E1
:1007E0003601109238011092370130933A0120936C
:1007F0003901E0914E01F0914F0182E08083E09158
:100800004A01F0914B011082E0914C01F0914D01B1
:100810008FEC808310925601E0915201F0915301C8
:1008200086E08083E0915001F091510180818061E8
:100830008083E0915001F091510180818860808334
:10084000E0915001F0915101808180688083E091B6
:100850005001F091510180818F7D808386EF90E07F
:100860000E949F0119A28E010F5D1F4F20E835E203
:1008700040E050E0FAE08F2E912CA12CB12C7E01AB
:100880008DE1E80EF11CCA01B901A50194010E9495
:10089000B006605DD8016E938D01AE15BF0599F766
:1008A000CD010E9476028FEE90E00E949F018AE1C6
:1008B00091E00E9476028AE191E00E94760285ED45
:1008C00090E00E949F018AE191E00E94760282EC12
:1008D00090E00E949F0180E091E00E9476028AE110
:1008E00091E00E9476028AE191E00E9476026E0118
:1008F000B7E0CB0ED11CE1E36E2EE2E07E2E0E942B
:100900006A0260933A0170933B0180933C0190939B
:100910003D0160E086E00E940302809138019091E1
:1009200039018436910590F50A96909339018093A8
:10093000380160E086E00E9403020E946A024B01D7
:100940005C0120903A0130903B0140903C01509076
:100950003D0182149304A404B50409F4F3C10E9478
:100960006A0262197309840995096B307105810562
:10097000910518F380E090E0892B09F20E941C0198
:10098000882309F4BCCF0E940000B5CF1092390132
:1009900010923801E1E0F0E0F0933701E093360186
:1009A00075E3A72E72E0B72E809136019091370142
:1009B000843091050CF0BDCF8093EC012EE331E043
:1009C0003093EB012093EA011092F7021092F902A2
:1009D0001092F8027092010360920003B092030338
:1009E000A092020335E0389FF001399FF00D1124E9
:1009F000E95DFE4F2081222309F40DC193812481FA
:100A0000318142813093ED014093EE019093EF01EB
:100A10002093F001898383E08A834B833C832D8379
:100A20009E838E010F5F1F4FF8018FEF9FEF7801BC
:100A30002191822728E030E0AC014170552796953E
:100A40008795452B21F0A1E08A27A0EA9A2721501B
:100A5000310991F7EC15FD0559F78F8398871986B1
:100A60008091EA019091EB01DC01ED91FC9102840F
:100A7000F385E02D0995019699F7E0910003F09137
:100A80000103309709F009954801E8E08E0E911CAA
:100A90008091EA019091EB01D8016D918D01DC010B
:100AA000ED91FC910190F081E02D09958016910661
:100AB00079F78091EA019091EB01DC01ED91FC91D5
:100AC0000680F781E02D0995E0910203F091030380
:100AD000309709F009950E946A021B012C0110E071
:100AE00008E08091EA019091EB01DC01ED91FC912D
:100AF0000084F185E02D0995892B09F44BC0809184
:100B0000EA019091EB01DC01ED91FC910284F38507
:100B1000E02D0995F701E10FF11D808301501F5F62
:100B2000153009F05EC099818091EC0198136BC07B
:100B3000EA818E2F8F77833009F065C0E7FF33C0DD
:100B40008B81811160C02FEF3FEFA0E0812F90E0FB
:100B5000AC01425051096A2F70E0641775070CF020
:100B6000C6C06E0D7F1DFB016081262768E070E026
:100B7000F901E170FF2736952795EF2B21F0F1E081
:100B80002F27F0EA3F276150710991F7AF5FE3CF5C
:100B900082EE34C0E091FE02F091FF02309709F43A
:100BA000BFCF0995BDCFE350E531D8F4F0E0E55271
:100BB000FA4F0C94D206F005F00517061706F1055A
:100BC000F105F105F105F105F105F105F10517064E
:100BD0001706F105F105F105F105F1051506F0051A
:100BE0000B810E946A026219730984099509613DAB
:100BF00077408105910508F0CBCF80E00023C9F054
:100C0000882309F46ECF1092F7021092F902109225
:100C1000F8021092FC028091360190913701019602
:100C20009093370180933601BFCE05E0DACF03E021
:100C3000D8CF8111E8CF153008F085CF8A81853073
:100C400070F5833078F58130F0F25B81252F30E04C
:100C5000359527956091FD0240E0842F90E0821742
:100C600093070CF052C04034B8F4880F991FFC0170
:100C7000E651FE4FA5E0B0E0AC0FBD1FA80FB91FB5
:100C80006C91A4E0B0E0AC0FBD1F8A0F9B1FDC018C
:100C90008C91962F90878783642F4F5FDECF8731AB
:100CA00009F0B1CF2B8130E0359527958091FD0279
:100CB00040E0E42FF0E0E217F3070CF040C04034CE
:100CC00098F4CF010296880F991FEE0FFF1FE6518F
:100CD000FE4FDE01A80FB91F5C918E0D9F1DDC0138
:100CE0008C91952F90878783842F4F5FE2CF4E0D95
:100CF0005F1DDA014C91421386CF8C0F9D1FFC01C2
:100D00008081831709F49ACF7ECF6093FD0250FF54
:100D10007ACF403480F4880F991FFC01E651FE4FD2
:100D200024E030E02C0F3D1F820F931FDC018C91DB
:100D300090E0908787834F5F4093FD0264CF80935C
:100D4000FD0261CF0E946A02861A970AA80AB90AB0
:100D5000BBE08B169104A104B10408F4EECD0ACED9
:100D6000A1E21A2EAA1BBB1BFD010DC0AA1FBB1FAF
:100D7000EE1FFF1FA217B307E407F50720F0A21B21
:100D8000B30BE40BF50B661F771F881F991F1A948E
:100D900069F760957095809590959B01AC01BD01B8
:100DA000CF010895EE0FFF1F0590F491E02D0994F7
:040DB000F894FFCFE5
:100DB400323130342E303700000000005201B200CE
:0E0DC400DF00BA011001EE0002010D0A00006E
:00000001FF
