:100000000C9416010C943E010C943E010C943E019C
:100010000C943E010C943E010C943E010C943E0164
:100020000C943E010C943E010C943E010C943E0154
:100030000C943E010C943E010C943E010C943E0144
:100040000C9473080C943E010C9441080C941B080A
:100050000C943E010C943E010C943E010C943E0124
:100060000C943E010C943E012025004162736F6C9C
:1000700075746548756D69646974792E2E2E20003B
:1000800020C2B0430048656174496E6465782E2EC5
:100090002E2E2E2E2E2E2E2E200020C2B0430044B7
:1000A0006577506F696E742E2E2E2E2E2E2E2E2ECC
:1000B0002E2E200020C2B043005765742074656D59
:1000C00070657261747572652E2E2E2E20002025AB
:1000D0000048756D69646974792E2E2E2E2E2E2E91
:1000E0002E2E2E2E200020685061005072657373F2
:1000F0007572652E2E2E2E2E2E2E2E2E2E2E20009A
:1001000020C2B043004472792074656D70657261DD
:10011000747572652E2E2E2E2000206D2F730041D7
:10012000637475616C2077696E64207370656564B3
:100130002E2E200020656E756D0057696E64206458
:100140006972656374696F6E2E2E2E2E2E20004DFF
:10015000696C6C69732074696D653A20002E2052B9
:100160006573756C742069732000526571756573D1
:1001700074206D61646520746F20746865206E6FF3
:100180006465200000000000240027002A00000011
:100190000000250028002B0000000000230026009E
:1001A00029000404040404040404020202020202FA
:1001B000030303030303010204081020408001022B
:1001C00004081020010204081020000000080002AA
:1001D0000100000304070000000000000000536F4E
:1001E0006674776172652076657273696F6E3A2006
:1001F000004D41494E2057454154455220535441EA
:1002000054494F4E20424F41524400206269742F9E
:1002100073005374617274206D6F646275732F7311
:10022000657269616C2061742000BD0811241FBED5
:10023000CFEFD8E0DEBFCDBF12E0A0E0B1E0E8E252
:10024000FBE102C005900D92AA31B107D9F724E075
:10025000AAE1B2E001C01D92AF31B207E1F711E0AF
:10026000C6E1D1E004C02197FE010E948C0DC5318A
:10027000D107C9F70E94FC080C94920D0C94000061
:10028000AF92BF92CF92DF92EF92FF920F931F93A4
:10029000CF93DF936C017B018B01040F151FEB01E2
:1002A0005E01AE18BF08C017D10759F06991D60199
:1002B000ED91FC910190F081E02DC6010995892B0B
:1002C00079F7C501DF91CF911F910F91FF90EF90CA
:1002D000DF90CF90BF90AF900895FC01538D448D77
:1002E000252F30E0842F90E0821B930B541710F0E1
:1002F000CF96089501970895FC01918D828D9817EE
:1003000061F0A28DAE0FBF2FB11D5D968C91928DC5
:100310009F5F9F73928F90E008958FEF9FEF0895F6
:10032000FC01918D828D981731F0828DE80FF11DBF
:10033000858D90E008958FEF9FEF0895FC01918DDA
:10034000228D892F90E0805C9F4F821B91098F73D3
:100350009927089589E592E00E949E0121E0892B6A
:1003600009F420E0822F089580E090E0892B29F0A5
:100370000E94AA0181110C9400000895FC01A48D33
:10038000A80FB92FB11DA35ABF4F2C91848D90E0B7
:1003900001968F739927848FA689B7892C93A0899A
:1003A000B1898C91837080648C93938D848D981324
:1003B00006C00288F389E02D80818F7D80830895B7
:1003C000EF92FF920F931F93CF93DF93EC0181E0A5
:1003D000888F9B8D8C8D98131AC0E889F98980814C
:1003E00085FF15C09FB7F894EE89FF896083E8897F
:1003F000F98980818370806480839FBF81E090E071
:10040000DF91CF911F910F91FF90EF900895F62EFD
:100410000B8D10E00F5F1F4F0F731127E02E8C8D97
:100420008E110CC00FB607FCFACFE889F9898081DC
:1004300085FFF5CFCE010E94BE01F1CFEB8DEC0F11
:10044000FD2FF11DE35AFF4FF0829FB7F8940B8FF9
:10045000EA89FB8980818062CFCF0F931F93CF936E
:10046000DF938C01D0E0C0E0F801EC0FFD1F649138
:10047000662341F089E592E00E94E001892B11F0AA
:100480002196F2CFCE01DF91CF911F910F91089568
:10049000CF93DF93EC01888D8823B9F0AA89BB89BB
:1004A000E889F9898C9185FD03C0808186FD0DC0A6
:1004B0000FB607FCF7CF8C9185FFF2CF808185FFC7
:1004C000EDCFCE010E94BE01E9CFDF91CF9108951B
:1004D000833081F028F4813099F08230A9F00895BA
:1004E0008730A9F08830C9F08430B1F48091800061
:1004F0008F7D03C0809180008F7780938000089566
:1005000084B58F7784BD089584B58F7DFBCF8091AE
:10051000B0008F778093B00008958091B0008F7DF8
:10052000F9CF1F93CF93DF93282F30E0F901E653E3
:10053000FE4F8491F901EA54FE4FD491F901EE5532
:10054000FE4FC491CC23A9F0162F81110E9468029E
:10055000EC2FF0E0EE0FFF1FE257FE4FA591B49194
:100560008FB7F894EC91111108C0D095DE23DC937D
:100570008FBFDF91CF911F910895DE2BF8CF61E0FF
:1005800083E00C94910260E083E00C949102CF939D
:10059000DF9390E0FC01EA54FE4F24918E559E4F6C
:1005A000FC0184918823D1F090E0880F991FFC0111
:1005B000EC57FE4FA591B491FC01E257FE4FC59157
:1005C000D49161110EC09FB7F8948C91E22FE09501
:1005D0008E238C932881E223E8839FBFDF91CF9104
:1005E00008958FB7F894EC91E22BEC938FBFF6CF80
:1005F0003FB7F8948091390290913A02A0913B0262
:10060000B0913C0226B5A89B05C02F3F19F001967A
:10061000A11DB11D3FBFBA2FA92F982F8827BC015C
:10062000CD01620F711D811D911D42E0660F771F84
:10063000881F991F4A95D1F708952FB7F8946091B4
:1006400035027091360280913702909138022FBFA7
:100650000895FC0101900020E9F73197AF01481B94
:10066000590BBC0189E592E00C9440018DE191E0C9
:100670000C942903CF93DF930E942D02EC010E947A
:1006800036038C0F9D1FDF91CF9108958F929F921B
:10069000AF92BF920F931F93CF93DF93CDB7DEB787
:1006A000A1970FB6F894DEBF0FBECDBF19A242309E
:1006B00008F44AE08E010F5D1F4F842E912CB12C5F
:1006C000A12CA50194010E942E0BE62FB901CA01AD
:1006D000EA30F4F4E05DD801EE938D01232B242B56
:1006E000252B79F790E080E0109719F0CD010E945A
:1006F0002903A1960FB6F894DEBF0FBECDBFDF91E0
:10070000CF911F910F91BF90AF909F908F900895C0
:10071000E95CE1CF4F925F926F927F928F929F92AE
:10072000AF92BF92CF92DF92EF92FF920F931F93FF
:10073000CF936B017C01742EAC019B010E94870D4D
:10074000882399F080E291E0CF911F910F91FF9063
:10075000EF90DF90CF90BF90AF909F908F907F9061
:100760006F905F904F900C94290346015701E894D5
:10077000B7F82FEF3FEF4FE75FE7C501B4010E94E5
:10078000870D81110DC02FEF3FEF4FE75FE7C501E8
:10079000B4010E94BD0B18161CF484E291E0D4CF82
:1007A0002FEF3FEF4FE75FE4C701B6010E94150D41
:1007B00018161CF488E291E0C7CF2FEF3FEF4FE708
:1007C0005FECC701B6010E94BD0B87FDF3CF20E0AF
:1007D00030E0A901C701B6010E94BD0B10E000E0A6
:1007E00087FF0AC06DE289E592E00E94E0018C017A
:1007F000F7FAF094F7F8F094C0E060E070E080E081
:100800009FE37C1641F020E030E040E251E40E949A
:10081000C20BCF5FF6CFA70196010E94510B2B01AF
:100820003C010E94340C4B015C014AE00E944603EB
:100830007C01E00EF11ECC23C1F1C501B4010E9480
:10084000630C9B01AC01C301B2010E94500B4B0130
:100850005C016EE289E592E00E94E001E80EF91E7B
:10086000C15018F120E030E040E251E4C501B4018C
:100870000E941A0D2B013C010E94340C4B01B12C3B
:10088000A12C4AE0C501B4010E944603E80EF91EFE
:10089000C501B4010E94630C9B01AC01C301B2010C
:1008A0000E94500B4B015C01DBCFC701CF911F9120
:1008B0000F91FF90EF90DF90CF90BF90AF909F90FF
:1008C0008F907F906F905F904F9008954F925F92BE
:1008D0006F927F92AF92BF92CF92DF92EF92FF9290
:1008E0000F931F93CF93DF93CDB7DEB7DA950FB693
:1008F000F894DEBF0FBECDBF282F30E0F901EE0F18
:10090000FF1FDF01A20FB31FA35CBD4F9C91992372
:1009100009F47CC391E090934802D901A85FBE4FCF
:10092000DC90D092070349E552E0509306034093D0
:100930000503109212041092140410921304ACE0F8
:10094000B3E04CE853E01D921D924A175B07D9F7BC
:10095000E20FF31FE35CFD4F92812181422F50E0B3
:100960005093090340930803492F50E050930B0321
:1009700040930A03D98233E03A831B822C831D8281
:100980009E838E010F5F1F4FBE01695F7F4FF8018D
:100990002FEF3FEF58019191292748E050E0D9010E
:1009A000A170BB2736952795AB2B21F091E0292725
:1009B00090EA39274150510991F76E177F0759F78F
:1009C000C82E2F83388719868091050390910603DE
:1009D000DC01ED91FC910284F385E02D09950196EF
:1009E00099F7E0911B04F0911C04309709F00995E8
:1009F0003801E8E06E0E711C8091050390910603AA
:100A0000D8016D918D01DC01ED91FC910190F08197
:100A1000E02D09950615170579F78091050390914A
:100A20000603DC01ED91FC910680F781E02D09952C
:100A3000E0911D04F0911E04309709F009950E9481
:100A40001D032B013C0118E000E08091050390910B
:100A50000603DC01ED91FC910084F185E02D099500
:100A6000892B09F45CC18091050390910603DC0198
:100A7000ED91FC910284F385E02D0995F501E00FDD
:100A8000F11D808311500F5F053009F06FC199810E
:100A900080910703981321C2EA818E2F8F778330CC
:100AA00009F01DC2E7FF44C11B81112309F46EC187
:100AB000109212041092140410921304109217044E
:100AC000812F90E0B1E0CB1609F40DC2E2E0CE1622
:100AD00009F42CC290932302809322021111EEC0DC
:100AE000A0900C03B0900D03B0922502A0922402B6
:100AF00080910E0390910F0390932702809326021A
:100B00008091100390911103909329028093280201
:100B1000809112039091130390932B0280932A02E9
:100B2000809114039091150390932D0280932C02D1
:100B3000809116039091170390932F0280932E02B9
:100B400080911803909119039093310280933002A1
:100B500080911A0390911B03909333028093320289
:100B600085E091E00E942D02B50190E080E00E94B6
:100B7000630C20E030E040E251E40E94C20B42E00E
:100B80000E948A0380E091E00E943A038BEE90E09D
:100B90000E942D02609126027091270290E080E071
:100BA0000E94630C20E030E040E251E40E94C20B5E
:100BB00042E00E948A0386EE90E00E943A0381EDB3
:100BC00090E00E942D02609128027091290290E02D
:100BD00080E00E94630C20E030E040E251E40E949B
:100BE000C20B42E00E948A038EEC90E00E943A031E
:100BF00089EB90E00E942D0260912A0270912B02F5
:100C000090E080E00E94630C20E030E040E251E49C
:100C10000E94C20B42E00E948A0384EB90E00E9493
:100C20003A038FE990E00E942D0260912C027091AE
:100C30002D0290E080E00E94630C20E030E040E272
:100C400051E40E94C20B42E00E948A038AE990E0CC
:100C50000E943A0385E890E00E942D0260912E02E6
:100C600070912F0290E080E00E94630C20E030E061
:100C700040E251E40E94C20B42E00E948A0380E8F5
:100C800090E00E943A038BE690E00E942D02609172
:100C900030027091310290E080E00E94630C20E00D
:100CA00030E040E251E40E94C20B42E00E948A031D
:100CB00088E690E00E943A030E94360310924802B0
:100CC0008AE691E00E942D026D2D70E090E080E0B8
:100CD0004AE00E9446038DE591E00E942D02112317
:100CE00009F43FC1113009F46EC1123009F470C12A
:100CF000133009F472C1143009F474C1103E09F4C0
:100D000076C1113E09F478C1123E09F47AC1133E4E
:100D100009F02BC185EDE82E81E0F82E26C1E09187
:100D20001904F0911A04309709F4AECE0995ACCEAF
:100D3000E350E531D8F4F0E0E056F94F0C948C0D17
:100D4000B506B506EC06EC06B606B606B606B60659
:100D5000B606B606B606B606EC06EC06B606B60647
:100D6000B606B606B606EA06B5061B810E941D0346
:100D70006419750986099709613D774081059105D8
:100D800008F0AFC0111161CE053040F18FEF9FEF39
:100D900060E010E0980122503109462F50E04217E0
:100DA00053070CF04CC04A0D5B1DFA0140818427AB
:100DB00048E050E0FC01E170FF2796958795EF2B06
:100DC00021F0F1E08F27F0EA9F274150510991F778
:100DD0006F5FE3CF15E0CACF13E0C8CF8A818530BB
:100DE00030F4833030F48130C0F510E061CE8731CB
:100DF000E1F76B8170E0759567958091180420E0AC
:100E0000422F50E0461757070CF064C02034A0F47E
:100E1000CA010296880F991F440F551FFA01EB5F14
:100E2000FC4FDE01A80FB91F3C918A0D9B1DDC0110
:100E30008C91932F90878783822F2F5FE1CF2A0D8C
:100E40003B1DD9012C91281306C00C0F1D1FF80162
:100E50008081891719F213EE2BCE6B81462F50E05B
:100E6000559547959091180480E0282F30E024177D
:100E70003507E4F48034B8F4220F331FF901EB5F37
:100E8000FC4FA5E0B0E0AC0FBD1FA20FB31F9C91BB
:100E9000A4E0B0E0AC0FBD1F2A0F3B1FD9012C917D
:100EA000392F30872783982F8F5FDFCF90931804D7
:100EB00060FF9BCF803468F4220F331FF901EB5F92
:100EC000FC4F2C0F3D1FD90114962C9130E0308738
:100ED00027838F5F8093180488CF10EEE9CD11EE41
:100EE000E7CD12EEE5CD90931F0280931E02111103
:100EF000E5CEA0900C03B0900D03B0922102A09219
:100F000020028FE191E00E942D02B50190E080E087
:100F10000E94630C20E030E040E251E40E94C20BEA
:100F200042E00E948A038AE191E0C4CE90931B02C2
:100F300080931A021111C2CEA0900C03B0900D0341
:100F4000B0921D02A0921C028AE391E00E942D0241
:100F5000B50190E080E04AE00E94460384E391E01E
:100F6000A9CEEBEEEE2EE1E0FE2EC7010E94290392
:100F70000E9436038FE491E00E942D020E941D031F
:100F80000E94630C20E030E04AE754E40E94C20B68
:100F900042E00E948A030E943603D3950FB6F8946C
:100FA000DEBF0FBECDBFDF91CF911F910F91FF909C
:100FB000EF90DF90CF90BF90AF907F906F905F9059
:100FC0004F900C9436037EEFE72E71E0F72ECDCFD5
:100FD0006CE2E62E61E0F62EC8CF5AE4E52E51E031
:100FE000F52EC3CF46E6E42E41E0F42EBECF34E822
:100FF000E32E31E0F32EB9CF2EE9E22E21E0F22EDE
:10100000B4CF99EBE92E91E0F92EAFCFD3950FB67F
:10101000F894DEBF0FBECDBFDF91CF911F910F912E
:10102000FF90EF90DF90CF90BF90AF907F906F9048
:101030005F904F9008951F920F920FB60F92112458
:101040002F933F934F935F936F937F938F939F93D0
:10105000AF93BF93EF93FF9389E592E00E94BE01A7
:10106000FF91EF91BF91AF919F918F917F916F9180
:101070005F914F913F912F910F900FBE0F901F9056
:1010800018951F920F920FB60F9211242F938F93E2
:101090009F93EF93FF93E0916902F0916A02808140
:1010A000E0916F02F091700282FD1BC090818091EF
:1010B00072028F5F8F7320917302821741F0E0916B
:1010C0007202F0E0E75AFD4F958F80937202FF9114
:1010D000EF919F918F912F910F900FBE0F901F90C6
:1010E00018958081F4CF1F920F920FB60F921124A2
:1010F0002F933F938F939F93AF93BF93809135022C
:1011000090913602A0913702B091380230913402AA
:1011100023E0230F2D3758F50196A11DB11D209313
:1011200034028093350290933602A0933702B09335
:1011300038028091390290913A02A0913B02B0911D
:101140003C020196A11DB11D8093390290933A0291
:10115000A0933B02B0933C02BF91AF919F918F91BE
:101160003F912F910F900FBE0F901F90189526E87A
:10117000230F0296A11DB11DD2CFE9E5F2E0138243
:10118000128288EE93E0A0E0B0E084839583A6838A
:10119000B7838FE091E09183808385EC90E0958721
:1011A000848784EC90E09787868780EC90E0918B31
:1011B000808B81EC90E0938B828B82EC90E0958B1E
:1011C000848B86EC90E0978B868B118E128E138E1B
:1011D000148E10921A041092190410921C0410928A
:1011E0001B0410921E0410921D04E6EFF2E011821F
:1011F0001082138212820895789484B5826084BD2F
:1012000084B5816084BD85B5826085BD85B581600A
:1012100085BD80916E00816080936E001092810088
:101220008091810082608093810080918100816043
:101230008093810080918000816080938000809104
:10124000B10084608093B1008091B0008160809390
:10125000B00080917A00846080937A0080917A0057
:10126000826080937A0080917A00816080937A0016
:1012700080917A00806880937A001092C10061E0CA
:1012800086E00E94C70260E085E00E94C70261E03C
:1012900083E00E94C702EFECF1E08491EBEBF1E018
:1012A000E491E7EAF1E0C491CC2361F081110E945E
:1012B0006802EC2FF0E0EE0FFF1FE856FE4FA591FD
:1012C000B4918C9181E080933D0294E690933E022C
:1012D00098E090933F0280934002109241028093E5
:1012E00042028093430210924402809345028FEBA6
:1012F00092E090931C0480931B0483EC92E0909303
:101300001E0480931D04E0916902F0916A0282E05C
:101310008083E0916502F09166021082E09167029D
:10132000F09168028FEC808310927102E0916D025F
:10133000F0916E0286E08083E0916B02F0916C0286
:10134000808180618083E0916B02F0916C028081EA
:1013500088608083E0916B02F0916C0280818068EC
:101360008083E0916B02F0916C0280818F7D80839D
:1013700082E192E00E942D024AE060E875E280E09E
:1013800090E00E9446038BE092E00E943A030E94A4
:10139000360381EF91E00E943A038EED91E00E94C6
:1013A0002D0280E091E00E9429030E9436030E94F2
:1013B00036030E94F8024B015C0184ECC82E89E0E0
:1013C000D82EE12CF12C0E94F802681979098A09BB
:1013D0009B09683E734081059105A8F321E0C21A7C
:1013E000D108E108F10838EE830E33E0931EA11C0A
:1013F000B11CC114D104E104F10429F781E090E0AB
:101400009093470280934602C0E0D0E00E941D0303
:10141000609355027093560280935702909358023E
:10142000C0904902D0904A02E0904B02F0904C02EA
:10143000C114D104E104F10491F4809148028111B6
:1014400020C00E941D036093490270934A0280935A
:101450004B0290934C0280E00E94660473C00E948D
:101460001D03C616D706E806F90641F10E941D03C2
:101470006C197D098E099F0968397A4381059105A8
:10148000E0F6C0904D02D0904E02E0904F02F090F6
:101490005002C114D104E104F104F9F4809148022E
:1014A00081112EC00E941D0360934D0270934E0265
:1014B00080934F029093500281E0CECF0E941D0393
:1014C000C61AD70AE80AF90A88E9C8168AE3D806CC
:1014D000E104F10408F0B1CFD4CF0E941D03C61679
:1014E000D706E806F90609F459C00E941D036C19D5
:1014F0007D098E099F09683873418105910570F651
:10150000C0905102D0905202E0905302F0905402E9
:10151000C114D104E104F10409F45DC00E941D036B
:10152000C616D706E806F90609F447C00E941D034F
:101530006C197D098E099F096838734181059105F1
:1015400008F049C06091460286E00E9491020E9424
:101550001D03C0905502D0905602E0905702F090C3
:1015600058026C157D058E059F0509F444C00E9444
:101570001D036C197D098E099F096436710581056B
:10158000910508F448C0209709F440CF0E94AA01B1
:10159000882309F43BCF0E94000038CF0E941D032E
:1015A000C61AD70AE80AF90A38E8C31633E1D3069F
:1015B000E104F10408F072CFA3CF0E941D03C61A04
:1015C000D70AE80AF90A58E8C51653E1D506E10436
:1015D000F10408F4B7CF809148028111B3CF0E9483
:1015E0001D036093510270935202809353029093B3
:1015F000540282E031CF0E941D03A7019601261BF1
:10160000370B480B590BDA01C90184369105A10546
:10161000B10508F0B8CF0E941D03C616D706E8062C
:10162000F90661F00E941D036C197D098E099F095E
:10163000653671058105910570F3A5CF0E941D03E4
:10164000A7019601261B370B480B590BDA01C9017C
:1016500085369105A105B105F0F295CFA1E21A2ECC
:10166000AA1BBB1BFD010DC0AA1FBB1FEE1FFF1F46
:10167000A217B307E407F50720F0A21BB30BE40B96
:10168000F50B661F771F881F991F1A9469F76095DD
:101690007095809590959B01AC01BD01CF01089597
:1016A0005058BB27AA270E94680B0C94DB0C0E94A1
:1016B000CD0C38F00E94D40C20F039F49F3F19F47F
:1016C00026F40C94CA0C0EF4E095E7FB0C94C40CC1
:1016D000E92F0E94EC0C58F3BA17620773078407CE
:1016E000950720F079F4A6F50C940E0D0EF4E09514
:1016F0000B2EBA2FA02D0B01B90190010C01CA01CC
:10170000A0011124FF27591B99F0593F50F4503E76
:1017100068F11A16F040A22F232F342F4427585F68
:10172000F3CF469537952795A795F0405395C9F780
:101730007EF41F16BA0B620B730B840BBAF0915038
:10174000A1F0FF0FBB1F661F771F881FC2F70EC0D7
:10175000BA0F621F731F841F48F4879577956795AA
:10176000B795F7959E3F08F0B0CF9395880F08F096
:101770009927EE0F9795879508950E94A00C08F47D
:1017800081E008950E94D60B0C94DB0C0E94D40CCF
:1017900058F00E94CD0C40F029F45F3F29F00C94E2
:1017A000C40C51110C940F0D0C94CA0C0E94EC0C3B
:1017B00068F39923B1F3552391F3951B550BBB2780
:1017C000AA2762177307840738F09F5F5F4F220FC5
:1017D000331F441FAA1FA9F335D00E2E3AF0E0E8BC
:1017E00032D091505040E695001CCAF72BD0FE2F06
:1017F00029D0660F771F881FBB1F2617370748079A
:10180000AB07B0E809F0BB0B802DBF01FF27935851
:101810005F4F3AF09E3F510578F00C94C40C0C9445
:101820000F0D5F3FE4F3983ED4F386957795679567
:10183000B795F7959F5FC9F7880F911D9695879586
:1018400097F90895E1E0660F771F881FBB1F6217A5
:1018500073078407BA0720F0621B730B840BBA0B63
:10186000EE1F88F7E09508950E94F40C88F09F57CA
:1018700098F0B92F9927B751B0F0E1F0660F771FB4
:10188000881F991F1AF0BA95C9F714C0B13091F0AA
:101890000E940E0DB1E008950C940E0D672F782F65
:1018A0008827B85F39F0B93FCCF38695779567956F
:1018B000B395D9F73EF490958095709561957F4FDB
:1018C0008F4F9F4F0895E89409C097FB3EF4909581
:1018D0008095709561957F4F8F4F9F4F9923A9F009
:1018E000F92F96E9BB279395F69587957795679598
:1018F000B795F111F8CFFAF4BB0F11F460FF1BC0DC
:101900006F5F7F4F8F4F9F4F16C0882311F096E96E
:1019100011C0772321F09EE8872F762F05C066231C
:1019200071F096E8862F70E060E02AF09A95660FD5
:10193000771F881FDAF7880F9695879597F908958E
:10194000990F0008550FAA0BE0E8FEEF16161706D0
:10195000E807F907C0F012161306E407F50798F038
:10196000621B730B840B950B39F40A2661F0232B51
:10197000242B252B21F408950A2609F4A140A695CD
:101980008FEF811D811D089597F99F6780E870E0B2
:1019900060E008959FEF80EC089500240A941616E5
:1019A000170618060906089500240A94121613064D
:1019B000140605060895092E0394000C11F48823DB
:1019C00052F0BB0F40F4BF2B11F460FF04C06F5FF7
:1019D0007F4F8F4F9F4F089557FD9058440F551FCD
:1019E00059F05F3F71F04795880F97FB991F61F0A1
:1019F0009F3F79F087950895121613061406551F18
:101A0000F2CF4695F1DF08C0161617061806991F83
:101A1000F1CF86957105610508940895E894BB2778
:101A200066277727CB0197F908950E94A00C08F448
:101A30008FEF08950E942D0D0C94DB0C0E94CD0CAD
:101A400038F00E94D40C20F0952311F00C94C40CB3
:101A50000C94CA0C11240C940F0D0E94EC0C70F322
:101A6000959FC1F3950F50E0551F629FF001729F43
:101A7000BB27F00DB11D639FAA27F00DB11DAA1F52
:101A8000649F6627B00DA11D661F829F2227B00D9F
:101A9000A11D621F739FB00DA11D621F839FA00D2A
:101AA000611D221F749F3327A00D611D231F849F7A
:101AB000600D211D822F762F6A2F11249F575040D1
:101AC0009AF0F1F088234AF0EE0FFF1FBB1F661F4C
:101AD000771F881F91505040A9F79E3F510580F015
:101AE0000C94C40C0C940F0D5F3FE4F3983ED4F3B8
:101AF000869577956795B795F795E7959F5FC1F7B9
:101B0000FE2B880F911D9695879597F908950E9451
:101B1000A00C880B990B0895EE0FFF1F0590F49110
:081B2000E02D0994F894FFCFB9
:101B2800323130342E30370001020300000000E06B
:101B38000140016D0148029E017C0190010D0A00DF
:101B48006E616E00696E66006F76660030783032BE
:101B58003A206B75384D42496C6C6567616C44611D
:101B680074614164647265737300307830333A206D
:101B78006B75384D42496C6C6567616C4461746182
:101B880056616C756500307830343A206B75384D85
:101B980042536C6176654465766963654661696C34
:101BA80075726500307845303A206B75384D42497A
:101BB8006E76616C6964536C61766549440030786F
:101BC80045313A206B75384D42496E76616C6964CF
:101BD80046756E6374696F6E00307845323A206BD3
:101BE80075384D42526573706F6E736554696D65D3
:101BF800644F757400307845333A206B75384D4220
:101C0800496E76616C696443524300307830303AEB
:101C1800206B75384D425375636365737300307874
:101C280030313A206B75384D42496C6C6567616C90
:0A1C380046756E6374696F6E00005C
:00000001FF
