:100000000C9471010C9499010C9499010C94990130
:100010000C9499010C9499010C9499010C949901F8
:100020000C9499010C9499010C9499010C949901E8
:100030000C9499010C9499010C9499010C949901D8
:100040000C94390C0C9499010C94070C0C94E10B52
:100050000C9499010C9499010C9499010C949901B8
:100060000C9499010C9499013E0041766572616788
:10007000652077696E6420646972656374696F6E68
:100080002E2E2E203C003E0041637475616C20775B
:10009000696E6420646972656374696F6E2E2E2EBA
:1000A0002E203C00206D2F730041766572616765DC
:1000B0002077696E642073706565642E2E200020A1
:1000C0006D2F730041637475616C2077696E6420D5
:1000D00073706565642E2E2E20002025004162730A
:1000E0006F6C75746548756D69646974792E2E2E10
:1000F000200020C2B0430048656174496E64657891
:100100002E2E2E2E2E2E2E2E2E2E200020C2B0432E
:1001100000446577506F696E742E2E2E2E2E2E2E73
:100120002E2E2E2E200020C2B0430057657420745E
:10013000656D70657261747572652E2E2E2E2000AD
:1001400020250048756D69646974792E2E2E2E2E37
:100150002E2E2E2E2E2E200020685061005072650B
:1001600073737572652E2E2E2E2E2E2E2E2E2E2E63
:10017000200020C2B043004472792074656D706520
:100180007261747572652E2E2E2E2000207C2052F6
:100190006573756C7420697320007365632E207C11
:1001A0002052657175657374206D61646520736C90
:1001B000617665204964206E722E004D696C6C6911
:1001C000732074696D653A2000000000002300264A
:1001D000002900206D6D2F68003E2000206D6D2FDE
:1001E00073003E20005261696E206761756765206B
:1001F0007261696E20726174653A005261696E20A5
:100200006761756765206275636B657473206F76CF
:1002100065727475726E696E673A20007365632E3D
:1002200000206174206D696C6C69732074696D6560
:100230003A20005374617274696E67207461736B45
:1002400020540000000000240027002A00000000C5
:1002500000250028002B0004040404040404040204
:100260000202020202030303030303010204081053
:100270002040800102040810200102040810200020
:100280000000080002010000030407000000000055
:10029000000000536F667477617265207665727333
:1002A000696F6E3A20004D41494E205745415445F3
:1002B000522053544154494F4E20424F4152440022
:1002C000206269742F73005374617274206D6F64BF
:1002D0006275732F73657269616C20617420000010
:1002E000830C11241FBECFEFD8E0DEBFCDBF12E0DC
:1002F000A0E0B1E0E0EDF1E202C005900D92AE3970
:10030000B107D9F725E0AEE9B2E001C01D92AA37E6
:10031000B207E1F711E0C1E7D1E004C02197FE0187
:100320000E94E010C037D107C9F70E94F80C0C9466
:10033000E6100C940000AF92BF92CF92DF92EF9242
:10034000FF920F931F93CF93DF936C017B018B017F
:10035000040F151FEB015E01AE18BF08C017D107CF
:1003600059F06991D601ED91FC910190F081E02D59
:10037000C6010995892B79F7C501DF91CF911F91AE
:100380000F91FF90EF90DF90CF90BF90AF900895C6
:10039000FC01538D448D252F30E0842F90E0821B8B
:1003A000930B541710F0CF96089501970895FC0110
:1003B000918D828D981761F0A28DAE0FBF2FB11D68
:1003C0005D968C91928D9F5F9F73928F90E00895C0
:1003D0008FEF9FEF0895FC01918D828D981731F07A
:1003E000828DE80FF11D858D90E008958FEF9FEFCE
:1003F0000895FC01918D228D892F90E0805C9F4FA4
:10040000821B91098F73992708958CEF92E00E94C7
:10041000F90121E0892B09F420E0822F089580E082
:1004200090E0892B29F00E94050281110C940000B4
:100430000895FC01A48DA80FB92FB11DA35ABF4F79
:100440002C91848D90E001968F739927848FA689D3
:10045000B7892C93A089B1898C91837080648C9327
:10046000938D848D981306C00288F389E02D8081D6
:100470008F7D80830895EF92FF920F931F93CF9308
:10048000DF93EC0181E0888F9B8D8C8D98131AC0CF
:10049000E889F989808185FF15C09FB7F894EE89B6
:1004A000FF896083E889F989808183708064808313
:1004B0009FBF81E090E0DF91CF911F910F91FF905E
:1004C000EF900895F62E0B8D10E00F5F1F4F0F7306
:1004D0001127E02E8C8D8E110CC00FB607FCFACFC1
:1004E000E889F989808185FFF5CFCE010E94190244
:1004F000F1CFEB8DEC0FFD2FF11DE35AFF4FF08292
:100500009FB7F8940B8FEA89FB8980818062CFCFF7
:100510000F931F93CF93DF938C01D0E0C0E0F801DD
:10052000EC0FFD1F6491662341F08CEF92E00E9476
:100530003B02892B11F02196F2CFCE01DF91CF91B2
:100540001F910F910895CF93DF93EC01888D88233D
:10055000B9F0AA89BB89E889F9898C9185FD03C026
:10056000808186FD0DC00FB607FCF7CF8C9185FF0B
:10057000F2CF808185FFEDCFCE010E941902E9CF35
:10058000DF91CF910895833081F028F4813099F084
:100590008230A9F008958730A9F08830C9F08430FE
:1005A000B1F4809180008F7D03C0809180008F77AF
:1005B00080938000089584B58F7784BD089584B5B5
:1005C0008F7DFBCF8091B0008F778093B00008952E
:1005D0008091B0008F7DF9CF1F93CF93DF93282FA9
:1005E00030E0F901E158FD4F8491F901E559FD4FE3
:1005F000D491F901E95AFD4FC491CC23A9F0162FEB
:1006000081110E94C302EC2FF0E0EE0FFF1FE35BAD
:10061000FD4FA591B4918FB7F894EC91111108C0DA
:10062000D095DE23DC938FBFDF91CF911F9108958A
:10063000DE2BF8CF61E083E00C94EC0260E083E015
:100640000C94EC02CF93DF9390E0FC01E559FD4F51
:100650002491895A9D4FFC0184918823D1F090E028
:10066000880F991FFC01ED5BFD4FA591B491FC0132
:10067000E35BFD4FC591D49161110EC09FB7F89413
:100680008C91E22FE0958E238C932881E223E883DE
:100690009FBFDF91CF9108958FB7F894EC91E22B33
:1006A000EC938FBFF6CF3FB7F8948091E30290911F
:1006B000E402A091E502B091E60226B5A89B05C030
:1006C0002F3F19F00196A11DB11D3FBFBA2FA92FD1
:1006D000982F8827BC01CD01620F711D811D911DCE
:1006E00042E0660F771F881F991F4A95D1F708953A
:1006F0002FB7F8946091DF027091E0028091E102DF
:100700009091E2022FBF0895882309F1813011F101
:10071000823019F1833021F1843029F1853031F1B3
:10072000863039F1873041F1883049F1893051F113
:100730008A3059F18B3061F18C3069F18D3071F173
:100740008E3079F18F3081F1803189F1089586E220
:1007500091E008958BE291E0089580E391E008959F
:1007600089E391E0089588E991E0089586E491E0B5
:10077000089586E591E0089582E591E008958EE57B
:1007800091E0089582E691E0089586E691E008956B
:100790008FE691E0089587E991E008958DE791E073
:1007A000089582E991E008958DE891E008958CE93B
:1007B00091E00895FC0101900020E9F73197AF0125
:1007C000481B590BBC018CEF92E00C949B0186EA0C
:1007D00091E00C94DA03CF93DF930E948802EC013E
:1007E0000E94E7038C0F9D1FDF91CF9108958F9298
:1007F0009F92AF92BF920F931F93CF93DF93CDB78A
:10080000DEB7A1970FB6F894DEBF0FBECDBF19A219
:10081000423008F44AE08E010F5D1F4F842E912C68
:10082000B12CA12CA50194010E94820EE62FB901E2
:10083000CA01EA30F4F4E05DD801EE938D01232B78
:10084000242B252B79F790E080E0109719F0CD014B
:100850000E94DA03A1960FB6F894DEBF0FBECDBF9B
:10086000DF91CF911F910F91BF90AF909F908F908C
:100870000895E95CE1CF4F925F926F927F928F92E1
:100880009F92AF92BF92CF92DF92EF92FF926B0155
:100890007C01AC019B010E94DB10882381F089EA76
:1008A00091E0FF90EF90DF90CF90BF90AF909F903E
:1008B0008F907F906F905F904F900C94DA03460179
:1008C0005701E894B7F82FEF3FEF4FE75FE7C50117
:1008D000B4010E94DB1081110DC02FEF3FEF4FE7F5
:1008E0005FE7C501B4010E94110F18161CF48DEAD0
:1008F00091E0D7CF2FEF3FEF4FE75FE4C701B6019D
:100900000E94691018161CF481EB91E0CACF2FEFFA
:100910003FEF4FE75FECC701B6010E94110F87FD63
:10092000F3CF20E030E0A901C701B6010E94110F0A
:10093000B12CA12C87FF0AC06DE28CEF92E00E94DF
:100940003B025C01F7FAF094F7F8F0942AE037EDF7
:1009500043EA5BE3C701B6010E94A50E2B013C01EF
:100960000E94880F6B017C010E94B70F9B01AC01B4
:10097000C301B2010E94A40E2B013C014AE0C70151
:10098000B6010E94F7037C01EA0CFB1C6EE28CEFBF
:1009900092E00E943B02E80EF91E20E030E040E2C7
:1009A00051E4C301B2010E946E102B013C010E9470
:1009B000880F4B01B12CA12C4AE0C501B4010E9463
:1009C000F703E80EF91EC501B4010E94B70F9B01A1
:1009D000AC01C301B2010E94A40E20E030E040E26D
:1009E00051E40E946E100E94880F90E080E04AE07F
:1009F0000E94F7038E0D9F1DFF90EF90DF90CF9028
:100A0000BF90AF909F908F907F906F905F904F902E
:100A100008954F925F926F927F928F929F92AF92C2
:100A2000BF92CF92DF92EF92FF92CF93DF93E4E8F1
:100A3000F2E08491E0E7F2E0D491ECE5F2E0C491D9
:100A4000CC2379F081110E94C302EC2FF0E0EE0F6D
:100A5000FF1FE753FE4FA591B491EC91ED23C1E048
:100A600009F4C0E0C093D1020E9478036B017C01BD
:100A70008090C9029090CA02A090CB02B090CC02A4
:100A8000C814D904EA04FB0409F458C00E9478038E
:100A9000681979098A099B09603E73498440910568
:100AA00008F05BC08091C802813009F023C1C111F8
:100AB00024C11092C802C090C902D090CA02E0902E
:100AC000CB02F090CC02C114D104E104F10409F48A
:100AD000FCC00E9478034B015C014090CD02509015
:100AE000CE026090CF027090D00284149504A604C8
:100AF000B704E1F10E947803641975098609970922
:100B00006C347D4181059105F0F50E947803609376
:100B1000CD027093CE028093CF029093D002DF91EA
:100B2000CF91FF90EF90DF90CF90BF90AF909F90CC
:100B30008F907F906F905F904F9008950E94780300
:100B4000C61AD70AE80AF90A30EEC31633E9D30603
:100B500034E0E306F10408F4A5CF1092C902109224
:100B6000CA021092CB021092CC029CCF0E94780352
:100B7000861A970AA80AB90A5CE485165DE195060B
:100B8000A104B10410F20E9478036093CD02709327
:100B9000CE028093CF029093D0020E947803C616B3
:100BA000D706E806F90609F485C00E9478036C1997
:100BB0007D098E099F090E94B70F20E030E04AE7C7
:100BC00054E40E94160F6B017C010E94780360932D
:100BD000C9027093CA028093CB029093CC02A70102
:100BE00096016AE979E989E99EE30E94160F60930C
:100BF000C0027093C1028093C2029093C30220E0AE
:100C000030E041E655E40E946E106093C402709398
:100C1000C5028093C6029093C702C091BE02D091D4
:100C2000BF022196D093BF02C093BE028BEF91E02A
:100C30000E948802BE0190E080E04AE00E94F70333
:100C40000E94E70385EE91E00E94EB0382EE91E0C3
:100C50000E9488026091C0027091C1028091C2021C
:100C60009091C3020E943B048CED91E00E94EB0343
:100C700089ED91E00E9488026091C4027091C502E2
:100C80008091C6029091C7020E943B0483ED91E0DF
:100C90000E94EB03DF91CF91FF90EF90DF90CF9018
:100CA000BF90AF909F908F907F906F905F904F908C
:100CB0000C94E7030E947803A7019601261B370BCB
:100CC000480B590BCA01B90176CF0E947803609393
:100CD000CD027093CE028093CF029093D0020E94F7
:100CE00078036093C9027093CA028093CB029093F9
:100CF000CC0293CFC13009F012CF81E08093C802BB
:100D00000ECFCF92DF92EF92FF92CF93DF936C01E1
:100D1000990FEE08FF08F7FE19C06DE28CEF92E024
:100D20000E943B02EC0166277727CB016C197D09F5
:100D30008E099F094AE00E94F7038C0F9D1FDF91E7
:100D4000CF91FF90EF90DF90CF9008954AE0C701D8
:100D5000B601DF91CF91FF90EF90DF90CF900C9490
:100D6000F703CF92DF92EF92FF920F931F93CF93EF
:100D7000DF938C01EC01CC0FDD1FCC0FDD1FFE01DA
:100D8000EE52FD4FC080D180E280F380C114D104C7
:100D9000E104F10481F583E392E00E948802C80136
:100DA00001960E94810681E292E00E9488020E94E0
:100DB00078030E94B70F20E030E04AE754E40E9435
:100DC000160F0E943B048CE192E00E9488020E9470
:100DD000E7030E947803CE52DD4F688379838A83CC
:100DE0009B8381E0DF91CF911F910F91FF90EF9056
:100DF000DF90CF9008950E947803C616D706E806C4
:100E0000F906C9F00E9478039B01AC012C193D0939
:100E10004E095F0969017A01FE01E85FFE4F80819A
:100E20009181A281B381C816D906EA06FB0608F0B3
:100E3000B2CF80E0D7CF0E947803C61AD70AE80A5B
:100E4000F90AEACF2F923F924F925F927F928F9250
:100E50009F92AF92BF92CF92DF92EF92FF920F9349
:100E60001F93CF93DF93CDB7DEB7DA950FB6F89423
:100E7000DEBF0FBECDBF782E8CEF92E00E94A302A2
:100E8000C72CD12C25E0729EF0011124E951FD4FB1
:100E90008281882309F47DC42081209362044CEF71
:100EA00052E0509361044093600410926D051092DB
:100EB0006F0510926E05E7E6F4E01192119264E07E
:100EC000E73EF607D1F791E09093F70295E09C9DFD
:100ED000F0019D9DF00D1124E951FD4F9181492FA5
:100EE00050E05093640440936304482F50E05093C3
:100EF000660440936504298323E02A831B829C8334
:100F00001D828E838E010F5F1F4FAE01495F5F4FC1
:100F1000F8018FEF9FEF58012191822728E030E000
:100F2000BC016170772796958795672B21F071E05A
:100F3000872770EA97272150310991F74E175F07ED
:100F400059F78F8398871986809160049091610486
:100F5000DC01ED91FC910284F385E02D0995019669
:100F600099F7E0917605F0917705309709F00995AA
:100F70004801E8E08E0E911C80916004909161041C
:100F8000D8016D918D01DC01ED91FC910190F08112
:100F9000E02D09958016910679F780916004909173
:100FA0006104DC01ED91FC910680F781E02D09954B
:100FB000E0917805F0917905309709F009950E9444
:100FC00078031B012C0100E0A8E09A2E80916004B8
:100FD00090916104DC01ED91FC910084F185E02D9C
:100FE0000995892B09F448C08091600490916104AF
:100FF000DC01ED91FC910284F385E02D0995F5016A
:10100000E00FF11D80839A940F5F053009F05BC0FB
:10101000998180916204981347C1EA818E2F8F775E
:10102000833009F043C1E7FF30C01B8111115EC05E
:101030008FEF9FEF60E010E0980122503109462FBA
:1010400050E0421753070CF0DEC04A0D5B1DFA0159
:101050004081842748E050E0FC01E170FF2796952D
:101060008795EF2B21F0F1E08F27F0EA9F27415081
:10107000510991F76F5FE3CFE0917405F091750529
:10108000309709F4C2CF0995C0CFE350E531D8F4C9
:10109000F0E0E35BF74F0C94E01062086208C808C8
:1010A000C808630863086308630863086308630883
:1010B0006308C808C808630863086308630863080E
:1010C000C50862089B800E9478036219730984092D
:1010D000950912EE613D77408105910508F410E015
:1010E000992009F458C0112309F470CF10926D05AE
:1010F00010926F0510926E05109272058BEB91E0C5
:101100000E9488020E9478030E94B70F20E030E01E
:101110004AE754E40E94160F0E943B048AE991E0DA
:101120000E94880285E08C9DF0018D9DF00D1124B8
:10113000E951FD4F608170E090E080E04AE00E945C
:10114000F7038CE891E00E948802112309F4FCC1A6
:10115000113009F4FBC2123009F4FDC2133009F456
:10116000FFC2143009F401C3103E09F403C3113E59
:1011700009F405C3123E09F407C3133E09F0E8C1A0
:101180008DE5E82E82E0F82EE3C1F5E09F2E9BCF9F
:10119000E3E09E2E98CF1111A9CF053008F048CF7B
:1011A0008A81853030F4833030F48130D0F510E01E
:1011B0009DCF8731E1F76B8170E0759567959091D0
:1011C000730580E0282F30E0261737070CF069C040
:1011D0008034B0F4A9014E5F5F4F440F551F220FBA
:1011E000331FF901E05AFB4FDE01A40FB51F2C910C
:1011F0004A0D5B1DDA019C91322F292F30872783FE
:10120000982F8F5FDFCF2A0D3B1DD9012C9128131A
:1012100006C00C0F1D1FF8018081891709F213EE1B
:1012200065CF6B81462F50E05595479530917305FA
:1012300020E0822F90E084179507E4F42034B8F47E
:10124000880F991FFC01E05AFB4FA5E0B0E0AC0FFE
:10125000BD1FA80FB91F3C91A4E0B0E0AC0FBD1FAB
:101260008A0F9B1FDC018C91932F90878783322FED
:101270002F5FDFCF3093730560FF99CF203468F480
:10128000880F991FFC01E05AFB4F8C0F9D1FDC015A
:1012900014968C9190E0908787832F5F209373053D
:1012A00086CF9093730583CF10EE20CF11EE1ECF23
:1012B0009093A5028093A402111168C080916704E5
:1012C000909168049093A7028093A6029093F603EE
:1012D0008093F50360914C0411E0160F09F411E0BE
:1012E00010934C0410934B04E12FF0E0EE0FFF1F1E
:1012F000EB50FC4FB3E0E53FFB0739F0DF019E9177
:101300008E9191838083FD01F5CF10924704109256
:1013100048041092490410924A0481E080934B04DF
:10132000C12CD12C7601E72DF0E0EE0FFF1FEB5022
:10133000FC4F6081718190E080E00E94B70F9B01BB
:10134000AC01C701B6010E94A50E6B017C0173942C
:10135000171548F770924B04612F70E090E080E021
:101360000E94B70F9B01AC01C701B6010E94160F86
:1013700060934704709348048093490490934A040F
:101380000E94880F7093A9026093A80284EC90E0F9
:101390000E9488026091A6027091A70290E080E00E
:1013A0000E94B70F20E030E040E251E40E94160FA7
:1013B0000E943B048FEB90E00E94EB0389EA90E0EF
:1013C0000E9488026091A8027091A90290E080E0DA
:1013D0000E94B70F20E030E040E251E40E94160F77
:1013E0000E943B0484EA90E08DC090939F0280931A
:1013F0009E021111A2C0809167049091680490939D
:10140000A1028093A00290939A0380939903609124
:10141000F00311E0160F09F411E01093F00310939C
:10142000EF03E12FF0E0EE0FFF1FE756FC4F23E044
:10143000E939F20739F0DF019E918E919183808323
:10144000FD01F5CF1092EB031092EC031092ED0327
:101450001092EE0381E08093EF0301E0C12CD12CC8
:101460007601E02FF0E0EE0FFF1FE756FC4F6081A2
:10147000718190E080E00E94B70F9B01AC01C70131
:10148000B6010E94A50E6B017C010F5F101748F793
:101490000093EF03612F70E090E080E00E94B70FAF
:1014A0009B01AC01C701B6010E94160F6093EB03CC
:1014B0007093EC038093ED039093EE030E94880FEA
:1014C0007093A3026093A20288E890E00E948802D1
:1014D0008091A0020E948403009711F00E94DA0319
:1014E00086E890E00E94EB038AE690E00E94880282
:1014F0008091A2020E948403009711F00E94DA03F7
:1015000088E690E00E94EB03D3950FB6F894DEBF17
:101510000FBECDBFDF91CF911F910F91FF90EF9044
:10152000DF90CF90BF90AF909F908F907F905F9013
:101530004F903F902F900C94E70380E190E09093C0
:10154000A1028093A002C0CFE2E7EE2EE2E0FE2EE1
:10155000C7010E94DA030E94E7031092F702812F6D
:1015600090E061E0761609F4A3CE72E0771609F4F4
:101570003CCF9093AD028093AC02111140C080919A
:101580006704909168049093AF028093AE028091BB
:10159000690490916A049093B1028093B0028091A3
:1015A0006B0490916C049093B3028093B20280918B
:1015B0006D0490916E049093B5028093B402809173
:1015C0006F04909170049093B7028093B60280915B
:1015D0007104909172049093B9028093B802809143
:1015E0007304909174049093BB028093BA0280912B
:1015F0007504909176049093BD028093BC0287E7B6
:1016000091E00E9488026091AE027091AF0290E07A
:1016100080E00E94B70F20E030E040E251E40E94F9
:10162000160F0E943B0482E791E00E94EB038DE5D8
:1016300091E00E9488026091B0027091B10290E046
:1016400080E00E94B70F20E030E040E251E40E94C9
:10165000160F0E943B0488E591E00E94EB0383E4AF
:1016600091E00E9488026091B2027091B30290E012
:1016700080E00E94B70F20E030E040E251E40E9499
:10168000160F0E943B0480E491E00E94EB038BE282
:1016900091E00E9488026091B4027091B50290E0DE
:1016A00080E00E94B70F20E030E040E251E40E9469
:1016B000160F0E943B0486E291E00E94EB0381E159
:1016C00091E00E9488026091B6027091B70290E0AA
:1016D00080E00E94B70F20E030E040E251E40E9439
:1016E000160F0E943B048CE091E00E94EB0387EF11
:1016F00090E00E9488026091B8027091B90290E077
:1017000080E00E94B70F20E030E040E251E40E9408
:10171000160F0E943B0482EF90E00E94EB038DEDD8
:1017200090E00E9488026091BA027091BB0290E042
:1017300080E00E94B70F20E030E040E251E40E94D8
:10174000160F0E943B048AED90E0DCCE73E8E72E92
:1017500072E0F72EFDCE65EBE62E61E0F62EF8CEB8
:1017600053EDE52E51E0F52EF3CE4FEEE42E41E0A1
:10177000F42EEECE3DE0E32E32E0F32EE9CE27E26A
:10178000E22E22E0F22EE4CE91E4E92E92E0F92E50
:10179000DFCED3950FB6F894DEBF0FBECDBFDF917D
:1017A000CF911F910F91FF90EF90DF90CF90BF905E
:1017B000AF909F908F907F905F904F903F902F9031
:1017C00008951F920F920FB60F9211242F933F93FB
:1017D0004F935F936F937F938F939F93AF93BF9339
:1017E000EF93FF938CEF92E00E941902FF91EF912B
:1017F000BF91AF919F918F917F916F915F914F9129
:101800003F912F910F900FBE0F901F9018951F9230
:101810000F920FB60F9211242F938F939F93EF93F4
:10182000FF93E0910C03F0910D038081E09112038E
:10183000F091130382FD1BC09081809115038F5F8F
:101840008F7320911603821741F0E0911503F0E0A9
:10185000E450FD4F958F80931503FF91EF919F9179
:101860008F912F910F900FBE0F901F901895808130
:10187000F4CF1F920F920FB60F9211242F933F9324
:101880008F939F93AF93BF938091DF029091E0027B
:10189000A091E102B091E2023091DE0223E0230F39
:1018A0002D3758F50196A11DB11D2093DE028093BE
:1018B000DF029093E002A093E102B093E2028091F4
:1018C000E3029091E402A091E502B091E602019654
:1018D000A11DB11D8093E3029093E402A093E50261
:1018E000B093E602BF91AF919F918F913F912F915D
:1018F0000F900FBE0F901F90189526E8230F0296A9
:10190000A11DB11DD2CFECEFF2E01382128288EE5E
:1019100093E0A0E0B0E084839583A683B78388E159
:1019200091E09183808385EC90E09587848784ECB7
:1019300090E09787868780EC90E0918B808B81EC9C
:1019400090E0938B828B82EC90E0958B848B86EC7D
:1019500090E0978B868B118E128E138E148E1092C0
:101960007505109274051092770510927605109205
:10197000790510927805E1E5F4E011821082138276
:101980001282109247041092480410924904109257
:101990004A0410924B0410924C0410924D04109281
:1019A0004E0410924F041092500482E5E5EFF3E0EC
:1019B000DF01982F1D929A95E9F71092EB03109290
:1019C000EC031092ED031092EE031092EF031092CD
:1019D000F0031092F1031092F2031092F3031092AD
:1019E000F403E9E9F3E0DF011D928A95E9F7089530
:1019F000789484B5826084BD84B5816084BD85B5EA
:101A0000826085BD85B5816085BD80916E008160F5
:101A100080936E001092810080918100826080939B
:101A2000810080918100816080938100809180009D
:101A30008160809380008091B10084608093B100C8
:101A40008091B00081608093B00080917A008460C2
:101A500080937A0080917A00826080937A008091EE
:101A60007A00816080937A0080917A008068809308
:101A70007A001092C10061E086E00E94220360E0DB
:101A800085E00E94220361E083E00E94220381E05E
:101A90008093E70294E69093E80298E09093E9023D
:101AA0009BEC9093EA0296E09093EB0222E0209365
:101AB000EC021092ED028093EE021092EF0210926F
:101AC000F00233E03093F1021092F2028093F302BD
:101AD0001092F4021092F5024AE153E05093770518
:101AE000409376054EE153E0509379054093780595
:101AF00049E055E05093750540937405E0910C035F
:101B0000F0910D032083E0910803F0910903108206
:101B1000E0910A03F0910B038FEC80831092140381
:101B2000E0911003F09111039083E0910E03F09186
:101B30000F03808180618083E0910E03F0910F0399
:101B4000808188608083E0910E03F0910F03808193
:101B500080688083E0910E03F0910F0380818F7D78
:101B6000808387EC92E00E94880280E895E20E94E0
:101B7000810680EC92E00E94EB030E94E70386EA74
:101B800092E00E94EB0383E992E00E94880280E0E9
:101B900091E00E94DA030E94E7030E94E7030E949B
:101BA00053034B015C0184ECC82E89E0D82EE12C54
:101BB000F12C0E945303681979098A099B09683E30
:101BC000734081059105A8F321E0C21AD108E1080C
:101BD000F10838EE830E33E0931EA11CB11CC11432
:101BE000D104E104F10429F781E08093F602C0E01A
:101BF000D0E00E9478036093F8027093F90280931A
:101C0000FA029093FB020E9409058091F70281116C
:101C100031C090E080E00E94B106882359F180E055
:101C20000E9422076091F60286E00E94EC020E9468
:101C30007803C090F802D090F902E090FA02F09098
:101C4000FB026C157D058E059F0561F10E947803EE
:101C50006C197D098E099F09643171058105910513
:101C600078F1209731F20E940502882311F20E9438
:101C70000000BFCF8091F702811108C081E090E0A1
:101C80000E94B106882311F081E0CACF8091F7024B
:101C90008111C8CF82E090E00E94B106882311F242
:101CA00082E0BECF0E947803A7019601261B370B66
:101CB000480B590BDA01C9014497A105B10588F613
:101CC0000E947803C616D706E806F90661F00E945E
:101CD00078036C197D098E099F09653171058105AD
:101CE000910570F3BECF0E947803A7019601261BD1
:101CF000370B480B590BDA01C9014597A105B1050E
:101D0000F8F2AFCFA1E21A2EAA1BBB1BFD010DC03A
:101D1000AA1FBB1FEE1FFF1FA217B307E407F5079B
:101D200020F0A21BB30BE40BF50B661F771F881F77
:101D3000991F1A9469F760957095809590959B010D
:101D4000AC01BD01CF0108955058BB27AA270E94BE
:101D5000BC0E0C942F100E94211038F00E94281005
:101D600020F039F49F3F19F426F40C941E100EF461
:101D7000E095E7FB0C941810E92F0E94401058F3EF
:101D8000BA17620773078407950720F079F4A6F560
:101D90000C9462100EF4E0950B2EBA2FA02D0B01BF
:101DA000B90190010C01CA01A0011124FF27591BA0
:101DB00099F0593F50F4503E68F11A16F040A22FA6
:101DC000232F342F4427585FF3CF46953795279517
:101DD000A795F0405395C9F77EF41F16BA0B620B16
:101DE000730B840BBAF09150A1F0FF0FBB1F661F5D
:101DF000771F881FC2F70EC0BA0F621F731F841FA0
:101E000048F4879577956795B795F7959E3F08F0C5
:101E1000B0CF9395880F08F09927EE0F9795879587
:101E200008950E94F40F08F481E008950E942A0F9B
:101E30000C942F100E94281058F00E94211040F09E
:101E400029F45F3F29F00C94181051110C94631081
:101E50000C941E100E94401068F39923B1F355238F
:101E600091F3951B550BBB27AA27621773078407AD
:101E700038F09F5F5F4F220F331F441FAA1FA9F343
:101E800035D00E2E3AF0E0E832D091505040E69531
:101E9000001CCAF72BD0FE2F29D0660F771F881F92
:101EA000BB1F261737074807AB07B0E809F0BB0B85
:101EB000802DBF01FF2793585F4F3AF09E3F510599
:101EC00078F00C9418100C9463105F3FE4F3983E84
:101ED000D4F3869577956795B795F7959F5FC9F782
:101EE000880F911D9695879597F90895E1E0660F03
:101EF000771F881FBB1F621773078407BA0720F07C
:101F0000621B730B840BBA0BEE1F88F7E0950895E4
:101F10000E94481088F09F5798F0B92F9927B75121
:101F2000B0F0E1F0660F771F881F991F1AF0BA957D
:101F3000C9F714C0B13091F00E946210B1E0089569
:101F40000C946210672F782F8827B85F39F0B93F5B
:101F5000CCF3869577956795B395D9F73EF4909530
:101F60008095709561957F4F8F4F9F4F0895E894AE
:101F700009C097FB3EF490958095709561957F4FD1
:101F80008F4F9F4F9923A9F0F92F96E9BB2793957F
:101F9000F695879577956795B795F111F8CFFAF48F
:101FA000BB0F11F460FF1BC06F5F7F4F8F4F9F4FC0
:101FB00016C0882311F096E911C0772321F09EE81E
:101FC000872F762F05C0662371F096E8862F70E084
:101FD00060E02AF09A95660F771F881FDAF7880F5E
:101FE0009695879597F90895990F0008550FAA0BB4
:101FF000E0E8FEEF16161706E807F907C0F012161C
:102000001306E407F50798F0621B730B840B950B1E
:1020100039F40A2661F0232B242B252B21F4089573
:102020000A2609F4A140A6958FEF811D811D089510
:1020300097F99F6780E870E060E008959FEF80EC7B
:10204000089500240A94161617061806090608951E
:1020500000240A9412161306140605060895092E84
:102060000394000C11F4882352F0BB0F40F4BF2BF3
:1020700011F460FF04C06F5F7F4F8F4F9F4F089533
:1020800057FD9058440F551F59F05F3F71F0479529
:10209000880F97FB991F61F09F3F79F0879508950E
:1020A000121613061406551FF2CF4695F1DF08C02D
:1020B000161617061806991FF1CF8695710561054A
:1020C00008940895E894BB2766277727CB0197F9F2
:1020D00008950E94F40F08F48FEF08950E94811074
:1020E0000C942F100E94211038F00E94281020F02C
:1020F000952311F00C9418100C941E1011240C94BC
:1021000063100E94401070F3959FC1F3950F50E04B
:10211000551F629FF001729FBB27F00DB11D639F99
:10212000AA27F00DB11DAA1F649F6627B00DA11D3F
:10213000661F829F2227B00DA11D621F739FB00DE5
:10214000A11D621F839FA00D611D221F749F332755
:10215000A00D611D231F849F600D211D822F762FEE
:102160006A2F11249F5750409AF0F1F088234AF0CB
:10217000EE0FFF1FBB1F661F771F881F9150504037
:10218000A9F79E3F510580F00C9418100C94631031
:102190005F3FE4F3983ED4F3869577956795B795BE
:1021A000F795E7959F5FC1F7FE2B880F911D9695D8
:1021B000879597F908950E94F40F880B990B08955D
:1021C000EE0FFF1F0590F491E02D0994F894FFCFD6
:1021D000323130342E303700C8AF0000983A00005A
:1021E00088130000000000003B029B01C801A3020D
:1021F000F901D701EB014E4F5244004E4F52445F5C
:102200004E4F52445F455354004553545F4E4F5216
:10221000445F455354004553545F5355445F455301
:1022200054005355445F5355445F45535400535530
:1022300044005355445F5355445F5745535400572A
:102240004553545F5355445F57455354004F5645CB
:1022500053545F4E4F52445F57455354004E4F52B4
:10226000445F4E4F52445F57455354004E4F545FA6
:1022700056414C4944000D0A006E616E00696E665D
:10228000006F766600307830323A204D425F494C1C
:102290004C4547414C5F444154415F4144445245A1
:1022A000535300307830333A204D425F494C4C450F
:1022B00047414C5F444154415F56414C55450030C5
:1022C0007830343A204D425F534C4156455F444587
:1022D000564943455F4641494C5552450030784583
:1022E000303A204D425F494E56414C49445F534C71
:1022F0004156455F494400307845313A204D425FB0
:10230000494E56414C49445F46554E4354494F4E01
:1023100000307845323A204D425F524553504F4E7F
:1023200053455F54494D45445F4F555400307845FF
:10233000333A204D425F494E56414C49445F435227
:102340004300307830303A204D425F535543434587
:10235000535300307830313A204D425F494C4C4560
:0E23600047414C5F46554E4354494F4E0000D6
:00000001FF
